:100000000C94C3160C94F4160C94F4160C94F41679
:100010000C94F4160C94F4160C94F4160C94F41638
:100020000C94F4160C94F4160C94F4160C94F41628
:100030000C94F4160C94F4160C94F4160C94F41618
:100040000C94F4160C942A880C94F4160C94F41660
:100050000C94F4160C94F4160C9497560C94C54F0B
:100060000C94F4160C94137C0C94F4160C94F41663
:100070000C94F4160C94F4160C94F4160C94F416D8
:100080000C94F4160C94F4160C94F4160C94F416C8
:100090000C94F4160C94F4160C94F4160C94F416B8
:1000A0000C94F4160C94F4160C94F4160C94F416A8
:1000B0000C94F4160C94F4160C94F4160C94F41698
:1000C0000C94F4160C94F4160C94F4160C94F41688
:1000D0000C94F4160C94F4160C94F4160C94F41678
:1000E0000C94F416DF4EE44EE94EF34EFD4E764F7F
:1000F000074F0F4F174F214F2B4F354F444F4E4F48
:10010000764F584F624F6C4FF25602572157265781
:1001100029572E573157365739573E57415746576B
:100120005057F083F383E283E683EC832A84F783DA
:10013000FB830184058409840F84138417842A8433
:100140001D8421842584084AD73B3BCE016E84BCA4
:10015000BFFDC12F3D6C74319ABD56833DDA3D0021
:10016000C77F11BED9E4BB4C3E916BAAAABE00006A
:1001700000803F05A84CCDB2D44EB93836A9020C48
:1001800050B9918688083CA6AAAA2ABE0000008021
:100190003F000C94214F0C94EC830C94894E0C94EA
:1001A000EC530C94A67D0C94764F0C94E2830C9443
:1001B00026570C94F0830C94A87D0C94C3930C9454
:1001C000F34E0C943E570C94E6830C94CB5B0C944A
:1001D0000F4F0C94074F0C94A2B10C9421570C9420
:1001E0002A840C94D05D0C94E44E0C946C4F0C94C7
:1001F00033610C943B620C9419930C9425840C94F9
:100200005F9C0C9402550C949D5B0C9435620C948D
:100210001C760C942F620C94F7830C9421840C941C
:1002200013840C94174F0C9461940C94584F0C94B5
:100230005E920C9446570C94A78F0C949D980C9446
:10024000B45D0C94A47D0C9439570C94F2560C9424
:10025000D3830C94469D0C941D840C940F840C94B1
:10026000FB830C942E570C9466830C94417C0C9465
:1002700017840C94DF4E0C942B4F0C9429570C943C
:10028000C25D0C942D9F0C9436570C94DE5D0C943B
:1002900031570C9402910C94D6820C94AA830C943E
:1002A000E94E0C94FD4E0C94D9820C9458900C9409
:1002B00005840C94624F0C943E420C9401840C947F
:1002C000444F0C946A920C9441570C9429620C94FC
:1002D000354F0C9468920C945F940C9402570C94D4
:1002E000B45B0C9409840C94489D0C9450570C9466
:1002F000F3830C944E4F434F4D4D554E494341545B
:10030000494F4E0044525952554E004552524F5299
:100310005300494E464F004543484F0020746F6FCD
:10032000206C6F6E6720657874727573696F6E20CC
:1003300070726576656E7465640A0020636F6C6424
:1003400020657874727573696F6E2070726576655A
:100350006E7465640A0047322F473320626164205F
:10036000706172616D65746572730A005265706FB9
:10037000736F2E2E2E00206669727374005A005916
:10038000005800486F6D6520002066697273740A1A
:10039000005A0059005800486F6D652000203D3D0F
:1003A0003D3D00202020200042696C696E6561722D
:1003B000204C6576656C696E6720477269643A0AFD
:1003C000200028422961636B00284629726F6E74F1
:1003D000002852296967687400284C2965667400F2
:1003E00052756E6E696E6720696E204452592D52A7
:1003F000554E206D6F64650A00473239204175748F
:100400006F20426564204C6576656C696E670A00F2
:100410003F2856296572626F7365204C6576656C5E
:1004200020697320696D706C61757369626C6520F9
:1004300028302D34292E0A00205A3A200020593A1B
:10044000200042656420583A2000334420507269ED
:100450006E746572206C697374612E0045737065EB
:1004600072616E646F206F7264656E6573005369AC
:100470006E206D6F76696D69656E746F00256973A6
:100480000025696D20256973002569682025696D3F
:100490002025697300256964202569682025696D18
:1004A00020256973002569792025696420256968FC
:1004B0002025696D20256973005072696E7420745F
:1004C000696D653A200050726F74656374656420CD
:1004D00050696E0A0043616C656E74616E646F2EC4
:1004E0002E2E003344205072696E746572206C6940
:1004F0007374612E00170312030B030403F6026FDB
:1005000066660044454255473A0050617261646135
:1005100020646520656D657267656E636961004D75
:100520003131332053006F6B0043616C656E746131
:100530006D69656E746F206C6973746F003F0A009B
:1005400020573A0043616C656E74616E646F2E2EA5
:100550002E003344205072696E746572206C69738A
:1005600074612E003344205072696E7465722041AC
:1005700070616761722E004649524D574152455F86
:100580004E414D453A4D61726C696E20312E312ECF
:10059000302D5243382028476974687562292053EA
:1005A0004F555243455F434F44455F55524C3A685F
:1005B000747470733A2F2F6769746875622E636F55
:1005C0006D2F4D61726C696E4669726D77617265EF
:1005D0002F4D61726C696E2050524F544F434F4CF7
:1005E0005F56455253494F4E3A312E30204D4143CC
:1005F00048494E455F545950453A3344205072693A
:100600006E7465722045585452554445525F434FAD
:10061000554E543A3120555549443A636564653224
:100620006132662D343161322D343734382D3962E0
:1006300031322D6335356336326633363766660AB6
:10064000007A5F6D61783A20007A5F6D696E3A20BA
:1006500000795F6D61783A2000795F6D696E3A20AC
:1006600000785F6D61783A2000785F6D696E3A209E
:10067000005265706F7274696E6720656E64737482
:100680006F70207374617475730A0020643A0020DF
:10069000693A0020703A0043290A0061626C65647F
:1006A00020286D696E2074656D702000436F6C6446
:1006B000206578747275646573206172652000230B
:1006C000646566696E65202044454641554C545F1B
:1006D0004B64200023646566696E652020444546AE
:1006E00041554C545F4B69200023646566696E6513
:1006F000202044454641554C545F4B7020005049E2
:1007000044204175746F74756E652066696E6973F7
:10071000686564212050757420746865206C61736D
:1007200074204B702C204B6920616E64204B642038
:10073000636F6E7374616E74732066726F6D206286
:10074000656C6F7720696E746F20436F6E666967A2
:1007500075726174696F6E2E680A005049442041B9
:1007600075746F74756E65206661696C65642120AF
:1007700074696D656F75740A005049442041757441
:100780006F74756E65206661696C656421205465BF
:100790006D706572617475726520746F6F20686921
:1007A00067680A00204B643A2000204B693A200019
:1007B000204B703A20000A20436C617373696320F8
:1007C000504944200A002054753A2000204B753AC5
:1007D0002000206D61783A2000206D696E3A20007B
:1007E00020643A200020626961733A2000446573F6
:1007F000666173652061706C696361646F00457246
:10080000723A20546F6F206661722100546F6F201E
:100810006661722066726F6D207265666572656EC4
:10082000636520706F696E740A00454550524F4DE4
:100830002064697361626C65640A003A20007A5F23
:100840006D61783A20007A5F6D696E3A20004465E8
:100850007366617365205A0041637469766520454B
:10086000787472756465723A2000556E6B6E6F779E
:100870006E20636F6D6D616E643A202200205A3ADB
:10088000200020593A200042656420583A20002078
:10089000706F736974696F6E206F7574206F662056
:1008A00072616E67652E0A003F50726F62652000AC
:1008B00020403A00202F0020543A004D313435209A
:1008C000533C696E6465783E206F7574206F6620B6
:1008D00072616E67652028302D31290A00205A3A4E
:1008E0000020423A0020436F756E7420413A200088
:1008F00020453A00205A3A0020593A00583A00530D
:10090000657474696E672054726176656C2041630A
:1009100063656C65726174696F6E3A20005365742B
:1009200074696E67205265747261637420416363F9
:10093000656C65726174696F6E3A200053657474FA
:10094000696E67205072696E7420416363656C65DF
:10095000726174696F6E3A200053657474696E67D2
:10096000205072696E7420616E64205472617665E5
:100970006C20416363656C65726174696F6E3A20C7
:1009800000205A00205900580020204D61783A205C
:1009900000205A00205900580020204D696E3A204E
:1009A00000456E63656E64657200417061676172D7
:1009B00000536F667420656E6473746F70733A20B1
:1009C00000627573793A2070617573656420666F93
:1009D0007220696E7075740A00627573793A2070BE
:1009E000617573656420666F7220757365720A00A5
:1009F000627573793A2070726F63657373696E679D
:100A00000A0050617261646120646520656D6572E1
:100A100067656E636961005061726164612064653D
:100A200020656D657267656E63696100506C656114
:100A30007365207265736574005052494E54455277
:100A40002048414C544544005072696E74657220D0
:100A500068616C7465642E206B696C6C2829206356
:100A6000616C6C6564210A00000000000000000059
:100A70000000C8435761726E696E673A20486F6D17
:100A8000696E672042756D702044697669736F7274
:100A9000203C20310A000000A0400000A0400000DF
:100AA000004000004843000048430000C843FFFFE7
:100AB0000148617264636F646564204465666175B2
:100AC0006C742053657474696E6773204C6F616435
:100AD00065640A0020204D383531205A005A2D50C7
:100AE000726F6265204F666673657420286D6D298C
:100AF0003A0A0020204D3230302044300A002020B5
:100B00004D3230302044002044697361626C65646A
:100B10000A0046696C616D656E7420736574746952
:100B20006E67733A0020440020490020204D333086
:100B3000312050005049442073657474696E6773A6
:100B40003A0A0020460020420020480020204D3173
:100B500034352053004D6174657269616C2068659D
:100B60006174757020706172616D65746572733A3D
:100B70000A00205A0020590020204D3230362058DB
:100B800000486F6D65206F666673657420286D6D13
:100B9000290A00204500205A002059002058002032
:100BA000420020540020204D323035205300416453
:100BB00076616E636564207661726961626C6573EB
:100BC0003A20533D4D696E206665656472617465B7
:100BD00020286D6D2F73292C20543D4D696E207493
:100BE000726176656C206665656472617465202843
:100BF0006D6D2F73292C20423D6D696E696D756D89
:100C0000207365676D656E742074696D6520286D4D
:100C100073292C20583D6D6178696D756D20585988
:100C2000206A65726B20286D6D2F73292C20205A45
:100C30003D6D6178696D756D205A206A65726B2013
:100C4000286D6D2F73292C2020453D6D6178696DCD
:100C5000756D2045206A65726B20286D6D2F732994
:100C60000A0020540020520020204D323034205001
:100C700000416363656C65726174696F6E733A20DD
:100C8000503D7072696E74696E672C20523D7265BA
:100C9000747261637420616E6420543D7472617675
:100CA000656C0A00204500205A0020590020204D84
:100CB0003230312058004D6178696D756D20416387
:100CC00063656C65726174696F6E20286D6D2F733A
:100CD00032293A0A00204500205A002059002020DD
:100CE0004D3230332058004D6178696D756D206646
:100CF000656564726174657320286D6D2F73293A80
:100D00000A00204500205A0020590020204D393289
:100D100020580053746570732070657220756E6979
:100D2000743A0A0050617261646120646520656DE7
:100D3000657267656E63696100202D20496E76617A
:100D40006C6964206578747275646572206E756D67
:100D500062657220210A004572726F723A0020208B
:100D6000506C616E6E65724275666665724279742A
:100D700065733A20002046726565204D656D6F727F
:100D8000793A2000436F6D70696C65643A204A754A
:100D90006E20203220323031370A00207C2041750D
:100DA00074686F723A20286775696C6C65726D6F34
:100DB000290A00323031362D31322D303620313291
:100DC0003A303000204C6173742055706461746552
:100DD000643A2000312E312E302D5243380A004D16
:100DE00061726C696E0020536F6674776172652062
:100DF00052657365740A00205761746368646F6795
:100E00002052657365740A002042726F776E206FFE
:100E100075742052657365740A0020457874657294
:100E20006E616C2052657365740A00506F7765724D
:100E300055700A0073746172740A00456E647374AD
:100E40006F707320256320256320256320256300B0
:100E5000205A3A0020593A0020583A00656E6473CF
:100E6000746F7073206869743A20006563686F3A24
:100E7000006265640A002C2073797374656D2073B9
:100E8000746F7070656421204865617465725F4994
:100E9000443A20004572726F722064652074656D5B
:100EA000706572617475726100546865726D616C11
:100EB0002052756E61776179004572726F723A20C7
:100EC000616C2063616C656E746172004865617469
:100ED000696E67206661696C6564004572726F7245
:100EE0003A20616C2063616C656E746172004865C4
:100EF0006174696E67206661696C65640045727231
:100F00006F723A2054656D70204D6178696D610093
:100F10004D415854454D502074726967676572653C
:100F200064004572726F723A2054656D70204D698D
:100F30006E696D61004D494E54454D502074726983
:100F4000676765726564004D6F7665722058004D65
:100F50006F7665722059004D6F766572205A004594
:100F600078747275736F72004578747275736F72EE
:100F7000004D6F766572205A004D6F76657220596C
:100F8000004D6F7665722058004D6F766572206552
:100F90006A6573004D6F76657220302E316D6D007D
:100FA0004D6F76657220316D6D004D6F76657220E4
:100FB00031306D6D00507265706172617200526502
:100FC00073746175726172206D656D6F7269610015
:100FD00046696C616D656E746F004D6F76696D6901
:100FE000656E746F0054656D7065726174757261C1
:100FF000004D656E75207072696E636970616C007A
:1010000050726563616C656E746172204142534336
:101010006F6E6669670050726563616C656E7461BE
:101020007220504C41436F6E666967005049442DF1
:1010300044005049442D44005049442D4900504932
:10104000442D49005049442D50005049442D500032
:101050002008204661637400200820466163740004
:101060002008204D6178002008204D61780020087C
:10107000204D696E002008204D696E004170616747
:10108000617200456E63656E6465720054656D70D3
:1010900065726174757261204175746F2E005665BA
:1010A0006E74696C61646F720056656E74696C6110
:1010B000646F7200426F7175696C6C6100426F7190
:1010C00075696C6C6100436F6E74726F6C00426F77
:1010D0007175696C6C6100426F7175696C6C61004F
:1010E00056656E74696C61646F720056656E7469E2
:1010F0006C61646F720054656D70657261747572B5
:10110000610020746F6F206C6F6E67206578747259
:101110007573696F6E2070726576656E7465640AAA
:101120000020636F6C6420657874727573696F6EEC
:101130002070726576656E7465640A00656E7175FF
:10114000657565696E672022004E6F204C696E657B
:10115000204E756D626572207769746820636865DA
:10116000636B73756D2C204C617374204C696E65D4
:101170003A200050617261646120646520656D658C
:101180007267656E63696100446574656E69646168
:10119000005072696E7465722073746F707065644C
:1011A0002064756520746F206572726F72732E20D3
:1011B00046697820746865206572726F7220616E6E
:1011C0006420757365204D39393920746F2072653C
:1011D00073746172742E202854656D706572617429
:1011E0007572652069732072657365742E2053656E
:1011F000742069742061667465722072657374610D
:101200007274696E67290A004E6F20436865636BCC
:1012100073756D2077697468206C696E65206E75D2
:101220006D6265722C204C617374204C696E653A56
:101230002000636865636B73756D206D69736D6104
:101240007463682C204C617374204C696E653A207D
:10125000004C696E65204E756D6265722069732061
:101260006E6F74204C617374204C696E65204E75EE
:101270006D6265722B312C204C617374204C696E49
:10128000653A20004D3131300020496E76616C693D
:1012900064206578747275646572200000004843AC
:1012A000000048430000C8430000000000000000A8
:1012B0000000000045207061736F732F6D6D004555
:1012C000207061736F732F6D6D005A207061736FA2
:1012D000732F6D6D005A207061736F732F6D6D00E9
:1012E00059207061736F732F6D6D00592070617399
:1012F0006F732F6D6D0058207061736F732F6D6D5C
:101300000058207061736F732F6D6D004163656CC1
:101310002E205669616A65004163656C2E2056690E
:10132000616A65004163656C2E2072657472616349
:101330002E004163656C2E207265747261632E000D
:101340004163656C2E206D617845004163656C2EAC
:10135000206D617845004163656C2E206D61785A7F
:10136000004163656C2E206D61785A004163656CA5
:101370002E206D617859004163656C2E206D617877
:1013800059004163656C2E206D617858004163659A
:101390006C2E206D6178580056656C2E2076696140
:1013A0006A65206D696E0056656C2E207669616AEB
:1013B00065206D696E00566D696E00566D696E0030
:1013C000566D61784500566D61784500566D6178BF
:1013D0005A00566D61785A00566D61785900566D05
:1013E00061785900566D61785800566D61785800E3
:1013F00056652D6A65726B0056652D6A65726B00C5
:10140000567A2D6A65726B00567A2D6A65726B008A
:1014100056792D6A65726B0056792D6A65726B007C
:1014200056782D6A65726B0056782D6A65726B006E
:101430004163656C65726163696F6E004163656CE1
:1014400065726163696F6E004465736661736520E0
:101450005A0044657366617365205A00436F6E7469
:10146000726F6C0046696C2E204469612E004669DB
:101470006C2E204469612E004170616761720045E5
:101480006E63656E646572004520696E206D6D3314
:1014900000436F6E74726F6C0000002100240027FF
:1014A000002A002D00300033000101000004010774
:1014B000010A0100002200250028002B002E003127
:1014C00000340002010000050108010B01000020AA
:1014D000002300260029002C002F0032000001000C
:1014E00000030106010901050505050705080808AF
:1014F00008020202020A0A080804040404010101A5
:1015000001010101010303030303030303040707AC
:10151000070C0C0C0C0C0C0C0C020202020606064A
:1015200006060606060B0B0B0B0B0B0B0B01021032
:1015300020200808102040102040800201020108ED
:10154000040201010204081020408080402010089D
:1015500004020180040201804020100804020108F6
:101560000402010102040810204080010204081056
:1015700020408000000A0B02090C0D0E080703042E
:10158000010000000000000000000000000000005A
:101590000000000000000000000000000000001239
:1015A000111000000000000000000000000000001A
:1015B00000000000000000000024F4D43050C38E6E
:1015C00020C2A24017828B7011127A910D816CD9C2
:1015D0000AA861E108C7586607615143061E4B5DC2
:1015E00005C145A7041A411104093D980371393119
:1015F000034036DB0265339102D4305402802E1D45
:1016000002632CEE01752AC501B028A001102781C4
:10161000018F2564012B244B01E0223401AC211FF2
:10162000018D200D01801FFC00841EED00971DDF41
:1016300000B81CD200E61BC600201BBC00641AB216
:1016400000B219A8000A19A0006A189900D11791D0
:101650000040178B00B516840031167E00B3157953
:10166000003A157300C7146F0058146A00EE136631
:10167000008813630025135E00C7125B006C1257CD
:101680000015125400C111510070114F0021114B6F
:1016900000D61049008D1047004610440002104249
:1016A00000C00F4000800F3E00420F3C00060F3B81
:1016B00000CB0E3800930E37005C0E3500270E3439
:1016C00000F30D3200C10D3100900D3000600D2E81
:1016D00000320D2D00050D2C00D90C2B00AE0C296D
:1016E00000850C29005C0C2700350C27000E0C2609
:1016F00000E80B2400C40B2400A00B23007D0B2367
:10170000005A0B2100390B2100180B2000F80A1F8A
:1017100000D90A1E00BB0A1E009D0A1D00800A1D7A
:1017200000630A1C00470A1B002C0A1B00110A1A3E
:1017300000F7091A00DD091900C4091900AB0919DD
:1017400000920917007B091800630917004C09165D
:101750000036091600200916000A091500F50815BB
:1017600000E0081400CC081400B8081400A4081401
:1017700000900813007D0812006B0813005808122F
:101780000046081200340811002308110012081145
:101790000001081100F0071000E0071000D007104A
:1017A00000C0071000B0070F00A107100091070E3E
:1017B0000083070F0074070F0065070E0057070E20
:1017C0000049070E003B070D002E070E0020070DF5
:1017D0000013070D0006070D00F9060C00ED060DBD
:1017E00000E0060C00D4060C00C8060C00BC060C79
:1017F00000B0060C00A4060B0099060C008D060B29
:101800000082060B0077060B006C060B0061060ACF
:101810000057060B004C060A0042060A0038060A6A
:10182000002E060A0024060A001A060A00100609FD
:101830000007060A00FD050900F4050900EB05098B
:1018400000E2050900D9050900D0050900C705090E
:1018500000BE050900B5050800AD050800A505098D
:10186000009C050800940508008C05080084050804
:10187000007C050800740508006C05070065050874
:10188000005D050700560508004E050700470507DF
:10189000004005080038050700310507002A050744
:1018A00000230507001C050600160507000F0507A5
:1018B000000805060002050700FB040600F5040702
:1018C00000EE040600E8040600E2040700DB04065C
:1018D00000D5040600CF040600C9040600C30406B0
:1018E00000BD040600B7040600B1040500AC040600
:1018F00000A6040600A00405009B0406009504054C
:1019000000900406008A0405008504050080040692
:10191000007A04050075040500700405006B0405D9
:101920000066040500610405005C04050057040519
:1019300000520405004D0405004804050043040559
:10194000003E0404003A0405003504050030040498
:10195000002C04050027040400230405001E0404D1
:10196000001A04040016040500110404000D040408
:1019700000090405000404040000040400FC03043E
:1019800000F8030400F4030400F0030400EC030473
:1019900000E8030400E4030400E0030400DC0304A3
:1019A00000D8030400D4030400D0030400CC0304D3
:1019B00000C8030300C503030024F404D9201BC49A
:1019C0000C5C0E9804C4095F0265077101F405F907
:1019D00000FB04B30048048700C1036900580355A5
:1019E0000003034500BE023A008402310053022A7C
:1019F000002902250004022000E4011C00C801198E
:101A000000AF011700980114008401130071011048
:101A1000006101100051010E0043010D0036010B61
:101A2000002B010B0020010B00150109000C01091E
:101A30000003010800FB000800F3000800EB0007AA
:101A400000E4000600DE000600D8000600D2000612
:101A500000CC000500C7000500C2000500BD000461
:101A600000B9000400B5000400B1000400AD00049A
:101A700000A9000400A5000300A20003009F0004C9
:101A8000009B0003009800030095000200930003F0
:101A900000900003008D0002008B0003008800020C
:101AA000008600020084000300810002007F000223
:101AB000007D0002007B0002007900020077000137
:101AC0000076000200740002007200010071000242
:101AD000006F0002006D0001006C0002006A00014E
:101AE0000069000200670001006600010065000156
:101AF000006400020062000100610001006000015A
:101B0000005F0002005D0001005C0001005B00015D
:101B1000005A00010059000100580001005700015F
:101B20000056000100550001005400010053000060
:101B3000005300010052000100510001005000015B
:101B4000004F0001004E0000004E0001004D00015A
:101B5000004C0001004B0000004B0001004A000156
:101B60000049000100480000004800010047000152
:101B7000004600000046000100450000004500014D
:101B80000044000100430000004300010042000047
:101B9000004200010041000000410001004000013E
:101BA000003F0000003F0001003E0000003E000139
:101BB000003D0000003D0001003C0000003C000032
:101BC000003C0001003B0000003B0001003A000027
:101BD000003A00010039000000390001003800001F
:101BE0000038000000380001003700000037000115
:101BF000003600000036000000360001003500000D
:101C00000035000000350001003400000034000001
:101C100000340001003300000033000000330001F5
:101C200000320000003200000032000100310000EC
:101C300000310000003100010030000000300000E1
:101C400000300001002F0000002F0000002F0000D6
:101C5000002F0001002E0000002E0000002E0001C9
:101C6000002D0000002D0000002D0000002D0001BF
:101C7000002C0000002C0000002C0000002C0001B3
:101C8000002B0000002B0000002B0000002B0001A7
:101C9000002A0000002A0000002A0000002A00019B
:101CA0000029000000290000002900000029000090
:101CB0000029000100280000002800000028000082
:101CC0000028000000280001002700000027000075
:101CD0000027000000270000002700010026000068
:101CE000002600000026000000260000002600015B
:101CF0000025000000250000002500000025000050
:101D00000025000000250001002400000024000040
:101D10000024000000240000002400010023000033
:101D20000023000000230000002300000023000027
:101D30000023000000230001002200000022000018
:101D4000002200000022000000220000002200010A
:101D500000210000002100000021000000210000FF
:101D600000210000002100000021000100200000EF
:101D700000200000002000000020000000200000E3
:101D8000002000000020000000200001001F0000D3
:101D9000001F0000001F0000001F0000001F0000C7
:101DA000001F0000001F0001001E0000001E0000B8
:101DB000001E0000001E00000000060900FE0701D2
:101DC00092032120FFFF08FF07FF0000000600002C
:101DD00001070706020080808080800080030202E5
:101DE000060105A0A00507070600005050F850F8AE
:101DF00050500507070600002078A07028F0200545
:101E00000707060000C0C8102040981805070706FD
:101E100000006090A040A89068020303060104C07F
:101E20004080030707060100204080808040200397
:101E30000707060100804020202040800505050698
:101E4000000120A870A8200505050600012020F843
:101E500020200203030602FFC040800501010600A6
:101E600003F8020202060200C0C0050505060001D3
:101E700008102040800507070600007088888888C1
:101E8000887003070706010040C040404040E0055D
:101E90000707060000708808708080F805070706AD
:101EA0000000F81020100808F005070706000010D1
:101EB000305090F81010050707060000F880F00871
:101EC000088870050707060000708080F088887019
:101ED000050707060000F808102020202005070746
:101EE0000600007088887088887005070706000063
:101EF00070888878080870020505060200C0C000D6
:101F0000C0C00206060602FFC0C000C04080040731
:101F10000706000010204080402010050303060043
:101F200002F800F804070706010080402010204056
:101F300080050707060000708808102000200507AC
:101F40000706000070880868A8A870050707060043
:101F500000708888F8888888050707060000F088E0
:101F600088F08888F0050707060000708880808068
:101F70008870050707060000F08888888888F005C3
:101F80000707060000F88080F08080F80507070644
:101F90000000F88080F08080800507070600007050
:101FA0008880B8888870050707060000888888F848
:101FB00088888801070706020080808080808080F2
:101FC000050707060000381010101090600507077D
:101FD0000600008890A0C0A09088050707060000B2
:101FE000808080808080F805070706000088D8A8D8
:101FF000888888880507070600008888C8A8988808
:10200000880507070600007088888888887005079B
:1020100007060000F08888F080808005070706002A
:102020000070888888A89068050707060000F08877
:1020300088F0A09088050707060000788080700867
:1020400008F0050707060000F820202020202005C2
:1020500007070600008888888888887005070706B3
:1020600000008888888888502005070706000088B7
:1020700088888888A85005070706000088885020AF
:10208000508888050707060000888888502020208F
:10209000050707060000F80810204080F80307072E
:1020A000060100E08080808080E0050505060001D3
:1020B0008040201008030707060100E020202020B0
:1020C00020E00503030600042050880501010600F6
:1020D00000F8020202060205804005050506000020
:1020E00070087888780507070600008080B0C888E7
:1020F00088F00505050600007080808870050707D8
:10210000060000080868988888780505050600001C
:102110007088F880700507070600003048E04040EE
:1021200040400506060600FF70888878087005079D
:10213000070600008080B0C888888801070706026B
:1021400000800080808080800308080601FF200056
:1021500020202020A040040707060000808090A0D7
:10216000C0A090030707060100C04040404040E087
:10217000050505060000D0A8A8A8A80505050600C5
:1021800000B0C88888880505050600007088888822
:10219000700506060600FFF08888F08080050606B8
:1021A0000600FF788888780808050505060000B055
:1021B000C880808005050506000070807008F00466
:1021C00007070600004040E0404040300505050696
:1021D00000008888889868050505060000888888BA
:1021E00050200505050600008888A8A850050505AB
:1021F00006000088502050880506060600FF8888E3
:1022000088780870050505060000F8102040F803DE
:1022100007070601002040408040402001070706D4
:102220000200808080808080800307070601008094
:1022300040402040408005020206000268900000F5
:10224000000600000000000600000000000600007C
:10225000000000060000000000060000000000066C
:102260000000000000060000000000060000000062
:10227000000600000000000600000000000600004C
:10228000000000060000000000060000000000063C
:102290000000000000060000000000060000000032
:1022A000000600000000000600000000000600001C
:1022B000000000060000000000060000000000060C
:1022C0000000000000060000000000060000000002
:1022D00000060000000000060000000000060000EC
:1022E00000000006000000000006000000000006DC
:1022F00000000000000600000000000600000000D2
:1023000000060000000000060000010707060200AA
:10231000800080808080800507070600002070A86C
:10232000A0A87020050707060000304040E040509C
:10233000A805050506000088705070880507070687
:102340000000885020F820F82001070706020080CE
:1023500080800080808005080806000030482050FA
:1023600050209060030101060107A0050707060041
:1023700000F888B8B8B888F80507070600017008A3
:1023800078887800F80505050600012850A0502837
:10239000050303060001F8080802020206020640CF
:1023A00080050707060000F888A88898A8F80501A6
:1023B00001060006F804040406000360909060051E
:1023C00007070600002020F8202000F80405050675
:1023D000000360902040F0030505060003E020E0C4
:1023E00020E002020206020640800508080600FFFF
:1023F0008888888898E88080050707060000789814
:102400009878181818020202060202C0C0020202DE
:102410000602FF408003050506000340C04040E07F
:10242000050707060001708888887000F805050513
:10243000060001A0502850A005070706000088905C
:10244000A858B808080507070600008890B84898FB
:102450002038050808060000C040C048D8380808E1
:102460000507070600002000204080887005080846
:102470000600004020007088F888880508080600DB
:10248000001020007088F8888805080806000020E1
:1024900050007088F88888050808060000689000D9
:1024A0007088F88888050808060000500070888841
:1024B000F888880508080600002050207088F888F1
:1024C000880507070600003860A0B8E0A0B8050836
:1024D000080600FF70888080887020600508080664
:1024E0000000402000F880F080F805080806000091
:1024F000081000F880F080F8050808060000205059
:1025000000F880F080F80507070600005000F8800A
:10251000F080F8030808060100804000E0404040D9
:10252000E0030808060100204000E0404040E003CE
:10253000080806010040A000E0404040E003070713
:10254000060100A000E0404040E00507070600004B
:10255000704848E848487005080806000068900080
:1025600088C8A89888050808060000402070888858
:102570008888700508080600001020708888888800
:1025800070050808060000205000708888887005D3
:1025900008080600006890007088888870050808A0
:1025A00006000050007088888888700505050600C0
:1025B0000188502050880508080600FF1070A8A860
:1025C000A8A8704005080806000040208888888870
:1025D00088700508080600001020888888888870A0
:1025E00005080806000020500088888888700508C3
:1025F000080600005000888888888870050808064A
:10260000000010208850202020200509090600FF26
:10261000C040704848704040E00408080601FF6070
:102620009090A09090E080050808060000402000EF
:1026300070087888780508080600001020007008E7
:10264000788878050808060000205000700878880F
:1026500078050808060000689000700878887805FA
:1026600007070600005000700878887805080806FB
:1026700000002050207008788878050606060000C3
:10268000D02878A0A8500506060600FF7080887044
:1026900020600508080600004020007088F880705F
:1026A0000508080600001020007088F880700508F2
:1026B000080600002050007088F8807005070706A3
:1026C000000050007088F880700308080601008040
:1026D000400040C04040E0030808060100204000E0
:1026E00040C04040E003080806010040A00040C090
:1026F0004040E0030707060100A00040C04040E062
:10270000050707060000A040A0107888700508089B
:10271000060000689000B0C8888888050808060090
:1027200000402000708888887005080806000010A6
:102730002000708888887005080806000020500076
:102740007088888870050808060000689000708806
:102750008888700507070600005000708888887018
:102760000505050600012000F80020050707060002
:10277000FF1070A8A8A870400508080600004020B7
:1027800000888888986805080806000010200088DE
:102790008888986805080806000020500088888806
:1027A0009868050707060000500088888898680523
:1027B00009090600FF102000888888F808700407BF
:1027C000070601FFC04060506040E00508080600B1
:1027D000FF500088888878087000060900FE000015
:1027E00000000001090008FE0000050808060000BE
:1027F00040F0C88888987810050808060000C0F8DE
:102800008888888888F80505050600012030F8309A
:10281000200508080600002070F820202020E00590
:1028200009090600FF2070A8A8B88888702005094B
:10283000090600FFE080C0B0A82830282805090953
:102840000600FFF8A88888888888A8F8050A0A067C
:1028500000FE205050505088A8A88870030303063B
:10286000000340A0401FFFFFFFFFFFFF60000000CC
:102870000001FF400000000000FF80000000000099
:102880007F83CF00000C303F87FF80000C301F8615
:102890007980000C000F8C30C7838C30E78C30CFF0
:1028A000C7CC31F38C30DCECEC33B98C30D86C6CA9
:1028B00033198C30D06C0C33198C30D86C0C331924
:1028C0008C30DC6C0E3B198C30CF7C079F198C3020
:1028D000C77C038F19400000000000026000000068
:1028E0000000061FFFFFFFFFFFF85A0059005800C5
:1028F0000920000000000000000000000000007F30
:10290000FFE0000000000000000000000000700078
:10291000E000000000000000000000000061F8601E
:1029200000000000000000000000000041F820004E
:10293000000000000000000000000040F020000047
:1029400000000000000000000000406020000000C7
:102950000000000000000000005801A07F8000007F
:1029600000000000000000005C63A0FFC000000049
:10297000000000000000005EF7A0FFC000000000A3
:102980000000000000005EF7A0FFC0000000000093
:1029900000000000005C63A07F80000000000000D9
:1029A000000000005801A07F80000000000000002F
:1029B000000000406020FFC0000000000000000098
:1029C000000040F020FFC0000000000000000000F8
:1029D0000041F820FFC000000000000000000000DF
:1029E00061F8603F0000000000000000000000707F
:1029F00000E01E00000000000000000000007FFF5B
:102A0000E00C0000000000000000000000000000DA
:102A10000000000000000000000000007FFFE00058
:102A200000000000000000000000007000E0000056
:102A300000000000000000000000630C60000000C7
:102A4000000000000000000000470E200000000011
:102A500000000000000000004F0F200000000000F8
:102A6000000000000000005F0FA000000000000058
:102A70000000000000005E07A07F80000000000052
:102A80000000000000406020FFC0000000000000C7
:102A90000000000040F020FFC00000000000000027
:102AA00000000040F020FFC0000000000000000017
:102AB00000004060207F8000000000000000000057
:102AC000005E07A07F800000000000000000000002
:102AD0005F0FA0FFC0000000000000000000004FDA
:102AE0000F20FFC000000000000000000000470EA3
:102AF00020FFC000000000000000000000630C6028
:102B00003F00000000000000000000007000E01E18
:102B100000000000000000000000007FFFE00C004B
:102B200000000000000000000000000000436F6E85
:102B300074726F6C00507265706172617200416AEC
:102B4000757374617200496E666F726D6163696F4F
:102B50006E00466C756A6F00466C756A6F0056654C
:102B60006E74696C61646F720056656E74696C6135
:102B7000646F7200426F7175696C6C6100426F71B5
:102B800075696C6C610056656C6F636964616400A3
:102B900056656C6F6369646164004D656E75207085
:102BA00072696E636970616C004D34323800456E35
:102BB00066726961720050726563616C656E746102
:102BC00072204142530050726563616C656E74619E
:102BD0007220504C41004D38340041706167617281
:102BE000206D6F746F726573004D6F76657220652E
:102BF0006A6573004732380A473239004732390074
:102C00004E6976656C617220706C617461666F727A
:102C10006D6100416A7573746172206465736661E9
:102C200073657300473238004C6C657661722061C1
:102C30006C206F726967656E004D656E75207072ED
:102C4000696E636970616C0070012C01900127014D
:102C5000B0012201C0011D01F00118011002130191
:102C600030020E016002090190020401C002FF005F
:102C70000003FA004003F5008003F000D003EB00EE
:102C80002004E6007004E100E004DC004005D70009
:102C9000C005D2004006CD00D006C8008007C300A2
:102CA0003008BE00F008B900C009B400B00AAF0097
:102CB000B00BAA00D00CA500000EA000500F9B0086
:102CC000C01096005012910000148C00C0158700AF
:102CD000B0178200B0197D00D01B7800001E730071
:102CE00040206E0090226900F024640040275F00BD
:102CF00090295A00E02B5500102E500020304B0038
:102D000010324600E033410090353C001037370068
:102D100070383200A0392D00B03A2800A03B2300C3
:102D2000603C1E00103D1900903D1400103E0F0045
:102D3000703E0A00C03E0500003F0000526573650A
:102D40006E643A20006F6B004E414E494E49545913
:102D5000494E46CDCCCC3D0AD7233C17B7D1387766
:102D6000CC2B329595E6241FB14F0A00002041007C
:102D700000C84200401C4620BCBE4CCA1B0E5AAEC6
:102D8000C59D7400A2B111241FBECFEFD1E2DEBFFA
:102D9000CDBF00E00CBF14E0A0E0B2E0E4EDFCE742
:102DA00001E00BBF02C007900D92AC31B107D9F71B
:102DB0002FE0ACE1B4E001C01D92AD35B207E1F700
:102DC00016E1C3ECD6E100E006C021970109802F8F
:102DD000FE010E94ABB2C23CD10780E00807A9F710
:102DE0000E94C1AA0C9468BE0C9400002F923F92DE
:102DF0004F925F926F927F928F929F92AF92BF920B
:102E0000CF92DF92EF92FF920F931F93CF93DF93B6
:102E1000CDB7DEB7C45AD1090FB6F894DEBF0FBEE6
:102E2000CDBF0091250620E6029F80011124055D9B
:102E30001B4F1093AC050093AB058091D20780FF28
:102E400018C0EBE6FEE084917F013FEFE31AF30A3E
:102E5000882321F00E942C78F701F5CFD8018D91BD
:102E60008D01882319F00E942C78F8CF8AE00E9407
:102E70002C782091AB053091AC05F90180812F5F52
:102E80003F4F8032D1F3F093AC05E093AB058E3425
:102E900069F01091AB050091AC056AE270E0812FFA
:102EA000902F0E94CEB50097D1F420C0818190ED83
:102EB000980F9A3010F08D3261F73296DF0131961B
:102EC0002C9120532A30D0F3CD01FC0101962081B2
:102ED0002032D9F3F093AC05E093AB05DACFFC01D7
:102EE00031968291803231F08A3221F0A12FB02FB9
:102EF0009D9102C01082F5CFFD0180811196803234
:102F0000D9F380538A3020F0EBE6FEE00C94633175
:102F1000E12CF12C2AE02E9DB0012F9D700D112483
:102F20007B01B0E3EB1AF1088191E80EF11C87FDFB
:102F3000FA94808180538A3070F38F013196D801E2
:102F40008C918032D1F310932A040093290421E05C
:102F500030E03093BC052093BB059D3411F40C94F4
:102F60000C22943511F40C940430973411F00C9425
:102F70001C30BCE1EB16F10409F494C790F4F4E0C2
:102F8000EF16F10438F480911C0222E0E216F104FD
:102F900050F13FC134E0E316F10409F445C70C9445
:102FA0005A314AE5E416F10411F40C944A2168F40C
:102FB0008DE1E816F10409F4C8C79EE1E916F104B1
:102FC00011F40C9443200C945A31ABE5EA16F10449
:102FD00011F40C944E21BCE5EB16F10411F40C94A1
:102FE00053210C945A31882311F40C945A310E94C5
:102FF0008B3E85EC95E00E9424A80E942178809168
:10300000D20783FD93C0C090D105D090D205E09047
:10301000D305F090D405209100063091010640912F
:10302000020650910306C701B6010E944EBA8823DA
:1030300009F47CC08091CD07811134C020914602F3
:1030400030914702409148025091490260910B0E25
:1030500070910C0E80910D0E90910E0E0E944EBA42
:1030600087FF20C0C0920006D0920106E0920206BF
:10307000F0920306EBE6FEE084918F010F5F1F4F95
:10308000882321F00E942C78F801F6CFEBE3F3E0DF
:1030900084918F010F5F1F4F882321F00E942C78AD
:1030A000F801F6CFC090D105D090D205E090D305BD
:1030B000F090D4052091000630910106409102065F
:1030C00050910306C701B6010E94BBB20E9428B40A
:1030D00097FF07C090958095709561957F4F8F4FB2
:1030E0009F4F693C71058105910504F1C09200066E
:1030F000D0920106E0920206F0920306EBE6FEE0B3
:1031000084918F010F5F1F4F882321F00E942C783C
:10311000F801F6CFECE1F3E084918F010F5F1F4FD0
:10312000882321F00E942C78F801F6CF2091C50564
:103130003091C6054091C7055091C8056091F405CE
:103140007091F5058091F6059091F7050E944EBAB1
:1031500081111DC02091C9053091CA054091CB0550
:103160005091CC056091F8057091F9058091FA05B0
:103170009091FB050E944EBA811109C06091000236
:103180007091010280910202909103023CC08091F3
:10319000CC0760916002709161028823F1F0072EE4
:1031A000000C880B990B0E9455BA209100023091B7
:1031B000010240910202509103020E94B4BA2AE037
:1031C00037ED43E25CE30E94B4BA2FEF3FEF4FEFDD
:1031D0005FEF0E94584B0C945A31072E000C880B5D
:1031E000990B0E9455BA2091000230910102409142
:1031F0000202509103020E94B4BA2AE037ED43E282
:103200005CE30E94B4BA0E94E3410E94D9410C944D
:103210005A31882311F40C945A3111E0E2E0EE1691
:10322000F10409F010E00E948B3E82E50E94C07616
:10323000882309F45CC10E9453776B017C014090A4
:10324000F4055090F5056090F6057090F705209113
:10325000F8053091F9054091FA055091FB05649607
:103260002CAF3DAF4EAF5FAF64978091C505909195
:10327000C605A091C705B091C80568968CAF9DAFF3
:10328000AEAFBFAF68972091C9053091CA05409194
:10329000CB055091CC056C962CAF3DAF4EAF5FAFD8
:1032A0006C9720E030E0A901C701B6010E944EBA38
:1032B000882309F49FC5A301920168966CAD7DAD8A
:1032C0008EAD9FAD68970E944EBA811111C0649671
:1032D0002CAD3DAD4EAD5FAD64976C966CAD7DADE4
:1032E0008EAD9FAD6C970E944EBA882309F482C5BB
:1032F00020E030E0A901C701B6010E944EBA881F44
:103300008827881F18130BC080E090E0A0E8BFE377
:10331000E0968CAF9DAFAEAFBFAFE0970AC020E0A4
:1033200030E040E85FEBE0962CAF3DAF4EAF5FAFD3
:10333000E097A301920168966CAD7DAD8EAD9FAD17
:1033400068970E94BBB2A0966CAF7DAF8EAF9FAF67
:10335000A09764962CAD3DAD4EAD5FAD64976C9675
:103360006CAD7DAD8EAD9FAD6C970E94BBB2A49647
:103370006CAF7DAF8EAF9FAFA497A0962CAD3DAD47
:103380004EAD5FADA097CA01B9010E94B4BA4B011E
:103390005C01A4962CAD3DAD4EAD5FADA497CA01C6
:1033A000B9010E94B4BA9B01AC01C501B4010E94ED
:1033B000BCB20E946AB5A8966CAF7DAF8EAF9FAFCE
:1033C000A89720E030E040E05FE30E94B4BA4B01F0
:1033D0005C01A7019601C701B6010E94B4BA6B0156
:1033E0007C01A5019401C501B4010E94B4BA9B01FE
:1033F000AC01C701B6010E94BBB20E946AB59B0135
:10340000AC01E0966CAD7DAD8EAD9FADE0970E94B6
:10341000B4BA4B015C0168962CAD3DAD4EAD5FADCD
:103420006897C301B2010E94BCB220E030E040E0E6
:103430005FE30E94B4BA6B017C01A4966CAD7DADD4
:103440008EAD9FADA4979058A8962CAD3DAD4EADD6
:103450005FADA8970E94B6B39B01AC01C501B40152
:103460000E94B4BA9B01AC01C701B6010E94BCB274
:10347000A30192010E94BBB26B017C016C962CAD42
:103480003DAD4EAD5FAD6C9764966CAD7DAD8EADD0
:103490009FAD64970E94BCB220E030E040E05FE363
:1034A0000E94B4BA2B013C01A8962CAD3DAD4EADA7
:1034B0005FADA897A0966CAD7DAD8EAD9FADA0978A
:1034C0000E94B6B39B01AC01C501B4010E94B4BA1D
:1034D0009B01AC01C301B2010E94BCB264962CAD49
:1034E0003DAD4EAD5FAD64970E94BBB214C089E4A0
:1034F0000E94C076882329F00E9453776B017C01DB
:1035000003C0C12CD12C76018AE40E94C0768823A6
:10351000F9F00E94537764966CAF7DAF8EAF9FAF8A
:10352000649720E030E0A901C701B6010E944EBABD
:1035300081111EC020E030E0A90164966CAD7DAD24
:103540008EAD9FAD64970E944EBA811111C052C4D6
:1035500020E030E0A901C701B6010E944EBA8823DD
:1035600009F448C464961CAE1DAE1EAE1FAE64972F
:10357000A7019601C701B6010E94B4BA4B015C01D4
:1035800064962CAD3DAD4EAD5FAD6497CA01B901F7
:103590000E94B4BA9B01AC01C501B4010E94BCB247
:1035A0000E946AB5C058DF4F688379838A839B8302
:1035B000C058D0408091F4059091F505A091F60592
:1035C000B091F705A8968CAF9DAFAEAFBFAFA897EF
:1035D000A7019601BC01CD010E94BCB2E0966CAF80
:1035E0007DAF8EAF9FAFE0972091F8053091F90540
:1035F0004091FA055091FB05A0962CAF3DAF4EAF20
:103600005FAFA09764962CAD3DAD4EAD5FAD6497B6
:10361000A0966CAD7DAD8EAD9FADA0970E94BCB263
:10362000E8966CAF7DAF8EAF9FAFE8978091FC05B9
:103630009091FD05A091FE05B091FF05AC968CAF71
:103640009DAFAEAFBFAFAC979C01AD016091CD0512
:103650007091CE058091CF059091D0050E94BBB2AC
:10366000A4966CAF7DAF8EAF9FAFA4972091D1058C
:103670003091D2054091D3055091D405CC57DF4FFE
:10368000288339834A835B83C458D04080910006E5
:1036900090910106A0910206B0910306E4968CAFCA
:1036A0009DAFAEAFBFAFE497A701960150586896A3
:1036B0002CAF3DAF4EAF5FAF689764968CAD9DADBC
:1036C000AEADBFAD6497B0586C968CAF9DAFAEAF4A
:1036D000BFAF6C972091C5053091C6054091C705D5
:1036E0005091C805EC962CAF3DAF4EAF5FAFEC9755
:1036F000E0962CAD3DAD4EAD5FADE097EC966CAD78
:103700007DAD8EAD9FADEC970E94BBB26B017C018D
:103710008091C9059091CA05A091CB05B091CC05C7
:10372000C458DF4F88839983AA83BB83CC57D0408A
:10373000E8962CAD3DAD4EAD5FADE897BC01CD0137
:103740000E94BBB24B015C01A701960168966CAD6B
:103750007DAD8EAD9FAD68970E94B4BA2B013C0140
:10376000A50194016C966CAD7DAD8EAD9FAD6C974F
:103770000E94B4BA9B01AC01C301B2010E94BCB269
:103780002B013C01A501940168966CAD7DAD8EAD19
:103790009FAD68970E94B4BA4B015C01A7019601E6
:1037A0006C966CAD7DAD8EAD9FAD6C970E94B4BA3A
:1037B0009B01AC01C501B4010E94BBB2A3019201FF
:1037C0000E943BB36B017C0120E030E0A9010E9424
:1037D0004EBA87FF0AC02BED3FE049EC50E4C70129
:1037E000B6010E94BCB26B017C01112351F02BED9C
:1037F0003FE049EC50E4C701B6010E94BBB26B0147
:103800007C0120E030E0A901C701B6010E944EBA58
:1038100081112CC0EC962CAD3DAD4EAD5FADEC975B
:10382000A8966CAD7DAD8EAD9FADA8970E944EBAA7
:1038300081111CC0C458DF4F288139814A815B81C6
:10384000CC57D040A0966CAD7DAD8EAD9FADA0970E
:103850000E944EBA81110AC02BED3FE049EC50E4C2
:10386000C701B6010E94BCB26B017C01C058DF4F9A
:10387000288139814A815B81C058D040C701B60197
:103880000E94B4BA9B01AC010E94B4BA4B015C0126
:10389000A4962CAD3DAD4EAD5FADA497CA01B90164
:1038A0000E94B4BA9B01AC01C501B4010E94BCB234
:1038B0000E946AB54B015C012FE632E143E85AE30E
:1038C0000E944EBA87FD92C2C501B4010E945EB447
:1038D0000E942FB46E967FAF6EAF6E97DB01AB2B5D
:1038E00031F4E1E0F0E06E96FFAFEEAF6E976E96CA
:1038F0002EAD3FAD6E97B90180E090E00E9453BAC3
:103900004B015C019B01AC01C701B6010E94B6B33B
:10391000A8966CAF7DAF8EAF9FAFA897A50194011D
:10392000A4966CAD7DAD8EAD9FADA4970E94B6B34D
:10393000C058DF4F688379838A839B83C058D04007
:10394000E4962CAD3DAD4EAD5FADE497CC57DF4F67
:10395000688179818A819B81C458D0400E94BBB222
:10396000A50194010E94B6B3CC57DF4F68837983D9
:103970008A839B83C458D040A8962CAD3DAD4EADF4
:103980005FADA897CA01B9010E94B4BA20E030E047
:1039900040E05FE30E94B4BA9B01AC0160E070E0DC
:1039A00080E89FE30E94BBB2A4966CAF7DAF8EAF60
:1039B0009FAFA497AC968CAD9DADAEADBFADAC97AF
:1039C00089879A87AB87BC87E4962CAD3DAD4EAD19
:1039D0005FADE4972D873E874F87588B60916002DB
:1039E00070916102072E000C880B990B0E9455BA4A
:1039F0002091000230910102409102025091030295
:103A00000E94B4BA2AE037ED43E25CE30E94B4BA04
:103A1000AC966CAF7DAF8EAF9FAFAC970E94B94FA5
:103A20009B01AC0128533F4F4F4F5F4FE4962CAFA3
:103A30003DAF4EAF5FAFE49765964FAC6597669626
:103A40005FAC669767966FAC679768967FAC689730
:103A500022242394312CD12C44E450E04C0F5D1FE0
:103A6000485F5F4FEA965FAF4EAFEA9784E490E01D
:103A70008C0F9D1F0496EE969FAF8EAFEE976E96BD
:103A80008EAD9FAD6E972816390609F45BC10E9472
:103A900005580E94B94FDC01CB01E4962CAD3DAD39
:103AA0004EAD5FADE497821B930BA40BB50BB7FD36
:103AB00010C00E94B94F9B01AC0128533F4F4F4F9C
:103AC0005F4FE4962CAF3DAF4EAF5FAFE4970E94DF
:103AD0001049D39438E13D150CF44BC0A4962CAD9D
:103AE0003DAD4EAD5FADA4976C966CAD7DAD8EAD2A
:103AF0009FAD6C970E94B4BA4B015C01A8962CADA7
:103B00003DAD4EAD5FADA897B201C3010E94B4BAFE
:103B1000A50194010E94BCB27B018C01A4962CAD3E
:103B20003DAD4EAD5FADA497B201C3010E94B4BAE2
:103B30004B015C01A8962CAD3DAD4EAD5FADA89795
:103B40006C966CAD7DAD8EAD9FAD6C970E94B4BA96
:103B50009B01AC01C501B4010E94BBB22B013C0129
:103B6000C701D8016C968CAF9DAFAEAFBFAF6C975D
:103B70005AC0B10180E090E00E9453BAA8962CADE3
:103B80003DAD4EAD5FADA8970E94B4BA4B015C014C
:103B90000E94B1B36B017C01C501B4010E945CB508
:103BA0004B015C01A701960168966CAD7DAD8EADB1
:103BB0009FAD68970E94B4BA2B013C01A501940106
:103BC00064966CAD7DAD8EAD9FAD64970E94B4BA26
:103BD0009B01AC01C301B2010E94BCB22B013C01AC
:103BE000A501940168966CAD7DAD8EAD9FAD6897D3
:103BF0000E94B4BA4B015C01A701960164966CADBA
:103C00007DAD8EAD9FAD64970E94B4BA9B01AC01AF
:103C1000C501B4010E94BBB26C966CAF7DAF8EAF94
:103C20009FAF6C97D12C9201A301E0966CAD7DAD56
:103C30008EAD9FADE0970E94BCB269837A838B837F
:103C40009C836C962CAD3DAD4EAD5FAD6C97E89608
:103C50006CAD7DAD8EAD9FADE8970E94BCB26D831B
:103C60007E838F839887C058DF4F288139814A81AE
:103C70005B81C058D04069857A858B859C850E9480
:103C8000BCB269877A878B879C87CC57DF4F2881A6
:103C900039814A815B81C458D0406D857E858F858E
:103CA00098890E94BCB26D877E878F87988BCE01E2
:103CB00001960E9424A8C090230489819A81AB8137
:103CC000BC8128968CAF9DAFAEAFBFAF28978D81DA
:103CD0009E81AF81B8852C968CAF9DAFAEAFBFAF44
:103CE0002C9789859A85AB85BC8560968CAF9DAFF6
:103CF000AEAFBFAF6097EA964EAD5FADEA97EE9676
:103D00006EAD7FADEE97CE018C5B9F4F0E94FA7433
:103D1000AC96ECACFDAC0EAD1FADAC979E01235F35
:103D20003F4FEA964EAD5FADEA97EE966EAD7FAD32
:103D3000EE97CE018C5B9F4F0E94F7664FEF241ADF
:103D4000340A9DCEC09023048091C5059091C6058C
:103D5000A091C705B091C80528968CAF9DAFAEAFB6
:103D6000BFAF28978091C9059091CA05A091CB0556
:103D7000B091CC052C968CAF9DAFAEAFBFAF2C975A
:103D80008091CD059091CE05A091CF05B091D00541
:103D900060968CAF9DAFAEAFBFAF609714E4812E3D
:103DA000912C8C0E9D1E98E0890E911C04E4A02E8F
:103DB000B12CAC0EBD1EA4E0AA0EB11CA401B5012D
:103DC000CE018C5B9F4F0E94FA74AC96ECACFDACBC
:103DD0000EAD1FADAC9721ED35E0A401B501CE01CC
:103DE0008C5B9F4F0E94F7660E94D9410E94217808
:103DF0000C945A31E7E5FDE084918F010F5F1F4F6E
:103E0000882321F00E942C78F801F6CFE6E5F3E054
:103E100084918F010F5F1F4F882311F40C945A3146
:103E20000E942C78F801F4CF80E50E94C0768823A8
:103E300029F00E9448776B017C0103C0C12CD12C72
:103E4000760183E50E94C076882321F00E947C776A
:103E50006B017C010E94D9870E9421788091BD0569
:103E60009091BE05A091BF05B091C005C80ED91EA6
:103E7000EA1EFB1E80917202811105C060E08CE693
:103E800093E00E9434950E94B94FDC01CB018C195C
:103E90009D09AE09BF09B7FD02C00C945A310E94BA
:103EA0001049F1CF0E94D9870E949D3F0E94B941DD
:103EB00011E01093130288E50E94C076F82E89E580
:103EC0000E94C076082F8AE50E94C076F11005C0D6
:103ED000011105C0982F912705C0011102C090E083
:103EE00001C0982F9093040220E1E4EFF5E0A5ECE7
:103EF000B5E001900D922A95E1F7911102C0882357
:103F000021F082E090E00E948B47809104028111B1
:103F100002C0FF2021F080E090E00E948B4780915A
:103F20000402811102C0002321F081E090E00E9490
:103F30008B470E9487778091D505809313020E945A
:103F40009F410E94233C0C945A31F090D80D81E09F
:103F5000F8260091D90D08271091DA0D1827F110D5
:103F600002C0002319F0EBE6FEE004C01111FBCF04
:103F70000C947E3184916F01BFEFCB1ADB0A88234A
:103F800021F00E942C78F601F5CFE7E9F3E0849167
:103F90006F012FEFC21AD20A882321F00E942C78D9
:103FA000F601F5CFFF2069F0E5E9F3E084916F01B8
:103FB0003FEFC31AD30A882321F00E942C78F60120
:103FC000F5CF002369F0E3E9F3E084916F014FEF4F
:103FD000C41AD40A882321F00E942C78F601F5CF68
:103FE000111103C0E9E8F3E00DC0E1E9F3E08491C9
:103FF0006F015FEFC51AD50A8823A1F30E942C78C0
:10400000F601F5CF84916F019FEFC91AD90A882371
:1040100021F00E942C78F601F5CF19821A821B82BA
:104020001C82FE0135968FE3DF011D928A95E9F728
:1040300063E873E0CE0101960E94D2B9FF2031F00F
:1040400061E873E0CE0101960E94D2B9002331F0FD
:104050006FE773E0CE0101960E94D2B9112331F0CF
:104060006DE773E0CE0101960E94D2B966E773E076
:10407000CE0101960E94D2B960E0CE0101960E9465
:1040800049950C945A3188E50E94C076882319F02E
:104090000E9453770EC020E030E040E251E460918E
:1040A000F4057091F5058091F6059091F7050E9451
:1040B000BCB228966CAF7DAF8EAF9FAF289789E5D5
:1040C0000E94C076882319F00E9453770EC020E02A
:1040D00030E040E251E46091F8057091F90580917B
:1040E000FA059091FB050E94BCB26B017C016983CB
:1040F0007A838B839C838091F0059091F105A09148
:10410000F205B091F30564968CAF9DAFAEAFBFAF33
:1041100064978090C4079090C507A090C607B090A0
:10412000C7072091E8053091E9054091EA055091D3
:10413000EB0528966CAD7DAD8EAD9FAD28970E94A6
:10414000BBB22091BC073091BD074091BE07509192
:10415000BF070E94BBB22091EC053091ED05409164
:10416000EE055091EF0568962CAF3DAF4EAF5FAFB7
:1041700068972091C0073091C1074091C2075091C4
:10418000C3076C962CAF3DAF4EAF5FAF6C9720E08E
:1041900030E040E251E40E94BBB22B013C0127E138
:1041A00037EB41ED58EB0E941CB587FF02C00C9421
:1041B0005A3127E030E048E453E4C301B2010E94E1
:1041C0004EBA181614F40C945A3168962CAD3DADC5
:1041D0004EAD5FAD6897C701B6010E94BBB26C9649
:1041E0002CAD3DAD4EAD5FAD6C970E94BBB220E0F3
:1041F00030E040E251E40E94BBB26B017C0127E158
:1042000037EB41ED58EB0E941CB587FF02C00C94C0
:104210005A3127E030E048E453E4C701B6010E9478
:104220004EBA181614F40C945A3120E030E0A9016B
:1042300064966CAD7DAD8EAD9FAD64970E94BCB2AF
:10424000A50194010E94BCB264962CAD3DAD4EAD6B
:104250005FAD64970E94BBB2A50194010E94BBB2FE
:104260006B017C0127E137EB41ED58EB0E941CB557
:1042700087FF02C00C945A3123E030E048EC53E44D
:10428000C701B6010E944EBA181614F40C945A31A4
:104290000C947635109228040C945A3181E0809366
:1042A00028040C945B3185E40E94C076B82E8111FD
:1042B00002C00E94D9878BEB882E82E0982E94EF63
:1042C000C92E95E0D92E2CEBE22E27E0F22E00E04D
:1042D00010E0A12CD4018D914D010E94C07688235D
:1042E00009F44EC0F6012081318142815381CF55BE
:1042F000DF4F2883C15AD040CE55DF4F3883C25A92
:10430000D040CD55DF4F4883C35AD040CC55DF4F06
:104310005883C45AD0400E945377D6016D937D9341
:104320008D939C931397CF55DF4F2881C15AD0406E
:10433000CE55DF4F3881C25AD040CD55DF4F48812E
:10434000C35AD040CC55DF4F5881C45AD0400330B7
:104350001105B1F00E94BBB29B01AC01F701608175
:104360007181828193810E94BCB2D7016D937D934C
:104370008D939C931397C8010E94D477AA24A39489
:104380000F5F1F4FB4E0CB0ED11CE4E0EE0EF11C2A
:104390000430110509F09ECFAA2019F00E948777FA
:1043A00037C0BB20A9F1C0900006D0900106E09074
:1043B0000206F090030620915C0830915D08409160
:1043C0005E0850915F08C701B6010E94B4BA0E940E
:1043D00029B560936F0E7093700E8093710E909359
:1043E000720EC701B6010E9428B42FB7F8946093EB
:1043F00042067093430680934406909345062FBF70
:1044000010925F0E1092600E1092610E1092620E6A
:104410000E94233C0C945A31F8E7EF16F10411F492
:104420000C94DE2908F0A9C03CE5E316F10409F478
:10443000E9C608F061C05BE4E516F10409F43BC38A
:10444000F0F491E1E916F10409F4E2C138F4B2E0C4
:10445000EB16F10408F469C10C945A31EFE1EE1641
:10446000F10409F4E7C1FAE2EF16F10409F4DDC240
:1044700022E1E216F10411F00C945A3194C632E5AF
:10448000E316F10409F486C630F55DE4E516F1049F
:1044900009F42FC308F413C391E5E916F10411F0F0
:1044A0000C945A310E9411560E94D9870E94934859
:1044B0001092A2071092A10768EE73E080E090E0EE
:1044C0000E947F4F60E084E695E00E9434950E9450
:1044D0005A950C945A31A4E5EA16F10409F463C61E
:1044E00008F45CC6E5E5EE16F10411F00C945A31BF
:1044F0000E94D93D0C945A31FEE6EF16F10409F4FE
:1045000040C3D0F43AE6E316F10409F40EC660F4B1
:1045100058E6E516F10409F4F0C289E6E816F1045C
:1045200009F435C40C945A319CE6E916F10409F4F7
:10453000E1C308F41DC648C4B2E7EB16F10409F460
:1045400065C640F4F0E7EF16F10409F4D7C308F4A8
:1045500034C3D8C335E7E316F10409F467C647E767
:10456000E416F10409F468C653E7E516F10411F006
:104570000C945A31E7E7F5E04DC68DE2E81681E08C
:10458000F80609F441C708F058C0ACECEA16F1048B
:1045900009F428C730F5E1E9EE16F10409F419C76A
:1045A00060F429E7E216F10409F40EC73CE8E316CB
:1045B000F10409F4D3C30C945A3149ECE416F10424
:1045C00009F40AC75BECE516F10409F408C788ECA6
:1045D000E816F10411F00C945A310E94D63B0C9469
:1045E0005A319CEDE916F10409F405C788F4BEECD4
:1045F000EB16F10409F4FCC608F4F7C6F3EDEF1668
:10460000F10411F00C945A310E94263A0C945A315C
:1046100022EEE216F10409F4F1C63CE2E31631E0C1
:10462000F30609F4EEC64DEDE416F10411F00C9416
:104630005A310E94FF390C945A3154EAE51651E080
:10464000F50611F40C94282E60F590E9E91691E036
:10465000F90611F40C941D2E78F4BEE2EB16B1E0CD
:10466000FB0609F470C7EFE2EE16E1E0FE0611F476
:104670000C94142B0C945A31F2E9EF16F1E0FF067A
:1046800011F40C94242E10F40C94202E3AE9E31625
:1046900031E0F30611F00C945A310E944F390C941A
:1046A0005A3146EFE41641E0F40611F40C94AB2FB6
:1046B00028F584EFE81681E0F80611F40C948C2FAD
:1046C00010F00C94A52FACEAEA16A1E0FA0611F05E
:1046D0000C945A3184EF282E85E0382EA8EEB5E0F0
:1046E0006296BFAFAEAF6297E8EDFDE06696FFAFB2
:1046F000EEAF669700E010E00C94822EB3E5EB1667
:10470000B3E0FB0611F40C94BA2FE7EEEE16E3E0EB
:10471000FE0611F40C94F32FF7EFEF16F1E0FF060D
:1047200011F00C945A310C94AE2F80E50E94C076A3
:10473000882361F00E9448776B017C01BB24B3940D
:10474000672B682B692B31F4B12C04C0B12CC12C20
:10475000D12C760183E50E94C076882399F00E94CF
:104760007C776B017C01B1100FC0672B682B692B24
:1047700059F4D8018C91882339F061E0C8010E9476
:10478000499507C0BB20A9F360E08CE594E00E9446
:10479000349581E080936A0D83E090E09093BC05AE
:1047A0008093BB050E94D9870E942178C114D1044F
:1047B000E104F104E9F08091BD059091BE05A0915E
:1047C000BF05B091C005C80ED91EEA1EFB1E0E948F
:1047D000B94FDC01CB018C199D09AE09BF09B7FFA8
:1047E00013C080916A0D882379F00E941049EFCFA1
:1047F00080916A0D882319F00E941049F9CF60E07A
:104800008AE494E00E94349510926A0D0C945A3117
:1048100060E08EE694E00E9434955F988A989FB796
:10482000F894809108018E7F809308019FBF1298B1
:104830000C945A318091930E9091940E019719F433
:104840000E94B94F08C060919D0E70919E0E80919C
:104850009F0E9091A00E0091990E10919A0E2091AA
:104860009B0E30919C0E601B710B820B930B28EEFC
:1048700033E040E050E00E942CBE8091950E909174
:10488000960EA091970EB091980EBC01CD01620FCB
:10489000731F841F951F0CE3C02ED12CE12CF12C2B
:1048A000A70196010E942CBE762E672ECA01B9017F
:1048B000A70196010E942CBE6B017C01CA01B901BF
:1048C00028E130E040E050E00E942CBE4B015C014A
:1048D000C9016DE671E00E9464B28E010F5F1F4F47
:1048E0006115710599F06F927F92DF92CF929F923E
:1048F0008F929F938F937F936F9385EA94E09F931A
:104900008F931F930F930E941EBA12C00097B1F0AD
:104910006F927F92DF92CF929F928F929F938F930D
:1049200085E994E09F938F931F930F930E941EBA83
:104930000FB6F894DEBF0FBECDBF36C08114910410
:10494000A104B10479F06F927F92DF92CF929F928F
:104950008F9289E894E09F938F931F930F930E9407
:104960001EBAE6CFC114D104E104F10469F06F92DC
:104970007F92DF92CF9281E894E09F938F931F9371
:104980000F930E941EBAD4CF6F927F928DE794E06E
:104990009F938F931F930F930E941EBA0F900F90B7
:1049A0000F900F900F900F9060E0C8010E94499502
:1049B000EBE6FEE084917F019FEFE91AF90A882374
:1049C00021F00E942C78F701F5CFB80189EB94E033
:1049D0000E9433788AE00E942C788091A007882377
:1049E00011F40C945A311092A0076091090E709145
:1049F0000A0E072E000C880B990B0E9455BA2091C5
:104A00003A0230913B0240913C0250913D020E949B
:104A10001CB5181614F00C945A3110920A0E10920C
:104A2000090E0E9451A20C945A3183E50E94C0766F
:104A3000882311F40C945A310E943B777C018F3FFC
:104A4000910519F010F00C945A3180E50E94C0765F
:104A5000882339F00E943B778C0197FF04C00C94A7
:104A60005A310DE010E0D02EEFEBF2E0C8019927AB
:104A7000219131912817390731F0B3E0EF30FB076E
:104A8000B9F70C94ED3507E51DE0F8018491882312
:104A900029F00F5F1F4F0E942C78F7CF06EC14E02F
:104AA000F8018491882311F40C945A310F5F1F4F41
:104AB0000E942C78F5CF0E94CDA40C945A3180919D
:104AC000930E9091940E019711F00C945A3182E05C
:104AD00090E09093940E8093930E0E94B94F609350
:104AE0009D0E70939E0E80939F0E9093A00E0C943B
:104AF0005A310E9440A30C945A3188E690E00E94FB
:104B0000907981110C945A318091D20783FF02C0B1
:104B10000C945A3183E50E94C076882371F10E947B
:104B200053770E9428B470930A0E6093090E0E9476
:104B300051A20E94537720E030E040E451E40E940B
:104B40004EBA18163CF00E9440A360E083EE94E059
:104B50000E9434950E94537720910B0E30910C0ED9
:104B600040910D0E50910E0E0E941CB518162CF49B
:104B700060E085ED94E00E9434950E945AAF0C9459
:104B80005A318EE40E94C076882311F40C945A3175
:104B900080911C0490911D044AE050E060E070E0B8
:104BA00001960E9467B760931E0470931F04809360
:104BB0002004909321040C945A3183E50E94C0761E
:104BC000882319F00E94D37601C080E08093D20739
:104BD000EBE6FEE084918F010F5F1F4F882321F0E9
:104BE0000E942C78F801F6CFE3E0F5E084918F0184
:104BF0000F5F1F4F882321F00E942C78F801F6CF19
:104C00008091D2078823A1F115EFC12E14E0D12E97
:104C1000E12CF12C20E08091D20790E00E2C02C014
:104C2000959587950A94E2F780FF17C0BB24B3944B
:104C3000B20E222319F08CE20E942C78F601259105
:104C40003491F901849189010F5F1F4F882321F06E
:104C50000E942C789801F5CF2B2DFFEFEF1AFF0A59
:104C600032E0C30ED11C45E0E416F104A1F63DC0CC
:104C7000EFEFF4E084918F010F5F1F4F8823A9F1BC
:104C80000E942C78F801F6CF80E20E942C788AE509
:104C90000E94C076882311F40C94E52F0E9453776C
:104CA0006B017C0120E030E040EA51EC0E941CB531
:104CB00087FF02C00C94D42F20E030E040EA51E49A
:104CC000C701B6010E944EBA181614F40C94D42FE2
:104CD000C0924E02D0924F02E0925002F0925102E6
:104CE00042E0C701B6010E94647B8AE00E942C78F2
:104CF0000C945A31109209020C945A318AE095E0D2
:104D00000E94A44883E50E94C076882369F00E942F
:104D1000D37680930A028D3310F40C945A318CE3CD
:104D200080930A020C945A31EBE6FEE084918F01E5
:104D30000F5F1F4F882321F00E942C78F801F6CFD7
:104D400040910A0250E060E070E08FE195E00E943F
:104D50003E798AE00E942C780C945A318091D207D7
:104D600083FF02C00C945A3183E50E94C0768823E9
:104D700011F40C945A310E9453770E9428B4709316
:104D80004706609346060E94C1550C945A3189E645
:104D900090E00E949079811111C0E6E2F5E08491E3
:104DA0008F010F5F1F4F882321F00E942C78F8019C
:104DB000F6CF0E94433E8AE00E942C781092BC05F8
:104DC0001092BB050C94D6378DE690E00E94907946
:104DD00081110C945A318091D20783FF02C00C9448
:104DE0005A3183E50E94C07669968FAF6997811129
:104DF00005C082E50E94C0768823C1F10E945377E6
:104E00000E9428B470930A0E6093090E0E9451A26A
:104E10000E94537720E030E040E451E40E944EBA13
:104E2000181614F40C9402360E9440A360E082E548
:104E300095E00E9434956091090E70910A0E072E3C
:104E4000000C880B990B0E9455BA20910B0E3091E3
:104E50000C0E40910D0E50910E0E0E941CB51816AE
:104E60002CF460E084E495E00E9434950E945AAFEF
:104E700081E0809309021092BC051092BB056896F0
:104E80001CAE1DAE1EAE1FAE6897A8961CAE1DAE22
:104E90001EAE1FAEA89761961FAE61976D961FAEAE
:104EA0006D975CE3A1965FAFA1978CE1AD968FAF54
:104EB000AD9796E4E5969FAFE597C12CD12CA0E87D
:104EC000EA2EBFEBFB2E812C912C54016091090E30
:104ED00070910A0E072E000C880B990B0E9455BA90
:104EE000162F072F782E692E262F372F482F592F50
:104EF000B601C7010E944EBA882341F120910B0EE2
:104F000030910C0E40910D0E50910E0E612F702FAE
:104F1000872D962D0E944EBA881F8827881F61967C
:104F20008FAF61976996AFAD6997AA2399F08823EF
:104F300089F080910902882311F40C945A3160E0C1
:104F400089E295E00E9434950C945A311C2D0D2D68
:104F50007E2C6F2C0E94B94F6B017C01DC01CB01D0
:104F6000A8962CAD3DAD4EAD5FADA897821B930BBF
:104F7000A40BB50BB7FD47C0D701C60188519C4FA4
:104F8000AF4FBF4FA8968CAF9DAFAEAFBFAFA89746
:104F90000E94433EE0E4F5E084912F019FEF491A1F
:104FA000590A882321F00E942C78F201F5CF811450
:104FB0009104A104B104D1F0D501C401805F984DE2
:104FC000AF4FBF4FBC01CD016C197D098E099F0900
:104FD00028EE33E040E050E00E942CBECA01B90147
:104FE0000E945B798AE00E942C780DC0EDE3F5E029
:104FF00084912F01AFEF4A1A5A0A882321F00E94A8
:105000002C78F201F5CF0E9410490E94217820905F
:105010000B0E30900C0E40900D0E50900E0E910124
:10502000A201612F702F872D962D0E94BBB29F7712
:1050300081149104A104B10449F420E030E040E877
:105040005FE30E944EBA87FF0BC008C020E030E04B
:1050500040E450E40E941CB5181614F446015701B0
:105060006196BFAD6197BB2309F443C068962CAD30
:105070003DAD4EAD5FAD6897211531054105510538
:1050800041F0D701C601821B930BA40BB50BB7FDF2
:1050900030C09101A2016D966FAD6D97A1967FAD65
:1050A000A197AD968FADAD97E5969FADE5970E9420
:1050B000BBB220E030E040EC5FE30E944EBA87FDD7
:1050C00038CFD701C601805A9541AF4FBF4F689680
:1050D0008CAF9DAFAEAFBFAF68976D962FAE6D979B
:1050E000A1963FAEA197AD964FAEAD97E5965FAE58
:1050F000E59780910902882309F41BCF811491045C
:10510000A104B10429F4C12ED02EE72CF62CDECE5A
:1051100090E1C91A97E2D90AE108F108C818D9083C
:10512000EA08FB08F7FE05CFEECF83E50E94C076C4
:10513000882321F00E942E778C0102C00FEF10E02F
:1051400080E50E94C076882331F00E942E77892B5B
:1051500011F00C945A3198010F3F110519F010F01D
:105160002FEF30E03093A2072093A1070C945A311F
:1051700080E50E94C076811106C01092A2071092AD
:10518000A1070C945A310E942E77892B11F00C94B0
:105190005A31F3CF109227040C945A3181E0809356
:1051A00027040C945B3183E50E94C076882361F06C
:1051B0000E947C7760930B0270930C0280930D0227
:1051C00090930E020C945A3188E50E94C0768111AA
:1051D0000C94063689E50E94C07681110C9406363F
:1051E0008AE50E94C07681110C94063685E40E94FF
:1051F000C07681110C9406360E94D9870E9493488C
:105200000C945A310E943B3D0C945A310E94233C2D
:105210000C945A3184918F010F5F1F4F882311F432
:105220000C945A310E942C78F801F4CF60E0C80148
:105230000E9449950C945A31E1E7F6E084918F0180
:105240000F5F1F4F882321F00E942C78F801F6CFC2
:10525000E9E6F6E084918F010F5F1F4F882321F06C
:105260000E942C78F801F6CF659B03C00BE713E092
:1052700002C000E813E0D8018D918D01882319F058
:105280000E942C78F8CF8AE00E942C78E1E6F6E0C4
:1052900084918F010F5F1F4F882321F00E942C788B
:1052A000F801F6CF649B03C00BE713E002C000E8EF
:1052B00013E0F80181918F01882319F00E942C7866
:1052C000F8CF8AE00E942C78E9E5F6E084918F011E
:1052D0000F5F1F4F882321F00E942C78F801F6CF32
:1052E0008091030181FF03C00BE713E002C000E8D7
:1052F00013E0D8018D918D01882319F00E942C783C
:10530000F8CF8AE00E942C78E1E5F6E084918F01E5
:105310000F5F1F4F882321F00E942C78F801F6CFF1
:105320008091030180FF03C00BE713E002C000E897
:1053300013E0F80181918F01882319F00E942C78E5
:10534000F8CF8AE00E942C78E9E4F6E084918F019E
:105350000F5F1F4F882321F00E942C78F801F6CFB1
:105360004B9B03C00BE713E002C000E813E0D80139
:105370008D918D01882319F00E942C78F8CF8AE056
:105380000E942C78E1E4F6E084918F010F5F1F4FBB
:10539000882321F00E942C78F801F6CF4A9B03C0A5
:1053A0000BE713E002C000E813E0F80181918F01E0
:1053B000882309F49ACC0E942C78F7CF81E080935F
:1053C00013028093D50577C7109213021092D5056A
:1053D00071C70E94E93D6EC70E94B13B6BC70E9436
:1053E0008F3B68C70E94263B65C70E94BC3A62C7D4
:1053F0000E94E23C5FC70E941A3A5CC70E94A6392D
:1054000059C70E94743956C785E40E94C07681113D
:1054100010C080E50E94C076882399F00E945377DF
:1054200060932602709327028093280290932902AA
:1054300008C00E943B77181619065CF7E7E5FDE007
:1054400071C089E40E94C076882381F00E9453775E
:105450002CE933E549E45EE30E94B4BA60932E027E
:1054600070932F02809330029093310284E40E9463
:10547000C076882381F00E9453772CE933E549E414
:105480005EE30E94B6B360932A0270932B0280936E
:105490002C0290932D02EBE6FEE084918F010F5FCA
:1054A0001F4F882321F00E942C78F801F6CF4091FD
:1054B000260250912702609128027091290283E907
:1054C00096E00E94F67B2CE933E549E45EE36091C7
:1054D0002E0270912F0280913002909131020E9431
:1054E000B6B3AB01BC018FE896E00E94D97B2CE9F2
:1054F00033E549E45EE360912A0270912B028091CA
:105500002C0290912D020E94B4BAAB01BC018BE831
:1055100096E00E94D97B8AE00E942C78CBC60E943C
:105520002C78F80184918F010F5F1F4F8111F7CF05
:105530000EE813E0D8018D918D01882309F4D5CBB5
:105540000E942C78F7CF83E50E94C076082F88232D
:10555000A1F00E94537760934602709347028093B4
:1055600048029093490211E020E030E0A9010E9436
:105570004EBA811110E01093CD0780E50E94C076ED
:10558000182F8823A9F020E030E0A901609146029D
:105590007091470280914802909149020E944EBA50
:1055A000882319F00E940277182F1093CD0782C626
:1055B000011180C6EBE6FEE084918F010F5F1F4F63
:1055C000882321F00E942C78F801F6CF8091CD0736
:1055D000811103C06AE873E002C06DE773E08CEAF2
:1055E00096E00E94337820E030E040E05FE3609195
:1055F00046027091470280914802909149020E94B0
:10560000BCB20E9428B48BE996E00E947779E7E962
:10561000F6E084918F010F5F1F4F882309F44AC67B
:105620000E942C78F801F5CF85E40E94C07688238B
:1056300021F00E943B777C0102C0E12CF12C83E435
:105640000E94C076882349F00E943B77C656DF4F00
:1056500099838883CA59D04008C0E5E0F0E0C65677
:10566000DF4FF983E883CA59D04085E50E94C076B0
:10567000882341F00E940277C456DF4F8883CC59BB
:10568000D04005C0C456DF4F1882CC59D04083E5C6
:105690000E94C076882379F00E94537769966FAF95
:1056A0006997A5967FAFA5976D968FAF6D97A196D9
:1056B0009FAFA19710C069961FAE6997A5961FAEC0
:1056C000A597F7FC0EC0F6E16D96FFAF6D9723E44A
:1056D000A1962FAFA197E114F10459F4109222047E
:1056E00008C03CE86D963FAF6D9742E4A1964FAF7E
:1056F000A1971092BC051092BB050E94B94F4B01B7
:105700005C01EF2819F40FE913E00EC002EB13E07F
:10571000D8018D918D01882319F00E942C78F8CF43
:105720008AE00E942C78C6C5F80181918F018823F8
:1057300019F00E942C78F8CF8AE00E942C780E9401
:1057400011568FE780934A0681E080930902CE5676
:10575000DF4F88829982AA82BB82C259D040C35649
:10576000DF4F88829982AA82BB82CD59D040E596CC
:105770001FAEE597F0E4A996FFAFA9972CE1E1965B
:105780002FAFE19736E4E9963FAFE997ED961FAE6C
:10579000ED97C058DF4F1882C058D040CC57DF4F2C
:1057A0001882C458D040C857DF4F1882C858D0401C
:1057B000C357DF4F188219821A821B82CD58D040FE
:1057C000C757DF4F188219821A821B82C958D040EE
:1057D000C12CD12C7601FFE74F2E512C612C712C5E
:1057E0008FE790E0A0E0B0E068968CAF9DAFAEAFE1
:1057F000BFAF6897CA56DF4F188219821A821B8280
:10580000C659D04091E0CF56DF4F9883C159D04060
:10581000AE961FAE1EAEAE9710E000E0312C212CEC
:1058200080910902882309F401C20E94B94F64964D
:105830006CAF7DAF8EAF9FAF649780914806882391
:1058400009F4EFC00E94E85710910B0E00910C0E66
:1058500030900D0E20900E0E212F302F432D522D03
:10586000ED966FADED97C058DF4F7881C058D040AE
:10587000CC57DF4F8881C458D040C857DF4F98813C
:10588000C858D0400E944EBA87FF12C0ED961FAF95
:10589000ED97C058DF4F0883C058D040CC57DF4F3A
:1058A0003882C458D040C857DF4F2882C858D040EB
:1058B000212F302F432D522DE5966FADE597A996F8
:1058C0007FADA997E1968FADE197E9969FADE997F6
:1058D0000E941CB5181664F4E5961FAFE597A996CB
:1058E0000FAFA997E1963FAEE197E9962FAEE99702
:1058F000CF56DF4FA881C159D04069962FAD699727
:10590000A5963FADA5976D964FAD6D97A1965FADEE
:10591000A197612F702F832D922DAA2309F461C0C6
:105920000E941CB518160CF07CC064964CAD5DADA1
:105930006EAD7FAD6497481959096A097B09DB018F
:10594000CA0188589341A109B109B7FD6AC0689698
:105950008CAD9DADAEADBFAD689784199509A60914
:10596000B709B595A7959795879580934A06CA5626
:10597000DF4F488359836A837B83C659D040699639
:10598000BFAD6997ED96BFAFED97A596EFADA59723
:10599000C058DF4FE883C058D0406D96FFAD6D977B
:1059A000CC57DF4FF883C458D040A1962FADA197B4
:1059B000C857DF4F2883C858D04064968CAD9DAD42
:1059C000AEADBFAD6497CE56DF4F88839983AA836F
:1059D000BB83C259D040CF56DF4F1882C159D04047
:1059E00020C00E944EBA87FF1CC064968CAD9DAD4E
:1059F000AEADBFAD6497CE56DF4F288139814A8165
:105A00005B81C259D040821B930BA40BB50BAC0138
:105A1000BD01485853416109710977FD02C00C94DA
:105A20002F3620E030E040EA51E469966FAD699787
:105A3000A5967FADA5976D968FAD6D97A1969FADFD
:105A4000A1970E94BCB29B01AC01612F702F832DE6
:105A5000922D0E941CB518166CF4E9E7F7E08491CA
:105A60008F010F5F1F4F882309F424C40E942C78F4
:105A7000F801F5CF80E398EFAFEFBFEFC356DF4FEC
:105A8000288139814A815B81CD59D040821B930B9B
:105A9000A40BB50B64962CAD3DAD4EAD5FAD6497D8
:105AA000820F931FA41FB51FB7FD13C00E94433E72
:105AB0008AE00E942C7864968CAD9DADAEADBFADF2
:105AC0006497C356DF4F88839983AA83BB83CD59DC
:105AD000D04064968CAD9DADAEADBFAD6497880FE0
