:100000000C94C8160C94F9160C94F9160C94F91665
:100010000C94F9160C94F9160C94F9160C94F91624
:100020000C94F9160C94F9160C94F9160C94F91614
:100030000C94F9160C94F9160C94F9160C94F91604
:100040000C94F9160C942B880C94F9160C94F91650
:100050000C94F9160C94F9160C9498560C94C64FFF
:100060000C94F9160C94147C0C94F9160C94F91653
:100070000C94F9160C94F9160C94F9160C94F916C4
:100080000C94F9160C94F9160C94F9160C94F916B4
:100090000C94F9160C94F9160C94F9160C94F916A4
:1000A0000C94F9160C94F9160C94F9160C94F91694
:1000B0000C94F9160C94F9160C94F9160C94F91684
:1000C0000C94F9160C94F9160C94F9160C94F91674
:1000D0000C94F9160C94F9160C94F9160C94F91664
:1000E0000C94F916E04EE54EEA4EF44EFE4E774F74
:1000F000084F104F184F224F2C4F364F454F4F4F40
:10010000774F594F634F6D4FF35603572257275779
:100110002A572F57325737573A573F574257475763
:100120005157F183F483E383E783ED832B84F883D2
:10013000FC83028406840A841084148418842B842B
:100140001E8422842684084AD73B3BCE016E84BCA1
:10015000BFFDC12F3D6C74319ABD56833DDA3D0021
:10016000C77F11BED9E4BB4C3E916BAAAABE00006A
:1001700000803F05A84CCDB2D44EB93836A9020C48
:1001800050B9918688083CA6AAAA2ABE0000008021
:100190003F000C94224F0C94ED830C948A4E0C94E7
:1001A000ED530C94A77D0C94774F0C94E3830C943F
:1001B00027570C94F1830C94A97D0C94C4930C9450
:1001C000F44E0C943F570C94E7830C94CC5B0C9446
:1001D000104F0C94084F0C94A3B10C9422570C941C
:1001E0002B840C94D15D0C94E54E0C946D4F0C94C3
:1001F00034610C943C620C941A930C9426840C94F5
:10020000609C0C9403550C949E5B0C9436620C9489
:100210001D760C9430620C94F8830C9422840C9418
:1002200014840C94184F0C9462940C94594F0C94B1
:100230005F920C9447570C94A88F0C949E980C9442
:10024000B55D0C94A57D0C943A570C94F3560C9420
:10025000D4830C94479D0C941E840C9410840C94AD
:10026000FC830C942F570C9467830C94427C0C9461
:1002700018840C94E04E0C942C4F0C942A570C9438
:10028000C35D0C942E9F0C9437570C94DF5D0C9437
:1002900032570C9403910C94D7820C94AB830C943A
:1002A000EA4E0C94FE4E0C94DA820C9459900C9405
:1002B00006840C94634F0C9443420C9402840C9477
:1002C000454F0C946B920C9442570C942A620C94F8
:1002D000364F0C9469920C9460940C9403570C94D0
:1002E000B55B0C940A840C94499D0C9451570C9462
:1002F000F4830C944F4F434F4D4D554E4943415459
:10030000494F4E0044525952554E004552524F5299
:100310005300494E464F004543484F0020746F6FCD
:10032000206C6F6E6720657874727573696F6E20CC
:1003300070726576656E7465640A0020636F6C6424
:1003400020657874727573696F6E2070726576655A
:100350006E7465640A0047322F473320626164205F
:10036000706172616D65746572730A005265706FB9
:10037000736F2E2E2E00206669727374005A005916
:10038000005800486F6D6520002066697273740A1A
:10039000005A0059005800486F6D652000203D3D0F
:1003A0003D3D00202020200042696C696E6561722D
:1003B000204C6576656C696E6720477269643A0AFD
:1003C000200028422961636B00284629726F6E74F1
:1003D000002852296967687400284C2965667400F2
:1003E00052756E6E696E6720696E204452592D52A7
:1003F000554E206D6F64650A00473239204175748F
:100400006F20426564204C6576656C696E670A00F2
:100410003F2856296572626F7365204C6576656C5E
:1004200020697320696D706C61757369626C6520F9
:1004300028302D34292E0A00205A3A200020593A1B
:10044000200042656420583A2000334420507269ED
:100450006E746572206C697374612E0045737065EB
:1004600072616E646F206F7264656E6573005369AC
:100470006E206D6F76696D69656E746F00256973A6
:100480000025696D20256973002569682025696D3F
:100490002025697300256964202569682025696D18
:1004A00020256973002569792025696420256968FC
:1004B0002025696D20256973005072696E7420745F
:1004C000696D653A200050726F74656374656420CD
:1004D00050696E0A0043616C656E74616E646F2EC4
:1004E0002E2E003344205072696E746572206C6940
:1004F0007374612E00170312030B030403F6026FDB
:1005000066660044454255473A0050617261646135
:1005100020646520656D657267656E636961004D75
:100520003131332053006F6B0043616C656E746131
:100530006D69656E746F206C6973746F003F0A009B
:1005400020573A0043616C656E74616E646F2E2EA5
:100550002E003344205072696E746572206C69738A
:1005600074612E003344205072696E7465722041AC
:1005700070616761722E004649524D574152455F86
:100580004E414D453A4D61726C696E20312E312ECF
:10059000302D5243382028476974687562292053EA
:1005A0004F555243455F434F44455F55524C3A685F
:1005B000747470733A2F2F6769746875622E636F55
:1005C0006D2F4D61726C696E4669726D77617265EF
:1005D0002F4D61726C696E2050524F544F434F4CF7
:1005E0005F56455253494F4E3A312E30204D4143CC
:1005F00048494E455F545950453A3344205072693A
:100600006E7465722045585452554445525F434FAD
:10061000554E543A3120555549443A636564653224
:100620006132662D343161322D343734382D3962E0
:1006300031322D6335356336326633363766660AB6
:10064000007A5F6D61783A20007A5F6D696E3A20BA
:1006500000795F6D61783A2000795F6D696E3A20AC
:1006600000785F6D61783A2000785F6D696E3A209E
:10067000005265706F7274696E6720656E64737482
:100680006F70207374617475730A0020643A0020DF
:10069000693A0020703A0043290A0061626C65647F
:1006A00020286D696E2074656D702000436F6C6446
:1006B000206578747275646573206172652000230B
:1006C000646566696E65202044454641554C545F1B
:1006D0004B64200023646566696E652020444546AE
:1006E00041554C545F4B69200023646566696E6513
:1006F000202044454641554C545F4B7020005049E2
:1007000044204175746F74756E652066696E6973F7
:10071000686564212050757420746865206C61736D
:1007200074204B702C204B6920616E64204B642038
:10073000636F6E7374616E74732066726F6D206286
:10074000656C6F7720696E746F20436F6E666967A2
:1007500075726174696F6E2E680A005049442041B9
:1007600075746F74756E65206661696C65642120AF
:1007700074696D656F75740A005049442041757441
:100780006F74756E65206661696C656421205465BF
:100790006D706572617475726520746F6F20686921
:1007A00067680A00204B643A2000204B693A200019
:1007B000204B703A20000A20436C617373696320F8
:1007C000504944200A002054753A2000204B753AC5
:1007D0002000206D61783A2000206D696E3A20007B
:1007E00020643A200020626961733A2000446573F6
:1007F000666173652061706C696361646F00457246
:10080000723A20546F6F206661722100546F6F201E
:100810006661722066726F6D207265666572656EC4
:10082000636520706F696E740A00454550524F4DE4
:100830002064697361626C65640A003A20007A5F23
:100840006D61783A20007A5F6D696E3A20004465E8
:100850007366617365205A0041637469766520454B
:10086000787472756465723A2000556E6B6E6F779E
:100870006E20636F6D6D616E643A202200205A3ADB
:10088000200020593A200042656420583A20002078
:10089000706F736974696F6E206F7574206F662056
:1008A00072616E67652E0A003F50726F62652000AC
:1008B00020403A00202F0020543A004D313435209A
:1008C000533C696E6465783E206F7574206F6620B6
:1008D00072616E67652028302D31290A00205A3A4E
:1008E0000020423A0020436F756E7420413A200088
:1008F00020453A00205A3A0020593A00583A00530D
:10090000657474696E672054726176656C2041630A
:1009100063656C65726174696F6E3A20005365742B
:1009200074696E67205265747261637420416363F9
:10093000656C65726174696F6E3A200053657474FA
:10094000696E67205072696E7420416363656C65DF
:10095000726174696F6E3A200053657474696E67D2
:10096000205072696E7420616E64205472617665E5
:100970006C20416363656C65726174696F6E3A20C7
:1009800000205A00205900580020204D61783A205C
:1009900000205A00205900580020204D696E3A204E
:1009A00000456E63656E64657200417061676172D7
:1009B00000536F667420656E6473746F70733A20B1
:1009C00000627573793A2070617573656420666F93
:1009D0007220696E7075740A00627573793A2070BE
:1009E000617573656420666F7220757365720A00A5
:1009F000627573793A2070726F63657373696E679D
:100A00000A0050617261646120646520656D6572E1
:100A100067656E636961005061726164612064653D
:100A200020656D657267656E63696100506C656114
:100A30007365207265736574005052494E54455277
:100A40002048414C544544005072696E74657220D0
:100A500068616C7465642E206B696C6C2829206356
:100A6000616C6C6564210A00000000000000000059
:100A7000000048435761726E696E673A20486F6D97
:100A8000696E672042756D702044697669736F7274
:100A9000203C20310A000000A0400000A0400000DF
:100AA0000040000048430000484300004843FFFF67
:100AB0000148617264636F646564204465666175B2
:100AC0006C742053657474696E6773204C6F616435
:100AD00065640A0020204D383531205A005A2D50C7
:100AE000726F6265204F666673657420286D6D298C
:100AF0003A0A0020204D3230302044300A002020B5
:100B00004D3230302044002044697361626C65646A
:100B10000A0046696C616D656E7420736574746952
:100B20006E67733A0020440020490020204D333086
:100B3000312050005049442073657474696E6773A6
:100B40003A0A0020460020420020480020204D3173
:100B500034352053004D6174657269616C2068659D
:100B60006174757020706172616D65746572733A3D
:100B70000A00205A0020590020204D3230362058DB
:100B800000486F6D65206F666673657420286D6D13
:100B9000290A00204500205A002059002058002032
:100BA000420020540020204D323035205300416453
:100BB00076616E636564207661726961626C6573EB
:100BC0003A20533D4D696E206665656472617465B7
:100BD00020286D6D2F73292C20543D4D696E207493
:100BE000726176656C206665656472617465202843
:100BF0006D6D2F73292C20423D6D696E696D756D89
:100C0000207365676D656E742074696D6520286D4D
:100C100073292C20583D6D6178696D756D20585988
:100C2000206A65726B20286D6D2F73292C20205A45
:100C30003D6D6178696D756D205A206A65726B2013
:100C4000286D6D2F73292C2020453D6D6178696DCD
:100C5000756D2045206A65726B20286D6D2F732994
:100C60000A0020540020520020204D323034205001
:100C700000416363656C65726174696F6E733A20DD
:100C8000503D7072696E74696E672C20523D7265BA
:100C9000747261637420616E6420543D7472617675
:100CA000656C0A00204500205A0020590020204D84
:100CB0003230312058004D6178696D756D20416387
:100CC00063656C65726174696F6E20286D6D2F733A
:100CD00032293A0A00204500205A002059002020DD
:100CE0004D3230332058004D6178696D756D206646
:100CF000656564726174657320286D6D2F73293A80
:100D00000A00204500205A0020590020204D393289
:100D100020580053746570732070657220756E6979
:100D2000743A0A0050617261646120646520656DE7
:100D3000657267656E63696100202D20496E76617A
:100D40006C6964206578747275646572206E756D67
:100D500062657220210A004572726F723A0020208B
:100D6000506C616E6E65724275666665724279742A
:100D700065733A20002046726565204D656D6F727F
:100D8000793A2000436F6D70696C65643A204D615B
:100D90007220313120323031370A00207C204175F9
:100DA00074686F723A20286E6F6E652C20646566D9
:100DB00061756C7420636F6E666967290A00323052
:100DC00031362D31322D30362031323A303000205C
:100DD0004C61737420557064617465643A2000310D
:100DE0002E312E302D5243380A004D61726C696EDF
:100DF0000020536F66747761726520526573657465
:100E00000A00205761746368646F672052657365D8
:100E1000740A002042726F776E206F7574205265DD
:100E20007365740A002045787465726E616C205297
:100E3000657365740A00506F77657255700A0073A8
:100E4000746172740A00456E6473746F7073202548
:100E50006320256320256320256300205A3A002063
:100E6000593A0020583A00656E6473746F707320AD
:100E70006869743A20006563686F3A006265640AC5
:100E8000002C2073797374656D2073746F707065B6
:100E90006421204865617465725F49443A200045C9
:100EA00072726F722064652074656D706572617412
:100EB00075726100546865726D616C2052756E6167
:100EC000776179004572726F723A20616C206361BC
:100ED0006C656E7461720048656174696E67206646
:100EE00061696C6564004572726F723A20616C20B2
:100EF00063616C656E7461720048656174696E67E8
:100F0000206661696C6564004572726F723A2054A4
:100F1000656D70204D6178696D61004D4158544593
:100F20004D5020747269676765726564004572721E
:100F30006F723A2054656D70204D696E696D610065
:100F40004D494E54454D502074726967676572650E
:100F500064004D6F7665722058004D6F7665722083
:100F600059004D6F766572205A004578747275731A
:100F70006F72004578747275736F72004D6F76658D
:100F800072205A004D6F7665722059004D6F76655C
:100F9000722058004D6F76657220656A6573004D4A
:100FA0006F76657220302E316D6D004D6F766572F3
:100FB00020316D6D004D6F7665722031306D6D00A2
:100FC00050726570617261720052657374617572FE
:100FD0006172206D656D6F7269610046696C616D4B
:100FE000656E746F004D6F76696D69656E746F0024
:100FF00054656D7065726174757261004D656E75D2
:10100000207072696E636970616C00507265636113
:101010006C656E74617220414253436F6E666967FE
:101020000050726563616C656E74617220504C4152
:10103000436F6E666967005049442D44005049442F
:101040002D44005049442D49005049442D49005039
:1010500049442D50005049442D500020082046613D
:1010600063740020082046616374002008204D61ED
:1010700078002008204D6178002008204D696E001E
:101080002008204D696E0041706167617200456EF5
:1010900063656E6465720054656D70657261747528
:1010A0007261204175746F2E0056656E74696C61B3
:1010B000646F720056656E74696C61646F72004291
:1010C0006F7175696C6C6100426F7175696C6C61F0
:1010D00000436F6E74726F6C00426F7175696C6C57
:1010E0006100426F7175696C6C610056656E746960
:1010F0006C61646F720056656E74696C61646F72C6
:101100000054656D70657261747572610020746F52
:101110006F206C6F6E6720657874727573696F6E7F
:101120002070726576656E7465640A0020636F6C6A
:101130006420657874727573696F6E20707265765D
:10114000656E7465640A00656E7175657565696EB6
:10115000672022004E6F204C696E65204E756D62CF
:101160006572207769746820636865636B73756D59
:101170002C204C617374204C696E653A20005061DC
:101180007261646120646520656D657267656E6378
:10119000696100446574656E696461005072696ECE
:1011A0007465722073746F70706564206475652057
:1011B000746F206572726F72732E20466978207486
:1011C0006865206572726F7220616E642075736548
:1011D000204D39393920746F2072657374617274CF
:1011E0002E202854656D7065726174757265206972
:1011F000732072657365742E2053657420697420A2
:1012000061667465722072657374617274696E6769
:10121000290A004E6F20436865636B73756D2077F4
:10122000697468206C696E65206E756D6265722CDC
:10123000204C617374204C696E653A2000636865C8
:10124000636B73756D206D69736D617463682C20B9
:101250004C617374204C696E653A20004C696E6570
:10126000204E756D626572206973206E6F74204C1C
:10127000617374204C696E65204E756D6265722BCA
:10128000312C204C617374204C696E653A20004DFE
:101290003131300020496E76616C69642065787464
:1012A00072756465722000000048430000484300E6
:1012B000004843000000000000000000000000455E
:1012C000207061736F732F6D6D0045207061736FB7
:1012D000732F6D6D005A207061736F732F6D6D00E9
:1012E0005A207061736F732F6D6D00592070617398
:1012F0006F732F6D6D0059207061736F732F6D6D5B
:101300000058207061736F732F6D6D0058207061ED
:10131000736F732F6D6D004163656C2E205669618C
:101320006A65004163656C2E205669616A650041FB
:1013300063656C2E207265747261632E0041636573
:101340006C2E207265747261632E004163656C2E91
:10135000206D617845004163656C2E206D61784594
:10136000004163656C2E206D61785A004163656CA5
:101370002E206D61785A004163656C2E206D617876
:1013800059004163656C2E206D6178590041636599
:101390006C2E206D617858004163656C2E206D6164
:1013A00078580056656C2E207669616A65206D69F3
:1013B0006E0056656C2E207669616A65206D696ED7
:1013C00000566D696E00566D696E00566D61784508
:1013D00000566D61784500566D61785A00566D6112
:1013E000785A00566D61785900566D6178590056EB
:1013F0006D61785800566D6178580056652D6A65A4
:10140000726B0056652D6A65726B00567A2D6A659F
:10141000726B00567A2D6A65726B0056792D6A657B
:10142000726B0056792D6A65726B0056782D6A656D
:10143000726B0056782D6A65726B004163656C654E
:10144000726163696F6E004163656C6572616369A7
:101450006F6E0044657366617365205A004465735E
:1014600066617365205A00436F6E74726F6C00463C
:10147000696C2E204469612E0046696C2E204469F7
:10148000612E0041706167617200456E63656E6434
:101490006572004520696E206D6D3300436F6E7478
:1014A000726F6C0000002100240027002A002D002C
:1014B0003000330001010000040107010A010000AF
:1014C0002200250028002B002E00310034000201EC
:1014D0000000050108010B01000020002300260088
:1014E00029002C002F00320000010000030106013A
:1014F000090105050505070508080808020202029A
:101500000A0A08080404040401010101010101019F
:101510000303030303030303040707070C0C0C0C6A
:101520000C0C0C0C02020202060606060606060653
:101530000B0B0B0B0B0B0B0B0102102020080810E0
:101540002040102040800201020108040201010233
:10155000040810204080804020100804020180040C
:101560000201804020100804020108040201010267
:101570000408102040800102040810204080000070
:101580000A0B02090C0D0E080703040100000000FD
:10159000000000000000000000000000000000004B
:1015A0000000000000000000000012111000000008
:1015B000000000000000000000000000000000002B
:1015C0000000000024F4D43050C38E20C2A2401783
:1015D000828B7011127A910D816CD90AA861E10891
:1015E000C7586607615143061E4B5D05C145A704F8
:1015F0001A411104093D9803713931034036DB0269
:1016000065339102D4305402802E1D02632CEE010A
:10161000752AC501B028A001102781018F2564011A
:101620002B244B01E0223401AC211F018D200D0140
:10163000801FFC00841EED00971DDF00B81CD20047
:10164000E61BC600201BBC00641AB200B219A80039
:101650000A19A0006A189900D117910040178B0051
:10166000B516840031167E00B31579003A15730063
:10167000C7146F0058146A00EE13660088136300E5
:1016800025135E00C7125B006C1257001512540040
:10169000C111510070114F0021114B00D6104900AB
:1016A0008D1047004610440002104200C00F400059
:1016B000800F3E00420F3C00060F3B00CB0E38006F
:1016C000930E37005C0E3500270E3400F30D320008
:1016D000C10D3100900D3000600D2E00320D2D0037
:1016E000050D2C00D90C2B00AE0C2900850C29000F
:1016F0005C0C2700350C27000E0C2600E80B24009C
:10170000C40B2400A00B23007D0B23005A0B2100E7
:10171000390B2100180B2000F80A1F00D90A1E00FF
:10172000BB0A1E009D0A1D00800A1D00630A1C00E2
:10173000470A1B002C0A1B00110A1A00F7091A009D
:10174000DD091900C4091900AB0919009209170035
:101750007B091800630917004C09160036091600AA
:10176000200916000A091500F5081500E008140004
:10177000CC081400B8081400A40814009008130042
:101780007D0812006B08130058081200460812006A
:10179000340811002308110012081100010811007B
:1017A000F0071000E0071000D0071000C00710007D
:1017B000B0070F00A107100091070E0083070F006C
:1017C00074070F0065070E0057070E0049070E004B
:1017D0003B070D002E070E0020070D0013070D001C
:1017E00006070D00F9060C00ED060D00E0060C00E2
:1017F000D4060C00C8060C00BC060C00B0060C0099
:10180000A4060B0099060C008D060B0082060B0047
:1018100077060B006C060B0061060A0057060B00EA
:101820004C060A0042060A0038060A002E060A0084
:1018300024060A001A060A001006090007060A0014
:10184000FD050900F4050900EB050900E2050900A2
:10185000D9050900D0050900C7050900BE05090022
:10186000B5050800AD050800A50509009C050800A0
:10187000940508008C050800840508007C05080014
:10188000740508006C050700650508005D05070084
:10189000560508004E0507004705070040050800EB
:1018A00038050700310507002A0507002305070052
:1018B0001C050600160507000F05070008050600B1
:1018C00002050700FB040600F5040700EE0406000D
:1018D000E8040600E2040700DB040600D504060065
:1018E000CF040600C9040600C3040600BD040600B8
:1018F000B7040600B1040500AC040600A604060007
:10190000A00405009B040600950405009004060051
:101910008A04050085040500800406007A04050099
:1019200075040500700405006B04050066040500DD
:10193000610405005C04050057040500520405001D
:101940004D04050048040500430405003E0404005E
:101950003A04050035040500300404002C04050099
:1019600027040400230405001E0404001A040400D4
:1019700016040500110404000D0404000904050008
:101980000404040000040400FC030400F803040041
:10199000F4030400F0030400EC030400E803040073
:1019A000E4030400E0030400DC030400D8030400A3
:1019B000D4030400D0030400CC030400C8030300D4
:1019C000C503030024F404D9201BC40C5C0E980446
:1019D000C4095F0265077101F405F900FB04B30057
:1019E00048048700C10369005803550003034500FC
:1019F000BE023A008402310053022A002902250067
:101A000004022000E4011C00C8011900AF01170006
:101A1000980114008401130071011000610110008D
:101A200051010E0043010D0036010B002B010B008C
:101A300020010B00150109000C0109000301080039
:101A4000FB000800F3000800EB000700E4000600BC
:101A5000DE000600D8000600D2000600CC0005001B
:101A6000C7000500C2000500BD000400B900040065
:101A7000B5000400B1000400AD000400A90004009A
:101A8000A5000300A20003009F0004009B000300C8
:101A900098000300950002009300030090000300EB
:101AA0008D0002008B000300880002008600020007
:101AB00084000300810002007F0002007D0002001C
:101AC0007B0002007900020077000100760002002E
:101AD0007400020072000100710002006F00020039
:101AE0006D0001006C0002006A0001006900020044
:101AF000670001006600010065000100640002004B
:101B00006200010061000100600001005F0002004E
:101B10005D0001005C0001005B0001005A00010053
:101B20005900010058000100570001005600010053
:101B30005500010054000100530000005300010053
:101B40005200010051000100500001004F0001004F
:101B50004E0000004E0001004D0001004C0001004D
:101B60004B0000004B0001004A0001004900010049
:101B70004800000048000100470001004600000046
:101B8000460001004500000045000100440001003E
:101B90004300000043000100420000004200010039
:101BA0004100000041000100400001003F00000032
:101BB0003F0001003E0000003E0001003D0000002B
:101BC0003D0001003C0000003C0000003C00010022
:101BD0003B0000003B0001003A0000003A00010019
:101BE0003900000039000100380000003800000012
:101BF0003800010037000000370001003600000007
:101C000036000000360001003500000035000000FD
:101C100035000100340000003400000034000100F1
:101C200033000000330000003300010032000000E8
:101C300032000000320001003100000031000000DD
:101C400031000100300000003000000030000100D1
:101C50002F0000002F0000002F0000002F000100C7
:101C60002E0000002E0000002E0001002D000000BC
:101C70002D0000002D0000002D0001002C000000B0
:101C80002C0000002C0000002C0001002B000000A4
:101C90002B0000002B0000002B0001002A00000098
:101CA0002A0000002A0000002A000100290000008C
:101CB000290000002900000029000000290001007F
:101CC0002800000028000000280000002800000074
:101CD0002800010027000000270000002700000066
:101CE0002700000027000100260000002600000059
:101CF000260000002600000026000100250000004C
:101D0000250000002500000025000000250000003F
:101D10002500010024000000240000002400000031
:101D20002400000024000100230000002300000024
:101D30002300000023000000230000002300000017
:101D40002300010022000000220000002200000009
:101D500022000000220000002200010021000000FB
:101D600021000000210000002100000021000000EF
:101D700021000000210001002000000020000000E0
:101D800020000000200000002000000020000000D3
:101D900020000000200001001F0000001F000000C4
:101DA0001F0000001F0000001F0000001F000000B7
:101DB0001F0001001E0000001E0000001E000000A9
:101DC0001E00000000060900FE070192032120FF0B
:101DD000FF08FF07FF0000000600000107070602DA
:101DE0000080808080800080030202060105A0A0A0
:101DF0000507070600005050F850F8505005070737
:101E00000600002078A07028F020050707060000D3
:101E1000C0C810204098180507070600006090A071
:101E200040A89068020303060104C040800307072E
:101E30000601002040808080402003070706010043
:101E40008040202020408005050506000120A87064
:101E5000A8200505050600012020F8202002030324
:101E60000602FFC04080050101060003F8020202DD
:101E7000060200C0C00505050600010810204080CC
:101E800005070706000070888888888870030707A0
:101E900006010040C040404040E005070706000042
:101EA000708808708080F8050707060000F8102089
:101EB000100808F005070706000010305090F810D1
:101EC00010050707060000F880F00808887005076D
:101ED00007060000708080F08888700507070600FC
:101EE00000F8081020202020050707060000708851
:101EF0008870888870050707060000708888780851
:101F00000870020505060200C0C000C0C002060637
:101F10000602FFC0C000C040800407070600001092
:101F2000204080402010050303060002F800F8045A
:101F300007070601008040201020408005070706A3
:101F400000007088081020002005070706000070B8
:101F5000880868A8A870050707060000708888F838
:101F6000888888050707060000F08888F08888F0D0
:101F700005070706000070888080808870050707C5
:101F8000060000F08888888888F0050707060000AA
:101F9000F88080F08080F8050707060000F8808050
:101FA000F0808080050707060000708880B8888868
:101FB00070050707060000888888F8888888010768
:101FC0000706020080808080808080050707060069
:101FD0000038101010109060050707060000889068
:101FE000A0C0A09088050707060000808080808040
:101FF00080F805070706000088D8A8888888880523
:1020000007070600008888C8A8988888050707067B
:10201000000070888888888870050707060000F02F
:102020008888F0808080050707060000708888880F
:10203000A89068050707060000F08888F0A090883F
:10204000050707060000788080700808F00507077C
:10205000060000F8202020202020050707060000A9
:10206000888888888888700507070600008888881F
:10207000888850200507070600008888888888A877
:1020800050050707060000888850205088880507FB
:1020900007060000888888502020200507070600D2
:1020A00000F80810204080F8030707060100E080D0
:1020B00080808080E0050505060001804020100832
:1020C000030707060100E02020202020E00503038D
:1020D000060004205088050101060000F8020202F3
:1020E000060205804005050506000070087888781E
:1020F0000507070600008080B0C88888F005050540
:102100000600007080808870050707060000080838
:1021100068988888780505050600007088F8807042
:102120000507070600003048E0404040400506062D
:102130000600FF7088887808700507070600008091
:1021400080B0C88888880107070602008000808068
:102150008080800308080601FF200020202020A0A6
:1021600040040707060000808090A0C0A0900307ED
:1021700007060100C04040404040E005050506005C
:1021800000D0A8A8A8A8050505060000B0C8888842
:102190008805050506000070888888700506060613
:1021A00000FFF08888F080800506060600FF78882A
:1021B00088780808050505060000B0C880808005FD
:1021C000050506000070807008F00407070600008F
:1021D0004040E04040403005050506000088888802
:1021E00098680505050600008888885020050505C3
:1021F0000600008888A8A85005050506000088503C
:102200002050880506060600FF8888887808700533
:102210000505060000F8102040F803070706010036
:102220002040408040402001070706020080808057
:1022300080808080030707060100804040204040E6
:1022400080050202060002689000000006000000FF
:10225000000006000000000006000000000006006C
:102260000000000006000000000006000000000062
:10227000060000000000060000000000060000004C
:10228000000006000000000006000000000006003C
:102290000000000006000000000006000000000032
:1022A000060000000000060000000000060000001C
:1022B000000006000000000006000000000006000C
:1022C0000000000006000000000006000000000002
:1022D00006000000000006000000000006000000EC
:1022E00000000600000000000600000000000600DC
:1022F00000000000060000000000060000000000D2
:1023000006000000000006000000000006000000BB
:1023100000000600000107070602008000808080A0
:1023200080800507070600002070A8A0A87020057F
:102330000707060000304040E04050A805050506AC
:10234000000088705070880507070600008850203C
:10235000F820F820010707060200808080008080B6
:102360008005080806000030482050502090600387
:102370000101060107A0050707060000F888B8B8A4
:10238000B888F8050707060001700878887800F813
:102390000505050600012850A05028050303060086
:1023A00001F8080802020206020640800507070637
:1023B0000000F888A88898A8F8050101060006F82A
:1023C00004040406000360909060050707060000FF
:1023D0002020F8202000F804050506000360902066
:1023E00040F0030505060003E020E020E0020202C1
:1023F00006020640800508080600FF88888888983D
:10240000E880800507070600007898987818181863
:10241000020202060202C0C00202020602FF40805F
:1024200003050506000340C04040E005070706001D
:1024300001708888887000F8050505060001A05025
:102440002850A00507070600008890A858B808087B
:102450000507070600008890B84898203805080846
:10246000060000C040C048D8380808050707060025
:1024700000200020408088700508080600004020E9
:10248000007088F888880508080600001020007091
:1024900088F888880508080600002050007088F831
:1024A00088880508080600006890007088F8888809
:1024B0000508080600005000708888F8888805081C
:1024C000080600002050207088F888880507070655
:1024D00000003860A0B8E0A0B80508080600FF704A
:1024E0008880808870206005080806000040200071
:1024F000F880F080F8050808060000081000F88051
:10250000F080F8050808060000205000F880F080F0
:10251000F80507070600005000F880F080F803086F
:1025200008060100804000E0404040E00308080643
:102530000100204000E0404040E0030808060100A0
:1025400040A000E0404040E0030707060100A00073
:10255000E0404040E0050707060000704848E848B2
:10256000487005080806000068900088C8A8988888
:1025700005080806000040207088888888700508D3
:1025800008060000102070888888887005080806F2
:102590000000205000708888887005080806000038
:1025A0006890007088888870050808060000500050
:1025B00070888888887005050506000188502050BD
:1025C000880508080600FF1070A8A8A8A870400594
:1025D0000808060000402088888888887005080858
:1025E0000600001020888888888870050808060082
:1025F0000020500088888888700508080600005070
:1026000000888888888870050808060000102088DF
:1026100050202020200509090600FFC040704848CE
:10262000704040E00408080601FF609090A0909080
:10263000E0800508080600004020007008788878CF
:102640000508080600001020007008788878050842
:1026500008060000205000700878887805080806F1
:102660000000689000700878887805070706000069
:10267000500070087888780508080600002050206F
:102680007008788878050606060000D02878A0A88B
:10269000500506060600FF70808870206005080857
:1026A0000600004020007088F880700508080600C9
:1026B000001020007088F8807005080806000020CF
:1026C00050007088F8807005070706000050007001
:1026D00088F8807003080806010080400040C04070
:1026E00040E003080806010020400040C04040E0F0
:1026F00003080806010040A00040C04040E0030776
:1027000007060100A00040C04040E00507070600A2
:1027100000A040A0107888700508080600006890A6
:1027200000B0C888888805080806000040200070AE
:1027300088888870050808060000102000708888C6
:10274000887005080806000020500070888888708E
:1027500005080806000068900070888888700507E2
:10276000070600005000708888887005050506007F
:10277000012000F800200507070600FF1070A8A838
:10278000A870400508080600004020008888889846
:1027900068050808060000102000888888986805E9
:1027A00008080600002050008888889868050707F8
:1027B000060000500088888898680509090600FF0F
:1027C000102000888888F808700407070601FFC0F9
:1027D0004060506040E00508080600FF500088880F
:1027E0008878087000060900FE000000000001095A
:1027F0000008FE000005080806000040F0C88888B0
:10280000987810050808060000C0F888888888882D
:10281000F80505050600012030F8302005080806F7
:1028200000002070F820202020E00509090600FFA4
:102830002070A8A8B8888870200509090600FFE064
:1028400080C0B0A8283028280509090600FFF8A88C
:102850008888888888A8F8050A0A0600FE20505053
:10286000505088A8A8887003030306000340A040C6
:102870001FFFFFFFFFFFFF600000000001FF40009F
:1028800000000000FF8000000000007F83CF0000F8
:102890000C303F87FF80000C301F867980000C00D1
:1028A0000F8C30C7838C30E78C30CFC7CC31F38CA2
:1028B00030DCECEC33B98C30D86C6C33198C30D004
:1028C0006C0C33198C30D86C0C33198C30DC6C0EDA
:1028D0003B198C30CF7C079F198C30C77C038F1934
:1028E00040000000000002600000000000061FFF22
:1028F000FFFFFFFFF85A00590058000920000000B0
:10290000000000000000000000007FFFE000000069
:102910000000000000000000007000E00000000067
:10292000000000000000000061F8600000000000EE
:102930000000000000000041F8200000000000003E
:1029400000000000000040F0200000000000000037
:1029500000000000004060200000000000000000B7
:10296000000000005801A07F80000000000000006F
:102970000000005C63A0FFC0000000000000000039
:1029800000005EF7A0FFC000000000000000000093
:10299000005EF7A0FFC00000000000000000000083
:1029A0005C63A07F80000000000000000000005871
:1029B00001A07F80000000000000000000004060D7
:1029C00020FFC00000000000000000000040F020D8
:1029D000FFC00000000000000000000041F820FFE0
:1029E000C00000000000000000000061F8603F002F
:1029F000000000000000000000007000E01E000069
:102A00000000000000000000007FFFE00C0000005C
:102A100000000000000000000000000000000000B6
:102A2000000000000000007FFFE000000000000048
:102A30000000000000007000E00000000000000046
:102A40000000000000630C600000000000000000B7
:102A500000000000470E2000000000000000000001
:102A60000000004F0F2000000000000000000000E8
:102A700000005F0FA0000000000000000000000048
:102A8000005E07A07F800000000000000000000042
:102A9000406020FFC0000000000000000000004077
:102AA000F020FFC00000000000000000000040F027
:102AB00020FFC00000000000000000000040602077
:102AC0007F80000000000000000000005E07A07F83
:102AD00080000000000000000000005F0FA0FFC0A9
:102AE000000000000000000000004F0F20FFC000A9
:102AF000000000000000000000470E20FFC00000A2
:102B00000000000000000000630C603F00000000B7
:102B1000000000000000007000E01E000000000047
:102B20000000000000007FFFE00C0000000000003B
:102B30000000000000000000436F6E74726F6C00B4
:102B4000507265706172617200416A75737461726E
:102B500000496E666F726D6163696F6E00466C75D9
:102B60006A6F00466C756A6F0056656E74696C61B9
:102B7000646F720056656E74696C61646F720042B6
:102B80006F7175696C6C6100426F7175696C6C6115
:102B90000056656C6F63696461640056656C6F63B1
:102BA00069646164004D656E75207072696E636959
:102BB00070616C004D34323800456E667269617226
:102BC0000050726563616C656E746172204142539E
:102BD0000050726563616C656E74617220504C4187
:102BE000004D383400417061676172206D6F746F01
:102BF000726573004D6F76657220656A6573004774
:102C000032380A47323900473239004E6976656CEE
:102C1000617220706C617461666F726D6100416AEF
:102C200075737461722064657366617365730047C0
:102C30003238004C6C6576617220616C206F72696D
:102C400067656E004D656E75207072696E636970A0
:102C5000616C0070012C0190012701B0012201C0BC
:102C6000011D01F00118011002130130020E016074
:102C700002090190020401C002FF000003FA0040B3
:102C800003F5008003F000D003EB002004E60070A1
:102C900004E100E004DC004005D700C005D200409C
:102CA00006CD00D006C8008007C3003008BE00F083
:102CB00008B900C009B400B00AAF00B00BAA00D038
:102CC0000CA500000EA000500F9B00C010960050F5
:102CD00012910000148C00C0158700B0178200B05C
:102CE000197D00D01B7800001E730040206E0090FC
:102CF000226900F024640040275F0090295A00E018
:102D00002B5500102E500020304B0010324600E0B2
:102D100033410090353C001037370070383200A046
:102D2000392D00B03A2800A03B2300603C1E001063
:102D30003D1900903D1400103E0F00703E0A00C087
:102D40003E0500003F0000526573656E643A200046
:102D50006F6B004E414E494E495459494E46CDCCB9
:102D6000CC3D0AD7233C17B7D13877CC2B32959579
:102D7000E6241FB14F0A000020410000C842004075
:102D80001C4620BCBE4CCA1B0E5AAEC59D74A3B1D6
:102D900011241FBECFEFD1E2DEBFCDBF00E00CBFDC
:102DA00014E0A0E0B2E0E6EDFCE701E00BBF02C0FA
:102DB00007900D92A831B107D9F72FE0A8E1B4E050
:102DC00001C01D92AD35B207E1F716E1C8ECD6E1BE
:102DD00000E006C021970109802FFE010E94ACB2DD
:102DE000C73CD10780E00807A9F70E94C2AA0C944B
:102DF00069BE0C9400002F923F924F925F926F92A7
:102E00007F928F929F92AF92BF92CF92DF92EF927A
:102E1000FF920F931F93CF93DF93CDB7DEB7C45AC2
:102E2000D1090FB6F894DEBF0FBECDBF00912106C9
:102E300020E6029F80011124095D1B4F1093A80515
:102E40000093A7058091CE0780FF18C0E6E7FEE05B
:102E500084917F013FEFE31AF30A882321F00E9457
:102E60002D78F701F5CFD8018D918D01882319F0C8
:102E70000E942D78F8CF8AE00E942D782091A70536
:102E80003091A805F90180812F5F3F4F8032D1F347
:102E9000F093A805E093A7058E3469F01091A7057B
:102EA0000091A8056AE270E0812F902F0E94CFB5B3
:102EB0000097D1F420C0818190ED980F9A3010F0E6
:102EC0008D3261F73296DF0131962C9120532A30F2
:102ED000D0F3CD01FC01019620812032D9F3F0938B
:102EE000A805E093A705DACFFC01319682918032E4
:102EF00031F08A3221F0A12FB02F9D9102C01082B3
:102F0000F5CFFD01808111968032D9F380538A304C
:102F100020F0E6E7FEE00C946831E12CF12C2AE089
:102F20002E9DB0012F9D700D11247B01B0E3EB1A93
:102F3000F1088191E80EF11C87FDFA94808180539D
:102F40008A3070F38F013196D8018C918032D1F3A1
:102F5000109326040093250421E030E03093B80557
:102F60002093B7059D3411F40C941122943511F47B
:102F70000C940930973411F00C942130BCE1EB161D
:102F8000F10409F494C790F4F4E0EF16F10438F476
:102F900080911C0222E0E216F10450F13FC134E0BE
:102FA000E316F10409F445C70C945F314AE5E416D1
:102FB000F10411F40C944F2168F48DE1E816F1044A
:102FC00009F4C8C79EE1E916F10411F40C944820F5
:102FD0000C945F31ABE5EA16F10411F40C94532123
:102FE000BCE5EB16F10411F40C9458210C945F31FC
:102FF000882311F40C945F310E94903E81EC95E09F
:103000000E9425A80E9422788091CE0783FD93C05C
:10301000C090CD05D090CE05E090CF05F090D005C2
:103020002091FC053091FD054091FE055091FF0572
:10303000C701B6010E944FBA882309F47CC0809171
:10304000C907811134C02091460230914702409156
:1030500048025091490260910B0E70910C0E8091C4
:103060000D0E90910E0E0E944FBA87FF20C0C092A5
:10307000FC05D092FD05E092FE05F092FF05E6E723
:10308000FEE084918F010F5F1F4F882321F00E9483
:103090002D78F801F6CFEBE3F3E084918F010F5F19
:1030A0001F4F882321F00E942D78F801F6CFC090A1
:1030B000CD05D090CE05E090CF05F090D0052091C1
:1030C000FC053091FD054091FE055091FF05C701BB
:1030D000B6010E94BCB20E9429B497FF07C0909528
:1030E0008095709561957F4F8F4F9F4F693C71051B
:1030F0008105910504F1C092FC05D092FD05E09296
:10310000FE05F092FF05E6E7FEE084918F010F5F78
:103110001F4F882321F00E942D78F801F6CFECE1B3
:10312000F3E084918F010F5F1F4F882321F00E94ED
:103130002D78F801F6CF2091C1053091C20540915C
:10314000C3055091C4056091F0057091F10580911F
:10315000F2059091F3050E944FBA81111DC0209194
:10316000C5053091C6054091C7055091C8056091CD
:10317000F4057091F5058091F6059091F7050E9490
:103180004FBA811109C060910002709101028091D3
:103190000202909103023CC08091C80760915C02DA
:1031A00070915D028823F1F0072E000C880B990BBB
:1031B0000E9456BA20910002309101024091020211
:1031C000509103020E94B5BA2AE037ED43E25CE376
:1031D0000E94B5BA2FEF3FEF4FEF5FEF0E94594BC0
:1031E0000C945F31072E000C880B990B0E9456BA85
:1031F000209100023091010240910202509103029D
:103200000E94B5BA2AE037ED43E25CE30E94B5BA0A
:103210000E94E8410E94DE410C945F31882311F442
:103220000C945F3111E0E2E0EE16F10409F010E0D9
:103230000E94903E82E50E94C176882309F45CC119
:103240000E9454776B017C014090F0055090F1058D
:103250006090F2057090F3052091F4053091F5052A
:103260004091F6055091F70564962CAF3DAF4EAFF7
:103270005FAF64978091C1059091C205A091C3058D
:10328000B091C40568968CAF9DAFAEAFBFAF6897E5
:103290002091C5053091C6054091C7055091C805DC
:1032A0006C962CAF3DAF4EAF5FAF6C9720E030E037
:1032B000A901C701B6010E944FBA882309F49FC52E
:1032C000A301920168966CAD7DAD8EAD9FAD689700
:1032D0000E944FBA811111C064962CAD3DAD4EAD28
:1032E0005FAD64976C966CAD7DAD8EAD9FAD6C9708
:1032F0000E944FBA882309F482C520E030E0A9017A
:10330000C701B6010E944FBA881F8827881F18136B
:103310000BC080E090E0A0E8BFE3E0968CAF9DAFEB
:10332000AEAFBFAFE0970AC020E030E040E85FEB0F
:10333000E0962CAF3DAF4EAF5FAFE097A301920197
:1033400068966CAD7DAD8EAD9FAD68970E94BCB2A6
:10335000A0966CAF7DAF8EAF9FAFA09764962CAD5B
:103360003DAD4EAD5FAD64976C966CAD7DAD8EADF1
:103370009FAD6C970E94BCB2A4966CAF7DAF8EAF30
:103380009FAFA497A0962CAD3DAD4EAD5FADA0977D
:10339000CA01B9010E94B5BA4B015C01A4962CADDB
:1033A0003DAD4EAD5FADA497CA01B9010E94B5BA5B
:1033B0009B01AC01C501B4010E94BDB20E946BB576
:1033C000A8966CAF7DAF8EAF9FAFA89720E030E09E
:1033D00040E05FE30E94B5BA4B015C01A701960192
:1033E000C701B6010E94B5BA6B017C01A501940129
:1033F000C501B4010E94B5BA9B01AC01C701B60179
:103400000E94BCB20E946BB59B01AC01E0966CAD12
:103410007DAD8EAD9FADE0970E94B5BA4B015C01CA
:1034200068962CAD3DAD4EAD5FAD6897C301B2015E
:103430000E94BDB220E030E040E05FE30E94B5BAF8
:103440006B017C01A4966CAD7DAD8EAD9FADA49754
:103450009058A8962CAD3DAD4EAD5FADA8970E949B
:10346000B7B39B01AC01C501B4010E94B5BA9B0181
:10347000AC01C701B6010E94BDB2A30192010E9436
:10348000BCB26B017C016C962CAD3DAD4EAD5FAD19
:103490006C9764966CAD7DAD8EAD9FAD64970E94C8
:1034A000BDB220E030E040E05FE30E94B5BA2B01FE
:1034B0003C01A8962CAD3DAD4EAD5FADA897A09652
:1034C0006CAD7DAD8EAD9FADA0970E94B7B39B0153
:1034D000AC01C501B4010E94B5BA9B01AC01C301A6
:1034E000B2010E94BDB264962CAD3DAD4EAD5FAD54
:1034F00064970E94BCB214C089E40E94C1768823FC
:1035000029F00E9454776B017C0103C0C12CD12C9F
:1035100076018AE40E94C1768823F9F00E945477EC
:1035200064966CAF7DAF8EAF9FAF649720E030E0C4
:10353000A901C701B6010E944FBA81111EC020E047
:1035400030E0A90164966CAD7DAD8EAD9FAD649702
:103550000E944FBA811111C052C420E030E0A9018D
:10356000C701B6010E944FBA882309F448C4649683
:103570001CAE1DAE1EAE1FAE6497A7019601C7011B
:10358000B6010E94B5BA4B015C0164962CAD3DAD0D
:103590004EAD5FAD6497CA01B9010E94B5BA9B01F7
:1035A000AC01C501B4010E94BDB20E946BB5C05808
:1035B000DF4F688379838A839B83C058D040809192
:1035C000F0059091F105A091F205B091F305A89650
:1035D0008CAF9DAFAEAFBFAFA897A7019601BC015E
:1035E000CD010E94BDB2E0966CAF7DAF8EAF9FAFB4
:1035F000E0972091F4053091F5054091F605509142
:10360000F705A0962CAF3DAF4EAF5FAFA097649685
:103610002CAD3DAD4EAD5FAD6497A0966CAD7DAD6C
:103620008EAD9FADA0970E94BDB2E8966CAF7DAF06
:103630008EAF9FAFE8978091F8059091F905A09122
:10364000FA05B091FB05AC968CAF9DAFAEAFBFAFA6
:10365000AC979C01AD016091C9057091CA0580913C
:10366000CB059091CC050E94BCB2A4966CAF7DAF07
:103670008EAF9FAFA4972091CD053091CE0540919C
:10368000CF055091D005CC57DF4F288339834A832B
:103690005B83C458D0408091FC059091FD05A091BA
:1036A000FE05B091FF05E4968CAF9DAFAEAFBFAF06
:1036B000E497A7019601505868962CAF3DAF4EAFE6
:1036C0005FAF689764968CAD9DADAEADBFAD6497AE
:1036D000B0586C968CAF9DAFAEAFBFAF6C972091DA
:1036E000C1053091C2054091C3055091C405EC96C7
:1036F0002CAF3DAF4EAF5FAFEC97E0962CAD3DAD3C
:103700004EAD5FADE097EC966CAD7DAD8EAD9FADEF
:10371000EC970E94BCB26B017C018091C505909131
:10372000C605A091C705B091C805C458DF4F88836E
:103730009983AA83BB83CC57D040E8962CAD3DAD8E
:103740004EAD5FADE897BC01CD010E94BCB24B010C
:103750005C01A701960168966CAD7DAD8EAD9FAD05
:1037600068970E94B5BA2B013C01A50194016C96A3
:103770006CAD7DAD8EAD9FAD6C970E94B5BA9B01CF
:10378000AC01C301B2010E94BDB22B013C01A501F5
:10379000940168966CAD7DAD8EAD9FAD68970E942B
:1037A000B5BA4B015C01A70196016C966CAD7DAD7D
:1037B0008EAD9FAD6C970E94B5BA9B01AC01C5015F
:1037C000B4010E94BCB2A30192010E943CB36B0100
:1037D0007C0120E030E0A9010E944FBA87FF0AC0B7
:1037E0002BED3FE049EC50E4C701B6010E94BDB2A9
:1037F0006B017C01112351F02BED3FE049EC50E4CB
:10380000C701B6010E94BCB26B017C0120E030E030
:10381000A901C701B6010E944FBA81112CC0EC96D4
:103820002CAD3DAD4EAD5FADEC97A8966CAD7DADCA
:103830008EAD9FADA8970E944FBA81111CC0C4588D
:10384000DF4F288139814A815B81CC57D040A096D7
:103850006CAD7DAD8EAD9FADA0970E944FBA81112A
:103860000AC02BED3FE049EC50E4C701B6010E94CD
:10387000BDB26B017C01C058DF4F288139814A817C
:103880005B81C058D040C701B6010E94B5BA9B0108
:10389000AC010E94B5BA4B015C01A4962CAD3DADC4
:1038A0004EAD5FADA497CA01B9010E94B5BA9B01A4
:1038B000AC01C501B4010E94BDB20E946BB54B01C1
:1038C0005C012FE632E143E85AE30E944FBA87FDDC
:1038D00092C2C501B4010E945FB40E9430B46E96DA
:1038E0007FAF6EAF6E97DB01AB2B31F4E1E0F0E020
:1038F0006E96FFAFEEAF6E976E962EAD3FAD6E97A4
:10390000B90180E090E00E9454BA4B015C019B0138
:10391000AC01C701B6010E94B7B3A8966CAF7DAFEA
:103920008EAF9FAFA897A5019401A4966CAD7DAD15
:103930008EAD9FADA4970E94B7B3C058DF4F688388
:1039400079838A839B83C058D040E4962CAD3DADEB
:103950004EAD5FADE497CC57DF4F688179818A81A6
:103960009B81C458D0400E94BCB2A50194010E9422
:10397000B7B3CC57DF4F688379838A839B83C4585E
:10398000D040A8962CAD3DAD4EAD5FADA897CA0115
:10399000B9010E94B5BA20E030E040E05FE30E9448
:1039A000B5BA9B01AC0160E070E080E89FE30E9443
:1039B000BCB2A4966CAF7DAF8EAF9FAFA497AC9610
:1039C0008CAD9DADAEADBFADAC9789879A87AB8707
:1039D000BC87E4962CAD3DAD4EAD5FADE4972D8731
:1039E0003E874F87588B60915C0270915D02072E75
:1039F000000C880B990B0E9456BA2091000230915E
:103A0000010240910202509103020E94B5BA2AE0DD
:103A100037ED43E25CE30E94B5BAAC966CAF7DAF84
:103A20008EAF9FAFAC970E94BA4F9B01AC01285359
:103A30003F4F4F4F5F4FE4962CAF3DAF4EAF5FAF60
:103A4000E49765964FAC659766965FAC6697679608
:103A50006FAC679768967FAC689722242394312CCB
:103A6000D12C44E450E04C0F5D1F485F5F4FEA9655
:103A70005FAF4EAFEA9784E490E08C0F9D1F0496F1
:103A8000EE969FAF8EAFEE976E968EAD9FAD6E9712
:103A90002816390609F45BC10E9406580E94BA4FE5
:103AA000DC01CB01E4962CAD3DAD4EAD5FADE497AE
:103AB000821B930BA40BB50BB7FD10C00E94BA4F2D
:103AC0009B01AC0128533F4F4F4F5F4FE4962CAF03
:103AD0003DAF4EAF5FAFE4970E941149D39438E1F8
:103AE0003D150CF44BC0A4962CAD3DAD4EAD5FAD75
:103AF000A4976C966CAD7DAD8EAD9FAD6C970E941A
:103B0000B5BA4B015C01A8962CAD3DAD4EAD5FAD95
:103B1000A897B201C3010E94B5BAA50194010E9401
:103B2000BDB27B018C01A4962CAD3DAD4EAD5FAD19
:103B3000A497B201C3010E94B5BA4B015C01A896DB
:103B40002CAD3DAD4EAD5FADA8976C966CAD7DAD27
:103B50008EAD9FAD6C970E94B5BA9B01AC01C501BB
:103B6000B4010E94BCB22B013C01C701D8016C9684
:103B70008CAF9DAFAEAFBFAF6C975AC0B10180E0C4
:103B800090E00E9454BAA8962CAD3DAD4EAD5FAD0D
:103B9000A8970E94B5BA4B015C010E94B2B36B01B9
:103BA0007C01C501B4010E945DB54B015C01A70118
:103BB000960168966CAD7DAD8EAD9FAD68970E9405
:103BC000B5BA2B013C01A501940164966CAD7DADA5
:103BD0008EAD9FAD64970E94B5BA9B01AC01C30145
:103BE000B2010E94BDB22B013C01A501940168966F
:103BF0006CAD7DAD8EAD9FAD68970E94B5BA4B019F
:103C00005C01A701960164966CAD7DAD8EAD9FAD54
:103C100064970E94B5BA9B01AC01C501B4010E9432
:103C2000BCB26C966CAF7DAF8EAF9FAF6C97D12C52
:103C30009201A301E0966CAD7DAD8EAD9FADE09796
:103C40000E94BDB269837A838B839C836C962CAD72
:103C50003DAD4EAD5FAD6C97E8966CAD7DAD8EAD74
:103C60009FADE8970E94BDB26D837E838F83988756
:103C7000C058DF4F288139814A815B81C058D040CC
:103C800069857A858B859C850E94BDB269877A8714
:103C90008B879C87CC57DF4F288139814A815B8194
:103CA000C458D0406D857E858F8598890E94BDB2AD
:103CB0006D877E878F87988BCE0101960E9425A8FD
:103CC000C0901F0489819A81AB81BC8128968CAFFA
:103CD0009DAFAEAFBFAF28978D819E81AF81B88574
:103CE0002C968CAF9DAFAEAFBFAF2C9789859A85D0
:103CF000AB85BC8560968CAF9DAFAEAFBFAF609714
:103D0000EA964EAD5FADEA97EE966EAD7FADEE975B
:103D1000CE018C5B9F4F0E94FB74AC96ECACFDAC6B
:103D20000EAD1FADAC979E01235F3F4FEA964EAD9F
:103D30005FADEA97EE966EAD7FADEE97CE018C5BF0
:103D40009F4F0E94F8664FEF241A340A9DCEC09010
:103D50001F048091C1059091C205A091C305B09147
:103D6000C40528968CAF9DAFAEAFBFAF28978091AA
:103D7000C5059091C605A091C705B091C8052C96C0
:103D80008CAF9DAFAEAFBFAF2C978091C90590911E
:103D9000CA05A091CB05B091CC0560968CAF9DAFC4
:103DA000AEAFBFAF609714E4812E912C8C0E9D1E98
:103DB00098E0890E911C04E4A02EB12CAC0EBD1E1F
:103DC000A4E0AA0EB11CA401B501CE018C5B9F4FEB
:103DD0000E94FB74AC96ECACFDAC0EAD1FADAC9785
:103DE0002DEC35E0A401B501CE018C5B9F4F0E9404
:103DF000F8660E94DE410E9422780C945F31E7E56C
:103E0000FDE084918F010F5F1F4F882321F00E94F6
:103E10002D78F801F6CFE6E5F3E084918F010F5F8E
:103E20001F4F882311F40C945F310E942D78F80104
:103E3000F4CF80E50E94C176882329F00E9449775B
:103E40006B017C0103C0C12CD12C760183E50E945B
:103E5000C176882321F00E947D776B017C010E944E
:103E6000DA870E9422788091B9059091BA05A091D5
:103E7000BB05B091BC05C80ED91EEA1EFB1E809181
:103E80006E02811105C060E08CE693E00E943595DA
:103E90000E94BA4FDC01CB018C199D09AE09BF0904
:103EA000B7FD02C00C945F310E941149F1CF0E940E
:103EB000DA870E94A23F0E94BE4111E010931302D4
:103EC00088E50E94C176F82E89E50E94C176082F08
:103ED0008AE50E94C176F11005C0011105C0982F36
:103EE000912705C0011102C090E001C0982F909366
:103EF000040220E1E0EFF5E0A1ECB5E001900D92C5
:103F00002A95E1F7911102C0882321F082E090E028
:103F10000E948C4780910402811102C0FF2021F091
:103F200080E090E00E948C4780910402811102C0E1
:103F3000002321F081E090E00E948C470E94887766
:103F40008091D105809313020E94A4410E94283CD5
:103F50000C945F31F090D80D81E0F8260091D90DD6
:103F600008271091DA0D1827F11002C0002319F06C
:103F7000E6E7FEE004C01111FBCF0C94833184917D
:103F80006F01BFEFCB1ADB0A882321F00E942D7846
:103F9000F601F5CFE7E9F3E084916F012FEFC21A44
:103FA000D20A882321F00E942D78F601F5CFFF2058
:103FB00069F0E5E9F3E084916F013FEFC31AD30A9A
:103FC000882321F00E942D78F601F5CF002369F0B7
:103FD000E3E9F3E084916F014FEFC41AD40A882318
:103FE00021F00E942D78F601F5CF111103C0E9E808
:103FF000F3E00DC0E1E9F3E084916F015FEFC51AD2
:10400000D50A8823A1F30E942D78F601F5CF84917B
:104010006F019FEFC91AD90A882321F00E942D78D9
:10402000F601F5CF19821A821B821C82FE01359699
:104030008FE3DF011D928A95E9F763E873E0CE0113
:1040400001960E94D3B9FF2031F061E873E0CE0100
:1040500001960E94D3B9002331F06FE773E0CE01DF
:1040600001960E94D3B9112331F06DE773E0CE01C0
:1040700001960E94D3B966E773E0CE0101960E94D3
:10408000D3B960E0CE0101960E944A950C945F314D
:1040900088E50E94C176882319F00E9454770EC0EB
:1040A00020E030E040E251E46091F0057091F105CC
:1040B0008091F2059091F3050E94BDB228966CAFF5
:1040C0007DAF8EAF9FAF289789E50E94C176882388
:1040D00019F00E9454770EC020E030E040E251E435
:1040E0006091F4057091F5058091F6059091F705C2
:1040F0000E94BDB26B017C0169837A838B839C83B0
:104100008091EC059091ED05A091EE05B091EF0541
:1041100064968CAF9DAFAEAFBFAF64978090C00781
:104120009090C107A090C207B090C3072091E4050A
:104130003091E5054091E6055091E70528966CAD74
:104140007DAD8EAD9FAD28970E94BCB22091B8077F
:104150003091B9074091BA075091BB070E94BCB299
:104160002091E8053091E9054091EA055091EB0571
:1041700068962CAF3DAF4EAF5FAF68972091BC07FC
:104180003091BD074091BE075091BF076C962CAF90
:104190003DAF4EAF5FAF6C9720E030E040E251E4BE
:1041A0000E94BCB22B013C0127E137EB41ED58EBFB
:1041B0000E941DB587FF02C00C945F3127E030E0FC
:1041C00048E453E4C301B2010E944FBA181614F434
:1041D0000C945F3168962CAD3DAD4EAD5FAD6897E8
:1041E000C701B6010E94BCB26C962CAD3DAD4EAD80
:1041F0005FAD6C970E94BCB220E030E040E251E439
:104200000E94BCB26B017C0127E137EB41ED58EB1A
:104210000E941DB587FF02C00C945F3127E030E09B
:1042200048E453E4C701B6010E944FBA181614F4CB
:104230000C945F3120E030E0A90164966CAD7DAD57
:104240008EAD9FAD64970E94BDB2A50194010E94FE
:10425000BDB264962CAD3DAD4EAD5FAD64970E948E
:10426000BCB2A50194010E94BCB26B017C0127E1A4
:1042700037EB41ED58EB0E941DB587FF02C00C944F
:104280005F3127E030E048E453E4C701B6010E9403
:104290004FBA181614F40C945F310C947B351092BD
:1042A00024040C945F3181E0809324040C946031E9
:1042B00085E40E94C176B82E811102C00E94DA877F
:1042C00087EB882E82E0982E90EFC92E95E0D92EAC
:1042D00028EBE22E27E0F22E00E010E0A12CD40122
:1042E0008D914D010E94C176882309F44EC0F601DC
:1042F0002081318142815381CF55DF4F2883C15ABC
:10430000D040CE55DF4F3883C25AD040CD55DF4F15
:104310004883C35AD040CC55DF4F5883C45AD0404D
:104320000E945477D6016D937D938D939C93139740
:10433000CF55DF4F2881C15AD040CE55DF4F38814D
:10434000C25AD040CD55DF4F4881C35AD040CC55DA
:10435000DF4F5881C45AD04003301105B1F00E949C
:10436000BCB29B01AC01F7016081718182819381B4
:104370000E94BDB2D7016D937D938D939C9313974B
:10438000C8010E94D577AA24A3940F5F1F4FB4E001
:10439000CB0ED11CE4E0EE0EF11C0430110509F047
:1043A0009ECFAA2019F00E94887737C0BB20A9F1C0
:1043B000C090FC05D090FD05E090FE05F090FF0553
:1043C000209158083091590840915A0850915B0843
:1043D000C701B6010E94B5BA0E942AB560936F0E5C
:1043E0007093700E8093710E9093720EC701B60198
:1043F0000E9429B42FB7F89460933E0670933F064D
:1044000080934006909341062FBF10925F0E10924A
:10441000600E1092610E1092620E0E94283C0C9465
:104420005F31F8E7EF16F10411F40C94E32908F07A
:10443000A9C03CE5E316F10409F4E9C608F061C03F
:104440005BE4E516F10409F43BC3F0F491E1E916ED
:10445000F10409F4E2C138F4B2E0EB16F10408F417
:1044600069C10C945F31EFE1EE16F10409F4E7C184
:10447000FAE2EF16F10409F4DDC222E1E216F104DA
:1044800011F00C945F3194C632E5E316F10409F49F
:1044900086C630F55DE4E516F10409F42FC308F48F
:1044A00013C391E5E916F10411F00C945F310E94F9
:1044B00012560E94DA870E94944810929E0710922A
:1044C0009D0768EE73E080E090E00E94804F60E01E
:1044D00084E695E00E9435950E945B950C945F31CF
:1044E000A4E5EA16F10409F463C608F45CC6E5E540
:1044F000EE16F10411F00C945F310E94DE3D0C9435
:104500005F31FEE6EF16F10409F440C3D0F43AE659
:10451000E316F10409F40EC660F458E6E516F1045A
:1045200009F4F0C289E6E816F10409F435C40C94E4
:104530005F319CE6E916F10409F4E1C308F41DC6F5
:1045400048C4B2E7EB16F10409F465C640F4F0E79D
:10455000EF16F10409F4D7C308F434C3D8C335E720
:10456000E316F10409F467C647E7E416F10409F419
:1045700068C653E7E516F10411F00C945F31E7E7E4
:10458000F5E04DC68DE2E81681E0F80609F441C772
:1045900008F058C0ACECEA16F10409F428C730F56D
:1045A000E1E9EE16F10409F419C760F429E7E2160F
:1045B000F10409F40EC73CE8E316F10409F4D3C38F
:1045C0000C945F3149ECE416F10409F40AC75BEC82
:1045D000E516F10409F408C788ECE816F10411F0B7
:1045E0000C945F310E94DB3B0C945F319CEDE9162B
:1045F000F10409F405C788F4BEECEB16F10409F4E4
:10460000FCC608F4F7C6F3EDEF16F10411F00C94B4
:104610005F310E942B3A0C945F3122EEE216F104D6
:1046200009F4F1C63CE2E31631E0F30609F4EEC604
:104630004DEDE416F10411F00C945F310E94043A40
:104640000C945F3154EAE51651E0F50611F40C9430
:104650002D2E60F590E9E91691E0F90611F40C941D
:10466000222E78F4BEE2EB16B1E0FB0609F470C727
:10467000EFE2EE16E1E0FE0611F40C94192B0C9417
:104680005F31F2E9EF16F1E0FF0611F40C94292EE8
:1046900010F40C94252E3AE9E31631E0F30611F0FC
:1046A0000C945F310E9454390C945F3146EFE4164C
:1046B00041E0F40611F40C94B02F28F584EFE816CD
:1046C00081E0F80611F40C94912F10F00C94AA2FAD
:1046D000ACEAEA16A1E0FA0611F00C945F3180EF23
:1046E000282E85E0382EA4EEB5E06296BFAFAEAFBF
:1046F0006297E8EDFDE06696FFAFEEAF669700E0EB
:1047000010E00C94872EB3E5EB16B3E0FB0611F432
:104710000C94BF2FE7EEEE16E3E0FE0611F40C94C6
:10472000F82FF7EFEF16F1E0FF0611F00C945F3170
:104730000C94B32F80E50E94C176882361F00E941B
:1047400049776B017C01BB24B394672B682B692BE1
:1047500031F4B12C04C0B12CC12CD12C760183E5ED
:104760000E94C176882399F00E947D776B017C01BD
:10477000B1100FC0672B682B692B59F4D8018C91AD
:10478000882339F061E0C8010E944A9507C0BB2028
:10479000A9F360E08CE594E00E94359581E0809378
:1047A0006A0D83E090E09093B8058093B7050E946E
:1047B000DA870E942278C114D104E104F104E9F0FF
:1047C0008091B9059091BA05A091BB05B091BC0547
:1047D000C80ED91EEA1EFB1E0E94BA4FDC01CB0197
:1047E0008C199D09AE09BF09B7FF13C080916A0DEE
:1047F000882379F00E941149EFCF80916A0D8823B8
:1048000019F00E941149F9CF60E08AE494E00E9417
:10481000359510926A0D0C945F3160E08EE694E05D
:104820000E9435955F988A989FB7F8948091080107
:104830008E7F809308019FBF12980C945F31809106
:10484000930E9091940E019719F40E94BA4F08C0EC
:1048500060919D0E70919E0E80919F0E9091A00E82
:104860000091990E10919A0E20919B0E30919C0E02
:10487000601B710B820B930B28EE33E040E050E09D
:104880000E942DBE8091950E9091960EA091970E4C
:10489000B091980EBC01CD01620F731F841F951F4C
:1048A0000CE3C02ED12CE12CF12CA70196010E9423
:1048B0002DBE762E672ECA01B901A70196010E946E
:1048C0002DBE6B017C01CA01B90128E130E040E056
:1048D00050E00E942DBE4B015C01C9016DE671E004
:1048E0000E9465B28E010F5F1F4F6115710599F02F
:1048F0006F927F92DF92CF929F928F929F938F932E
:104900007F936F9385EA94E09F938F931F930F9308
:104910000E941FBA12C00097B1F06F927F92DF928F
:10492000CF929F928F929F938F9385E994E09F936C
:104930008F931F930F930E941FBA0FB6F894DEBF98
:104940000FBECDBF36C081149104A104B10479F02B
:104950006F927F92DF92CF929F928F9289E894E03C
:104960009F938F931F930F930E941FBAE6CFC1149A
:10497000D104E104F10469F06F927F92DF92CF924B
:1049800081E894E09F938F931F930F930E941FBA27
:10499000D4CF6F927F928DE794E09F938F931F9374
:1049A0000F930E941FBA0F900F900F900F900F90CF
:1049B0000F9060E0C8010E944A95E6E7FEE084910E
:1049C0007F019FEFE91AF90A882321F00E942D78D0
:1049D000F701F5CFB80189EB94E00E9434788AE0C2
:1049E0000E942D7880919C07882311F40C945F31EC
:1049F00010929C076091090E70910A0E072E000C10
:104A0000880B990B0E9456BA20913A0230913B02D2
:104A100040913C0250913D020E941DB5181614F0C1
:104A20000C945F3110920A0E1092090E0E9452A24D
:104A30000C945F3183E50E94C176882311F40C94B5
:104A40005F310E943C777C018F3F910519F010F097
:104A50000C945F3180E50E94C176882339F00E9472
:104A60003C778C0197FF04C00C945F310DE010E09F
:104A7000D02EEBEBF2E0C801992721913191281754
:104A8000390731F0B3E0EB30FB07B9F70C94F2359E
:104A900007E51DE0F8018491882329F00F5F1F4F7F
:104AA0000E942D78F7CF06EC14E0F801849188235A
:104AB00011F40C945F310F5F1F4F0E942D78F5CFDA
:104AC0000E94CEA40C945F318091930E9091940E2D
:104AD000019711F00C945F3182E090E09093940E76
:104AE0008093930E0E94BA4F60939D0E70939E0E1A
:104AF00080939F0E9093A00E0C945F310E9441A36F
:104B00000C945F3188E690E00E94917981110C94B9
:104B10005F318091CE0783FF02C00C945F3183E543
:104B20000E94C176882371F10E9454770E9429B4B3
:104B300070930A0E6093090E0E9452A20E9454774D
:104B400020E030E040E451E40E944FBA18163CF0F7
:104B50000E9441A360E083EE94E00E9435950E949C
:104B6000547720910B0E30910C0E40910D0E509108
:104B70000E0E0E941DB518162CF460E085ED94E031
:104B80000E9435950E945BAF0C945F318EE40E94C9
:104B9000C176882311F40C945F31809118049091B0
:104BA00019044AE050E060E070E001960E9468B7A6
:104BB00060931A0470931B0480931C0490931D044B
:104BC0000C945F3183E50E94C176882319F00E941E
:104BD000D47601C080E08093CE07E6E7FEE08491C2
:104BE0008F010F5F1F4F882321F00E942D78F8015D
:104BF000F6CFE3E0F5E084918F010F5F1F4F88232C
:104C000021F00E942D78F801F6CF8091CE078823FD
:104C1000A1F115EFC12E14E0D12EE12CF12C20E0F2
:104C20008091CE0790E00E2C02C0959587950A944E
:104C3000E2F780FF17C0BB24B394B20E222319F011
:104C40008CE20E942D78F60125913491F90184912E
:104C500089010F5F1F4F882321F00E942D78980152
:104C6000F5CF2B2DFFEFEF1AFF0A32E0C30ED11C58
:104C700045E0E416F104A1F63DC0EFEFF4E08491C5
:104C80008F010F5F1F4F8823A9F10E942D78F80133
:104C9000F6CF80E20E942D788AE50E94C1768823B3
:104CA00011F40C94EA2F0E9454776B017C0120E0F0
:104CB00030E040EA51EC0E941DB587FF02C00C9421
:104CC000D92F20E030E040EA51E4C701B6010E944C
:104CD0004FBA181614F40C94D92FC092A008D09291
:104CE000A108E092A208F092A30842E0C701B60131
:104CF0000E94657B8AE00E942D780C945F311092AF
:104D000009020C945F318AE095E00E94A54883E592
:104D10000E94C176882369F00E94D47680930A02AB
:104D20008D3310F40C945F318CE380930A020C9461
:104D30005F31E6E7FEE084918F010F5F1F4F88230C
:104D400021F00E942D78F801F6CF40910A0250E040
:104D500060E070E08FE195E00E943F798AE00E9478
:104D60002D780C945F318091CE0783FF02C00C94A4
:104D70005F3183E50E94C176882311F40C945F3182
:104D80000E9454770E9429B47093430660934206B0
:104D90000E94C2550C945F3189E690E00E9491799F
:104DA000811111C0E6E2F5E084918F010F5F1F4F82
:104DB000882321F00E942D78F801F6CF0E94483E0A
:104DC0008AE00E942D781092B8051092B7050C94D5
:104DD000DB378DE690E00E94917981110C945F3170
:104DE0008091CE0783FF02C00C945F3183E50E945F
:104DF000C17669968FAF6997811105C082E50E94DF
:104E0000C1768823C1F10E9454770E9429B470931F
:104E10000A0E6093090E0E9452A20E94547720E06D
:104E200030E040E451E40E944FBA181614F40C9498
:104E300007360E9441A360E082E595E00E94359527
:104E40006091090E70910A0E072E000C880B990BC9
:104E50000E9456BA20910B0E30910C0E40910D0E0F
:104E600050910E0E0E941DB518162CF460E084E4DB
:104E700095E00E9435950E945BAF81E08093090226
:104E80001092B8051092B70568961CAE1DAE1EAE06
:104E90001FAE6897A8961CAE1DAE1EAE1FAEA8979B
:104EA00061961FAE61976D961FAE6D975CE3A196FC
:104EB0005FAFA1978CE1AD968FAFAD9796E4E59685
:104EC0009FAFE597C12CD12CA0E8EA2EBFEBFB2EBB
:104ED000812C912C54016091090E70910A0E072EBD
:104EE000000C880B990B0E9456BA162F072F782EAC
:104EF000692E262F372F482F592FB601C7010E9440
:104F00004FBA882341F120910B0E30910C0E409145
:104F10000D0E50910E0E612F702F872D962D0E9431
:104F20004FBA881F8827881F61968FAF619769964F
:104F3000AFAD6997AA2399F0882389F0809109027F
:104F4000882311F40C945F3160E089E295E00E94BF
:104F500035950C945F311C2D0D2D7E2C6F2C0E94ED
:104F6000BA4F6B017C01DC01CB01A8962CAD3DADA5
:104F70004EAD5FADA897821B930BA40BB50BB7FD8D
:104F800047C0D701C60188519C4FAF4FBF4FA8966D
:104F90008CAF9DAFAEAFBFAFA8970E94483EE0E494
:104FA000F5E084912F019FEF491A590A882321F0D7
:104FB0000E942D78F201F5CF81149104A104B1046F
:104FC000D1F0D501C401805F984DAF4FBF4FBC01F8
:104FD000CD016C197D098E099F0928EE33E040E070
:104FE00050E00E942DBECA01B9010E945C798AE09E
:104FF0000E942D780DC0EDE3F5E084912F01AFEF15
:105000004A1A5A0A882321F00E942D78F201F5CF1E
:105010000E9411490E94227820900B0E30900C0EB5
:1050200040900D0E50900E0E9101A201612F702F35
:10503000872D962D0E94BCB29F7781149104A10404
:10504000B10449F420E030E040E85FE30E944FBA49
:1050500087FF0BC008C020E030E040E450E40E942D
:105060001DB5181614F4460157016196BFAD61973E
:10507000BB2309F443C068962CAD3DAD4EAD5FAD8A
:105080006897211531054105510541F0D701C60149
:10509000821B930BA40BB50BB7FD30C09101A2018D
:1050A0006D966FAD6D97A1967FADA197AD968FADC3
:1050B000AD97E5969FADE5970E94BCB220E030E049
:1050C00040EC5FE30E944FBA87FD38CFD701C6019D
:1050D000805A9541AF4FBF4F68968CAF9DAFAEAF32
:1050E000BFAF68976D962FAE6D97A1963FAEA19713
:1050F000AD964FAEAD97E5965FAEE597809109020C
:10510000882309F41BCF81149104A104B10429F46C
:10511000C12ED02EE72CF62CDECE90E1C91A97E2F4
:10512000D90AE108F108C818D908EA08FB08F7FE0F
:1051300005CFEECF83E50E94C176882321F00E943F
:105140002F778C0102C00FEF10E080E50E94C1763E
:10515000882331F00E942F77892B11F00C945F3156
:1051600098010F3F110519F010F02FEF30E0309348
:105170009E0720939D070C945F3180E50E94C176C5
:10518000811106C010929E0710929D070C945F310A
:105190000E942F77892B11F00C945F31F3CF10927E
:1051A00023040C945F3181E0809323040C946031DC
:1051B00083E50E94C176882361F00E947D77609329
:1051C0000B0270930C0280930D0290930E020C94CC
:1051D0005F3188E50E94C17681110C940B3689E518
:1051E0000E94C17681110C940B368AE50E94C1762B
:1051F00081110C940B3685E40E94C17681110C94C8
:105200000B360E94DA870E9494480C945F310E940A
:10521000403D0C945F310E94283C0C945F31849196
:105220008F010F5F1F4F882311F40C945F310E9490
:105230002D78F801F4CF60E0C8010E944A950C94E3
:105240005F31E1E7F6E084918F010F5F1F4F882304
:1052500021F00E942D78F801F6CFE9E6F6E084917E
:105260008F010F5F1F4F882321F00E942D78F801D6
:10527000F6CF659B03C007E713E002C00CE713E01D
:10528000D8018D918D01882319F00E942D78F8CFD7
:105290008AE00E942D78E1E6F6E084918F010F5FAD
:1052A0001F4F882321F00E942D78F801F6CF649BD0
:1052B00003C007E713E002C00CE713E0F801819197
:1052C0008F01882319F00E942D78F8CF8AE00E9480
:1052D0002D78E9E5F6E084918F010F5F1F4F882359
:1052E00021F00E942D78F801F6CF8091030181FF13
:1052F00003C007E713E002C00CE713E0D8018D916B
:105300008D01882319F00E942D78F8CF8AE00E9441
:105310002D78E1E5F6E084918F010F5F1F4F882320
:1053200021F00E942D78F801F6CF8091030180FFD3
:1053300003C007E713E002C00CE713E0F801819116
:105340008F01882319F00E942D78F8CF8AE00E94FF
:105350002D78E9E4F6E084918F010F5F1F4F8823D9
:1053600021F00E942D78F801F6CF4B9B03C007E790
:1053700013E002C00CE713E0D8018D918D01882362
:1053800019F00E942D78F8CF8AE00E942D78E1E490
:10539000F6E084918F010F5F1F4F882321F00E9458
:1053A0002D78F801F6CF4A9B03C007E713E002C04F
:1053B0000CE713E0F80181918F01882309F49ACC5E
:1053C0000E942D78F7CF81E0809313028093D1055E
:1053D00077C7109213021092D10571C70E94EE3D5B
:1053E0006EC70E94B63B6BC70E94943B68C70E9481
:1053F0002B3B65C70E94C13A62C70E94E73C5FC76A
:105400000E941F3A5CC70E94AB3959C70E94793984
:1054100056C785E40E94C176811110C080E50E94C4
:10542000C176882399F00E94547760932602709386
:105430002702809328029093290208C00E943C779B
:10544000181619065CF7E7E5FDE071C089E40E94D3
:10545000C176882381F00E9454772CE933E549E432
:105460005EE30E94B5BA60932E0270932F02809380
:1054700030029093310284E40E94C176882381F047
:105480000E9454772CE933E549E45EE30E94B7B308
:1054900060932A0270932B0280932C0290932D022A
:1054A000E6E7FEE084918F010F5F1F4F882321F014
:1054B0000E942D78F801F6CF4091260250912702E4
:1054C000609128027091290283E996E00E94F77B9F
:1054D0002CE933E549E45EE360912E0270912F02DE
:1054E00080913002909131020E94B7B3AB01BC01B0
:1054F0008FE896E00E94DA7B2CE933E549E45EE32D
:1055000060912A0270912B0280912C0290912D02C1
:105510000E94B5BAAB01BC018BE896E00E94DA7B31
:105520008AE00E942D78CBC60E942D78F8018491E4
:105530008F010F5F1F4F8111F7CF0AE813E0D801E9
:105540008D918D01882309F4D5CB0E942D78F7CF5A
:1055500083E50E94C176082F8823A1F00E9454772A
:1055600060934602709347028093480290934902E9
:1055700011E020E030E0A9010E944FBA811110E053
:105580001093C90780E50E94C176182F8823A9F0DF
:1055900020E030E0A90160914602709147028091BD
:1055A0004802909149020E944FBA882319F00E9444
:1055B0000377182F1093C90782C6011180C6E6E74A
:1055C000FEE084918F010F5F1F4F882321F00E941E
:1055D0002D78F801F6CF8091C907811103C066E8E4
:1055E00073E002C069E773E08CEA96E00E943478C9
:1055F00020E030E040E05FE36091460270914702B6
:1056000080914802909149020E94BDB20E9429B443
:105610008BE996E00E947879E7E9F6E084918F01C2
:105620000F5F1F4F882309F44AC60E942D78F801A6
:10563000F5CF85E40E94C176882321F00E943C7753
:105640007C0102C0E12CF12C83E40E94C176882306
:1056500049F00E943C77C656DF4F99838883CA5928
:10566000D04008C0E5E0F0E0C656DF4FF983E8839C
:10567000CA59D04085E50E94C176882341F00E9436
:105680000377C456DF4F8883CC59D04005C0C45639
:10569000DF4F1882CC59D04083E50E94C176882321
:1056A00079F00E94547769966FAF6997A5967FAF9E
:1056B000A5976D968FAF6D97A1969FAFA19710C0DC
:1056C00069961FAE6997A5961FAEA597F7FC0EC009
:1056D000F6E16D96FFAF6D9723E4A1962FAFA197EA
:1056E000E114F10459F410921E0408C03CE86D96D0
:1056F0003FAF6D9742E4A1964FAFA1971092B805C6
:105700001092B7050E94BA4F4B015C01EF2819F4C3
:105710000BE913E00EC00EEA13E0D8018D918D0164
:10572000882319F00E942D78F8CF8AE00E942D7806
:10573000C6C5F80181918F01882319F00E942D7848
:10574000F8CF8AE00E942D780E9412568FE780934E
:10575000460681E080930902CE56DF4F8882998207
:10576000AA82BB82C259D040C356DF4F8882998239
:10577000AA82BB82CD59D040E5961FAEE597F0E4F2
:10578000A996FFAFA9972CE1E1962FAFE19736E4F8
:10579000E9963FAFE997ED961FAEED97C058DF4F02
:1057A0001882C058D040CC57DF4F1882C458D04020
:1057B000C857DF4F1882C858D040C357DF4F1882F0
:1057C00019821A821B82CD58D040C757DF4F1882EA
:1057D00019821A821B82C958D040C12CD12C760163
:1057E000FFE74F2E512C612C712C8FE790E0A0E049
:1057F000B0E068968CAF9DAFAEAFBFAF6897CA56AA
:10580000DF4F188219821A821B82C659D04091E05C
:10581000CF56DF4F9883C159D040AE961FAE1EAE13
:10582000AE9710E000E0312C212C809109028823F2
:1058300009F401C20E94BA4F64966CAF7DAF8EAF7F
:105840009FAF649780914406882309F4EFC00E94BB
:10585000E95710910B0E00910C0E30900D0E209018
:105860000E0E212F302F432D522DED966FADED975B
:10587000C058DF4F7881C058D040CC57DF4F888167
:10588000C458D040C857DF4F9881C858D0400E94B4
:105890004FBA87FF12C0ED961FAFED97C058DF4F8C
:1058A0000883C058D040CC57DF4F3882C458D0400E
:1058B000C857DF4F2882C858D040212F302F432DA2
:1058C000522DE5966FADE597A9967FADA997E19624
:1058D0008FADE197E9969FADE9970E941DB5181627
:1058E00064F4E5961FAFE597A9960FAFA997E196E7
:1058F0003FAEE197E9962FAEE997CF56DF4FA881EB
:10590000C159D04069962FAD6997A5963FADA5972F
:105910006D964FAD6D97A1965FADA197612F702FDA
:10592000832D922DAA2309F461C00E941DB518167B
:105930000CF07CC064964CAD5DAD6EAD7FAD6497F0
:10594000481959096A097B09DB01CA018858934142
:10595000A109B109B7FD6AC068968CAD9DADAEAD29
:10596000BFAD689784199509A609B709B595A7959C
:105970009795879580934606CA56DF4F488359838B
:105980006A837B83C659D0406996BFAD6997ED960F
:10599000BFAFED97A596EFADA597C058DF4FE88351
:1059A000C058D0406D96FFAD6D97CC57DF4FF88350
:1059B000C458D040A1962FADA197C857DF4F288378
:1059C000C858D04064968CAD9DADAEADBFAD649768
:1059D000CE56DF4F88839983AA83BB83C259D040B8
:1059E000CF56DF4F1882C159D04020C00E944FBA15
:1059F00087FF1CC064968CAD9DADAEADBFAD649706
:105A0000CE56DF4F288139814A815B81C259D0400F
:105A1000821B930BA40BB50BAC01BD01485853413D
:105A20006109710977FD02C00C94343620E030E042
:105A300040EA51E469966FAD6997A5967FADA59749
:105A40006D968FAD6D97A1969FADA1970E94BDB247
:105A50009B01AC01612F702F832D922D0E941DB5EB
:105A600018166CF4E9E7F7E084918F010F5F1F4F80
:105A7000882309F424C40E942D78F801F5CF80E32F
:105A800098EFAFEFBFEFC356DF4F288139814A81CE
:105A90005B81CD59D040821B930BA40BB50B649650
:105AA0002CAD3DAD4EAD5FAD6497820F931FA41F2B
:105AB000B51FB7FD13C00E94483E8AE00E942D78B2
:105AC00064968CAD9DADAEADBFAD6497C356DF4F50
:105AD00088839983AA83BB83CD59D04064968CADCB
