:100000000C94C6160C94F7160C94F7160C94F7166D
:100010000C94F7160C94F7160C94F7160C94F7162C
:100020000C94F7160C94F7160C94F7160C94F7161C
:100030000C94F7160C9409570C94F7160C94F716B9
:100040000C94F7160C94C27A0C94F7160C94F716CD
:100050000C94F7160C94F7160C94F3490C94D6AB49
:100060000C94F7160C94F6450C94F7160C94F716AE
:100070000C94F7160C94F7160C94F7160C94F716CC
:100080000C94F7160C94F7160C94F7160C94F716BC
:100090000C94F7160C94F7160C94F7160C94F716AC
:1000A0000C94F7160C94F7160C94F7160C94F7169C
:1000B0000C94F7160C94F7160C94F7160C94F7168C
:1000C0000C94F7160C94F7160C94F7160C94F7167C
:1000D0000C94F7160C94F7160C94F7160C94F7166C
:1000E0000C94F7164E4A5E4A7D4A824A854A8A4AED
:1000F0008D4A924A954A9A4A9D4AA24AAC4A88A990
:100100008BA97AA97EA984A9C2A98FA993A999A923
:100110009DA9A1A9A7A9ABA9AFA9C2A9B5A9B9A928
:10012000BDA9F0AAF5AAFAAA04AB0EAB87AB18AB2F
:1001300020AB28AB32AB3CAB46AB55AB5FAB87AB30
:1001400069AB73AB7DAB084AD73B3BCE016E84BC39
:10015000BFFDC12F3D6C74319ABD56833DDA3D0021
:10016000C77F11BED9E4BB4C3E916BAAAABE00006A
:1001700000803F05A84CCDB2D44EB93836A9020C48
:1001800050B9918688083CA6AAAA2ABE0000008021
:100190003F000C944E4A0C943C770C94AFA90C94FD
:1001A00016B60C9418AB0C9455AB0C94DF730C94EE
:1001B000E8380C940EAB0C9499A90C9473AB0C9486
:1001C000ABA90C94854A0C9432AB0C94EBA10C9423
:1001D0007EA90C9484720C94F5AA0C9411720C9460
:1001E000C2A90C94AC4A0C94B5A90C94954A0C94F1
:1001F000924A0C94B9A90C948BA90C949D4A0C9426
:100200003CAB0C94A7A10C9493A90C94DF6C0C94B8
:1002100036510C9469AB0C94A1A90C947DAB0C9451
:100220008FA90C94E2930C9488A90C9404AB0C94C1
:1002300020AB0C947C6B0C9421910C94E36C0C948B
:10024000F9460C940F480C947D4A0C94314F0C9451
:100250007AA90C9445750C9446AB0C9414720C94CA
:1002600028AB0C94034F0C94A1550C943C8F0C9428
:100270006BA90C94F0AA0C943B750C9495550C94B6
:100280001A510C943E770C9484A90C9444510C940C
:10029000DC560C948A4A0C949A4A0C94F6750C9489
:1002A0009B550C94E16C0C945FAB0C94824A0C94BB
:1002B000A24A0C94A0760C94FAAA0C949DA90C94D2
:1002C000A7A90C9447750C9499540C9487AB0C9483
:1002D00028510C943A8F0C948F550C94538E0C9497
:1002E0001A4F0C94478A0C94BDA90C9435730C9446
:1002F0005E4A0C948D4A434F4D4D554E49434154EF
:10030000494F4E0044525952554E004552524F5299
:100310005300494E464F004543484F0020746F6FCD
:10032000206C6F6E6720657874727573696F6E20CC
:1003300070726576656E7465640A0020636F6C6424
:1003400020657874727573696F6E2070726576655A
:100350006E7465640A0047322F473320626164205F
:10036000706172616D65746572730A0020666972EE
:100370007374005A0059005800486F6D65200020C2
:1003800066697273740A005A0059005800486F6D0C
:1003900065200028422961636B00284629726F6E30
:1003A00074002852296967687400284C29656674AE
:1003B0000052756E6E696E6720696E204452592D29
:1003C00052554E206D6F64650A00473239204175E1
:1003D000746F20426564204C6576656C696E670AAF
:1003E000003F2856296572626F7365204C657665FB
:1003F0006C20697320696D706C61757369626C65DE
:100400002028302D34292E0A00205A3A2000205965
:100410003A200042656420583A20005465616D20FE
:100420004661624C6162206C697374612E00457391
:10043000706572616E646F206F7264656E657300C3
:100440002569730025696D20256973002569682079
:1004500025696D2025697300256964202569682058
:1004600025696D2025697300256979202569642037
:100470002569682025696D20256973005072696EB1
:10048000742074696D653A200050726F74656374EE
:1004900065642050696E0A0043616C656E74616E1C
:1004A000646F2E2E2E005465616D204661624C6192
:1004B00062206C697374612E00170312030B03042E
:1004C00003F6026F66660044454255473A005061A4
:1004D0007261646120646520656D657267656E6335
:1004E0006961004D3131332053006F6B0043616C03
:1004F000656E74616D69656E746F206C6973746F7D
:10050000003F0A0020573A0043616C656E74616ECB
:10051000646F2E2E2E005465616D204661624C6121
:1005200062206C697374612E005465616D204661B0
:10053000624C6162204170616761722E00464952CF
:100540004D574152455F4E414D453A4D61726C6980
:100550006E20312E312E302D5243382028476974B9
:100560006875622920534F555243455F434F4445B8
:100570005F55524C3A68747470733A2F2F676974E0
:100580006875622E636F6D2F4D61726C696E46697E
:10059000726D776172652F4D61726C696E20505279
:1005A0004F544F434F4C5F56455253494F4E3A318B
:1005B0002E30204D414348494E455F545950453AED
:1005C0005465616D204661624C6162204558545209
:1005D000554445525F434F554E543A312055554985
:1005E000443A63656465326132662D343161322D7F
:1005F000343734382D396231322D63353563363234
:100600006633363766660A007A5F6D61783A200095
:100610007A5F6D696E3A2000795F6D61783A2000EB
:10062000795F6D696E3A2000785F6D61783A2000DD
:10063000785F6D696E3A20005265706F7274696EF2
:100640006720656E6473746F702073746174757362
:100650000A004D31343520533C696E6465783E2084
:100660006F7574206F662072616E67652028302D6B
:1006700031290A0053657474696E6720547261767B
:10068000656C20416363656C65726174696F6E3A75
:10069000200053657474696E6720526574726163DB
:1006A0007420416363656C65726174696F6E3A2092
:1006B0000053657474696E67205072696E742041CE
:1006C0006363656C65726174696F6E3A200053658F
:1006D0007474696E67205072696E7420616E642054
:1006E00054726176656C20416363656C65726174F8
:1006F000696F6E3A200043290A0061626C656420CC
:10070000286D696E2074656D702000436F6C6420E5
:100710006578747275646573206172652000236466
:100720006566696E65202044454641554C545F4BD3
:1007300064200023646566696E6520204445464157
:10074000554C545F4B69200023646566696E6520D3
:100750002044454641554C545F4B7020005049445D
:10076000204175746F74756E652066696E69736873
:100770006564212050757420746865206C61737401
:10078000204B702C204B6920616E64204B642063E9
:100790006F6E7374616E74732066726F6D20626524
:1007A0006C6F7720696E746F20436F6E6669677532
:1007B000726174696F6E2E680A0050494420417559
:1007C000746F74756E65206661696C656421207450
:1007D000696D656F75740A00504944204175746FE6
:1007E00074756E65206661696C6564212054656D61
:1007F000706572617475726520746F6F20686967C7
:10080000680A00204B643A2000204B693A200020FF
:100810004B703A20000A20436C6173736963205067
:100820004944200A002054753A2000204B753A2094
:1008300000206D61783A2000206D696E3A2000201A
:10084000643A200020626961733A2000446573664F
:100850006173652061706C696361646F00457272D9
:100860003A20546F6F206661722100546F6F2066CA
:1008700061722066726F6D207265666572656E6367
:100880006520706F696E740A00454550524F4D20C7
:1008900064697361626C65640A00416374697665BA
:1008A0002045787472756465723A2000556E6B6EDF
:1008B0006F776E20636F6D6D616E643A2022006504
:1008C0006E7175657565696E672022004E6F204CEC
:1008D000696E65204E756D62657220776974682057
:1008E000636865636B73756D2C204C617374204C69
:1008F000696E653A20005061726164612064652010
:10090000656D657267656E63696100446574656EE7
:10091000696461005072696E7465722073746F70DF
:100920007065642064756520746F206572726F72E3
:10093000732E2046697820746865206572726F7224
:1009400020616E6420757365204D39393920746FCC
:1009500020726573746172742E202854656D706501
:100960007261747572652069732072657365742E87
:100970002053657420697420616674657220726505
:100980007374617274696E67290A004E6F20436840
:1009900065636B73756D2077697468206C696E652B
:1009A000206E756D6265722C204C617374204C69E9
:1009B0006E653A2000636865636B73756D206D69C1
:1009C000736D617463682C204C617374204C696E84
:1009D000653A20004C696E65204E756D6265722027
:1009E0006973206E6F74204C617374204C696E655E
:1009F000204E756D6265722B312C204C6173742012
:100A00004C696E653A20004D3131300020496E76D8
:100A1000616C696420657874727564657220000089
:100A20000048430000484300001644000000000056
:100A300000000000000000205A3A200020593A200F
:100A40000042656420583A2000203D3D3D3D002095
:100A50002020200042696C696E656172204C6576C9
:100A6000656C696E6720477269643A0A20006265A6
:100A7000640A002C2073797374656D2073746F7031
:100A800070656421204865617465725F49443A204D
:100A9000004572726F722064652074656D706572B6
:100AA000617475726100546865726D616C20527575
:100AB0006E61776179004572726F723A20616C20C5
:100AC00063616C656E7461720048656174696E671C
:100AD000206661696C6564004572726F723A2061CC
:100AE0006C2063616C656E74617200486561746945
:100AF0006E67206661696C6564004572726F723A58
:100B00002054656D70204D6178696D61004D4158CC
:100B100054454D502074726967676572656400457D
:100B200072726F723A2054656D70204D696E696DF6
:100B300061004D494E54454D502074726967676598
:100B4000726564001FFFFFFFFFFFFF6000000000F1
:100B500001FF400000000000FF8000000000007F57
:100B600083CF00000C303F87FF80000C301F867958
:100B700080000C000F8C30C7838C30E78C30CFC7DF
:100B8000CC31F38C30DCECEC33B98C30D86C6C337A
:100B9000198C30D06C0C33198C30D86C0C33198C08
:100BA00030DC6C0E3B198C30CF7C079F198C30C722
:100BB0007C038F194000000000000260000000006C
:100BC00000061FFFFFFFFFFFF84D6F76657220588C
:100BD000004D6F7665722059004D6F766572205A10
:100BE000004578747275736F72004578747275730E
:100BF0006F72004D6F766572205A004D6F76657288
:100C00002059004D6F7665722058004D6F766572E1
:100C100020656A6573004D6F76657220302E316DE8
:100C20006D004D6F76657220316D6D004D6F76658C
:100C3000722031306D6D00507265706172617200AA
:100C4000526573746175726172206D656D6F726942
:100C5000610046696C616D656E746F004D6F7669F9
:100C60006D69656E746F0054656D70657261747541
:100C70007261004D656E75207072696E6369706196
:100C80006C0050726563616C656E746172204142E4
:100C900053436F6E6669670050726563616C656E81
:100CA00074617220504C41436F6E66696700504911
:100CB000442D44005049442D44005049442D4900DE
:100CC0005049442D49005049442D50005049442D6D
:100CD00050002008204661637400200820466163AC
:100CE00074002008204D6178002008204D617800B4
:100CF0002008204D696E002008204D696E0041706B
:100D00006167617200456E63656E6465720054656B
:100D10006D7065726174757261204175746F2E001B
:100D200056656E74696C61646F720056656E7469A5
:100D30006C61646F7200426F7175696C6C61004226
:100D40006F7175696C6C6100436F6E74726F6C00CB
:100D5000426F7175696C6C6100426F7175696C6C82
:100D6000610056656E74696C61646F720056656EE1
:100D700074696C61646F720054656D706572617442
:100D80007572610002506172616461206465206562
:100D90006D657267656E63696100202D20496E760E
:100DA000616C6964206578747275646572206E7513
:100DB0006D62657220210A004572726F723A0020DE
:100DC00020506C616E6E657242756666657242791E
:100DD0007465733A20002046726565204D656D6F1D
:100DE00072793A2000436F6D70696C65643A204AED
:100DF000756C20203720323031370A00207C2041AA
:100E00007574686F723A20286775696C6C65726DCD
:100E10006F290A00323031362D31322D30362031F3
:100E2000323A303000204C61737420557064617424
:100E300065643A2000312E312E302D5243380A009D
:100E40004D61726C696E0020536F667477617265D4
:100E50002052657365740A00205761746368646F7B
:100E6000672052657365740A002042726F776E20A6
:100E70006F75742052657365740A00204578746537
:100E8000726E616C2052657365740A00506F7765ED
:100E90007255700A0073746172740A00456E64734F
:100EA000746F7073202563202563202563202563DC
:100EB00000205A3A0020593A0020583A00656E64E2
:100EC00073746F7073206869743A20006563686F8B
:100ED0003A0020746F6F206C6F6E672065787472B3
:100EE0007573696F6E2070726576656E7465640ADD
:100EF0000020636F6C6420657874727573696F6E1F
:100F00002070726576656E7465640A0045207061B4
:100F1000736F732F6D6D0045207061736F732F6D4C
:100F20006D005A207061736F732F6D6D005A2070C1
:100F300061736F732F6D6D0059207061736F732F24
:100F40006D6D0059207061736F732F6D6D005820A7
:100F50007061736F732F6D6D0058207061736F73C4
:100F60002F6D6D004163656C2E205669616A6500C6
:100F70004163656C2E205669616A65004163656C4A
:100F80002E207265747261632E004163656C2E20A1
:100F90007265747261632E004163656C2E206D6111
:100FA0007845004163656C2E206D61784500416392
:100FB000656C2E206D61785A004163656C2E206D42
:100FC00061785A004163656C2E206D61785900414B
:100FD00063656C2E206D617859004163656C2E202D
:100FE0006D617858004163656C2E206D6178580002
:100FF00056656C2E207669616A65206D696E0056B3
:10100000656C2E207669616A65206D696E00566D8B
:10101000696E00566D696E00566D61784500566DBB
:1010200061784500566D61785A00566D61785A00B6
:10103000566D61785900566D61785900566D61782A
:101040005800566D6178580056652D6A65726B00C0
:1010500056652D6A65726B00567A2D6A65726B0053
:10106000567A2D6A65726B0056792D6A65726B002F
:1010700056792D6A65726B0056782D6A65726B0021
:1010800056782D6A65726B004163656C65726163A9
:10109000696F6E004163656C65726163696F6E00B4
:1010A00044657366617365205A00446573666173B5
:1010B00065205A00436F6E74726F6C0046696C2E27
:1010C000204469612E0046696C2E204469612E001F
:1010D00041706167617200456E63656E64657200A0
:1010E0004520696E206D6D3300436F6E74726F6CB6
:1010F0000000060900FE070192032120FFFF08FF00
:1011000007FF0000000600000107070602008080BC
:101110008080800080030202060105A0A005070769
:101120000600005050F850F8505005070706000020
:101130002078A07028F020050707060000C0C8101E
:10114000204098180507070600006090A040A8906E
:1011500068020303060104C040800307070601007C
:101160002040808080402003070706010080402047
:101170002020408005050506000120A870A8200554
:1011800005050600012020F820200203030602FFC7
:10119000C04080050101060003F8020202060200B9
:1011A000C0C005050506000108102040800507079E
:1011B0000600007088888888887003070706010089
:1011C00040C040404040E005070706000070880826
:1011D000708080F8050707060000F8102010080846
:1011E000F005070706000010305090F810100507B2
:1011F00007060000F880F008088870050707060059
:1012000000708080F0888870050707060000F808E5
:1012100010202020200507070600007088887088AD
:101220008870050707060000708888780808700233
:101230000505060200C0C000C0C00206060602FF87
:10124000C0C000C040800407070600001020408096
:10125000402010050303060002F800F80407070603
:101260000100804020102040800507070600007024
:10127000880810200020050707060000708808680D
:10128000A8A870050707060000708888F888888875
:10129000050707060000F08888F08888F005070732
:1012A00006000070888080808870050707060000AF
:1012B000F08888888888F0050707060000F8808095
:1012C000F08080F8050707060000F88080F0808035
:1012D00080050707060000708880B88888700507B9
:1012E00007060000888888F88888880107070602B2
:1012F000008080808080808005070706000038100D
:1013000010101090600507070600008890A0C0A08C
:101310009088050707060000808080808080F8059F
:10132000070706000088D8A8888888880507070668
:1013300000008888C8A898888805070706000070FC
:10134000888888888870050707060000F08888F07C
:1013500080808005070706000070888888A890684C
:10136000050707060000F08888F0A09088050707A9
:10137000060000788080700808F005070706000066
:10138000F8202020202020050707060000888888F4
:101390008888887005070706000088888888885034
:1013A000200507070600008888888888A850050758
:1013B0000706000088885020508888050707060027
:1013C0000088888850202020050707060000F808BC
:1013D00010204080F8030707060100E0808080802D
:1013E00080E005050506000180402010080307077E
:1013F000060100E02020202020E005030306000471
:10140000205088050101060000F8020202060205CC
:1014100080400505050600007008788878050707F4
:101420000600008080B0C88888F005050506000029
:101430007080808870050707060000080868988893
:1014400088780505050600007088F8807005070794
:101450000600003048E0404040400506060600FF18
:101460007088887808700507070600008080B0C87B
:1014700088888801070706020080008080808080BD
:101480000308080601FF200020202020A0400407B8
:1014900007060000808090A0C0A090030707060107
:1014A00000C04040404040E0050505060000D0A8CF
:1014B000A8A8A8050505060000B0C8888888050505
:1014C0000506000070888888700506060600FFF093
:1014D0008888F080800506060600FF7888887808EE
:1014E00008050505060000B0C880808005050506D2
:1014F000000070807008F00407070600004040E01C
:101500004040403005050506000088888898680539
:10151000050506000088888850200505050600009E
:101520008888A8A850050505060000885020508826
:101530000506060600FF88888878087005050506F8
:101540000000F8102040F803070706010020404083
:101550008040402001070706020080808080808054
:1015600080030707060100804040204040800502BC
:10157000020600026890000000060000000000065D
:10158000000000000006000000000006000000004F
:101590000006000000000006000000000006000039
:1015A0000000000600000000000600000000000629
:1015B000000000000006000000000006000000001F
:1015C0000006000000000006000000000006000009
:1015D00000000006000000000006000000000006F9
:1015E00000000000000600000000000600000000EF
:1015F00000060000000000060000000000060000D9
:1016000000000006000000000006000000000006C8
:1016100000000000000600000000000600000000BE
:1016200000060000000000060000000000060000A8
:101630000000000600000000000600000000000698
:10164000000001070706020080008080808080057E
:1016500007070600002070A8A0A87020050707064D
:101660000000304040E04050A80505050600008815
:1016700070507088050707060000885020F820F891
:101680002001070706020080808000808080050816
:1016900008060000304820505020906003010106E9
:1016A0000107A0050707060000F888B8B8B888F851
:1016B000050707060001700878887800F805050519
:1016C0000600012850A05028050303060001F80871
:1016D000080202020602064080050707060000F81D
:1016E00088A88898A8F8050101060006F8040404F3
:1016F000060003609090600507070600002020F8B0
:10170000202000F804050506000360902040F00347
:101710000505060003E020E020E0020202060206C2
:1017200040800508080600FF8888888898E880803F
:101730000507070600007898987818181802020222
:10174000060202C0C00202020602FF408003050535
:1017500006000340C04040E005070706000170880E
:1017600088887000F8050505060001A0502850A0E3
:101770000507070600008890A858B808080507075D
:101780000600008890B84898203805080806000030
:10179000C040C048D83808080507070600002000E8
:1017A00020408088700508080600004020007088EE
:1017B000F888880508080600001020007088F8885E
:1017C000880508080600002050007088F888880501
:1017D00008080600006890007088F88888050808E6
:1017E0000600005000708888F88888050808060000
:1017F000002050207088F888880507070600003808
:1018000060A0B8E0A0B80508080600FF70888080D6
:1018100088702060050808060000402000F880F06D
:1018200080F8050808060000081000F880F080F82D
:10183000050808060000205000F880F080F8050731
:10184000070600005000F880F080F8030808060141
:1018500000804000E0404040E0030808060100200E
:101860004000E0404040E003080806010040A000BE
:10187000E0404040E0030707060100A000E04040D0
:1018800040E0050707060000704848E84848700532
:10189000080806000068900088C8A898880508080D
:1018A00006000040207088888888700508080600B7
:1018B00000102070888888887005080806000020BD
:1018C000500070888888700508080600006890003D
:1018D00070888888700508080600005000708888A5
:1018E0008888700505050600018850205088050885
:1018F000080600FF1070A8A8A8A8704005080806F0
:101900000000402088888888887005080806000044
:1019100010208888888888700508080600002050F4
:1019200000888888887005080806000050008888AC
:10193000888888700508080600001020885020203C
:1019400020200509090600FFC0407048487040404B
:10195000E00408080601FF609090A09090E08005E8
:1019600008080600004020007008788878050808FC
:101970000600001020007008788878050808060026
:101980000020500070087888780508080600006874
:1019900090007008788878050707060000500070EE
:1019A000087888780508080600002050207008781C
:1019B0008878050606060000D02878A0A8500506FD
:1019C000060600FF70808870206005080806000089
:1019D0004020007088F8807005080806000010207C
:1019E000007088F88070050808060000205000701C
:1019F00088F8807005070706000050007088F8809E
:101A00007003080806010080400040C04040E00329
:101A1000080806010020400040C04040E0030808DC
:101A200006010040A00040C04040E0030707060157
:101A300000A00040C04040E0050707060000A040AD
:101A4000A010788870050808060000689000B0C8EB
:101A5000888888050808060000402000708888886B
:101A6000700508080600001020007088888870053E
:101A70000808060000205000708888887005080853
:101A800006000068900070888888700507070600C7
:101A90000050007088888870050505060001200048
:101AA000F800200507070600FF1070A8A8A87040DE
:101AB0000508080600004020008888889868050806
:101AC0000806000010200088888898680508080625
:101AD00000002050008888889868050707060000E5
:101AE000500088888898680509090600FF102000C2
:101AF000888888F808700407070601FFC040605016
:101B00006040E00508080600FF50008888887808D3
:101B10007000060900FE000000000001090008FE38
:101B2000000005080806000040F0C8888898781072
:101B3000050808060000C0F88888888888F8050528
:101B4000050600012030F8302005080806000020B6
:101B500070F820202020E00509090600FF2070A869
:101B6000A8B8888870200509090600FFE080C0B089
:101B7000A8283028280509090600FFF8A8888888C1
:101B80008888A8F8050A0A0600FE205050505088A0
:101B9000A8A8887003030306000340A04024F4D4DF
:101BA0003050C38E20C2A24017828B7011127A91DE
:101BB0000D816CD90AA861E108C7586607615143D5
:101BC000061E4B5D05C145A7041A411104093D9845
:101BD00003713931034036DB0265339102D430544E
:101BE00002802E1D02632CEE01752AC501B028A0CB
:101BF00001102781018F2564012B244B01E0223441
:101C000001AC211F018D200D01801FFC00841EED01
:101C100000971DDF00B81CD200E61BC600201BBCCD
:101C200000641AB200B219A8000A19A0006A189933
:101C300000D117910040178B00B516840031167E35
:101C400000B31579003A157300C7146F0058146A71
:101C500000EE1366008813630025135E00C7125B55
:101C6000006C12570015125400C111510070114F31
:101C70000021114B00D61049008D1047004610443A
:101C80000002104200C00F4000800F3E00420F3C97
:101C900000060F3B00CB0E3800930E37005C0E356C
:101CA00000270E3400F30D3200C10D3100900D30CD
:101CB00000600D2E00320D2D00050D2C00D90C2BCF
:101CC00000AE0C2900850C29005C0C2700350C2780
:101CD000000E0C2600E80B2400C40B2400A00B23EC
:101CE000007D0B23005A0B2100390B2100180B201B
:101CF00000F80A1F00D90A1E00BB0A1E009D0A1D1B
:101D000000800A1D00630A1C00470A1B002C0A1BE6
:101D100000110A1A00F7091A00DD091900C409198F
:101D200000AB091900920917007B09180063091715
:101D3000004C09160036091600200916000A09157C
:101D400000F5081500E0081400CC081400B80814C9
:101D500000A4081400900813007D0812006B0813FB
:101D60000058081200460812003408110023081118
:101D7000001208110001081100F0071000E0071020
:101D800000D0071000C0071000B0070F00A1071017
:101D90000091070E0083070F0074070F0065070E00
:101DA0000057070E0049070E003B070D002E070ED7
:101DB0000020070D0013070D0006070D00F9060CA3
:101DC00000ED060D00E0060C00D4060C00C8060C61
:101DD00000BC060C00B0060C00A4060B0099060C13
:101DE000008D060B0082060B0077060B006C060BBD
:101DF0000061060A0057060B004C060A0042060A5C
:101E00000038060A002E060A0024060A001A060AEE
:101E1000001006090007060A00FD050900F405097F
:101E200000EB050900E2050900D9050900D0050904
:101E300000C7050900BE050900B5050800AD050885
:101E400000A50509009C050800940508008C0508FC
:101E500000840508007C050800740508006C05076F
:101E600000650508005D050700560508004E0507DA
:101E70000047050700400508003805070031050741
:101E8000002A050700230507001C050600160507A4
:101E9000000F0507000805060002050700FB040601
:101EA00000F5040700EE040600E8040600E204075B
:101EB00000DB040600D5040600CF040600C90406B2
:101EC00000C3040600BD040600B7040600B1040503
:101ED00000AC040600A6040600A00405009B04064E
:101EE0000095040500900406008A04050085040599
:101EF00000800406007A04050075040500700405DE
:101F0000006B04050066040500610405005C04051F
:101F10000057040500520405004D0405004804055F
:101F200000430405003E0404003A0405003504059E
:101F300000300404002C04050027040400230405D9
:101F4000001E0404001A0404001604050011040411
:101F5000000D040400090405000404040000040446
:101F600000FC030400F8030400F4030400F003047D
:101F700000EC030400E8030400E4030400E00304AD
:101F800000DC030400D8030400D4030400D00304DD
:101F900000CC030400C8030300C503030024F404B9
:101FA000D9201BC40C5C0E9804C4095F026507713C
:101FB00001F405F900FB04B30048048700C103697C
:101FC000005803550003034500BE023A0084023165
:101FD0000053022A002902250004022000E4011C0B
:101FE00000C8011900AF0117009801140084011303
:101FF00000710110006101100051010E0043010D3C
:102000000036010B002B010B0020010B001501090C
:10201000000C01090003010800FB000800F30008A0
:1020200000EB000700E4000600DE000600D8000612
:1020300000D2000600CC000500C7000500C2000564
:1020400000BD000400B9000400B5000400B10004A4
:1020500000AD000400A9000400A5000300A20003D5
:10206000009F0004009B00030098000300950002FD
:102070000093000300900003008D0002008B00031A
:102080000088000200860002008400030081000234
:10209000007F0002007D0002007B00020079000248
:1020A0000077000100760002007400020072000157
:1020B00000710002006F0002006D0001006C000260
:1020C000006A00010069000200670001006600016B
:1020D000006500010064000200620001006100016F
:1020E00000600001005F0002005D0001005C000173
:1020F000005B0001005A0001005900010058000176
:102100000057000100560001005500010054000175
:102110000053000000530001005200010051000173
:1021200000500001004F0001004E0000004E000171
:10213000004D0001004C0001004B0000004B00016D
:10214000004A000100490001004800000048000169
:102150000047000100460000004600010045000065
:10216000004500010044000100430000004300015D
:102170000042000000420001004100000041000157
:1021800000400001003F0000003F0001003E000051
:10219000003E0001003D0000003D0001003C000049
:1021A000003C0000003C0001003B0000003B00013F
:1021B000003A0000003A0001003900000039000137
:1021C000003800000038000000380001003700002F
:1021D0000037000100360000003600000036000124
:1021E000003500000035000000350001003400001B
:1021F0000034000000340001003300000033000010
:102200000033000100320000003200000032000103
:1022100000310000003100000031000100300000FA
:102220000030000000300001002F0000002F0000EF
:10223000002F0000002F0001002E0000002E0000E3
:10224000002E0001002D0000002D0000002D0000D8
:10225000002D0001002C0000002C0000002C0000CC
:10226000002C0001002B0000002B0000002B0000C0
:10227000002B0001002A0000002A0000002A0000B4
:10228000002A0001002900000029000000290000A8
:10229000002900000029000100280000002800009B
:1022A000002800000028000000280001002700008E
:1022B0000027000000270000002700000027000181
:1022C0000026000000260000002600000026000076
:1022D0000026000100250000002500000025000068
:1022E000002500000025000000250001002400005A
:1022F000002400000024000000240000002400014D
:102300000023000000230000002300000023000041
:102310000023000000230000002300010022000031
:102320000022000000220000002200000022000025
:102330000022000100210000002100000021000017
:102340000021000000210000002100000021000108
:1023500000200000002000000020000000200000FD
:1023600000200000002000000020000000200001EC
:10237000001F0000001F0000001F0000001F0000E1
:10238000001F0000001F0000001F0001001E0000D1
:10239000001E0000001E0000001E000000000000E3
:1023A0000000000000000016445761726E696E67FD
:1023B0003A20486F6D696E672042756D70204469E0
:1023C0007669736F72203C20310A000000A0400043
:1023D00000A04000000040000048430000484300C7
:1023E000001644FFFF0148617264636F64656420F6
:1023F00044656661756C742053657474696E6773A7
:10240000204C6F616465640A0020204D383531200E
:102410005A005A2D50726F6265204F66667365745C
:1024200020286D6D293A0A0020204D32303020449A
:10243000300A0020204D323030204400204469739F
:1024400061626C65640A0046696C616D656E74203A
:1024500073657474696E67733A0020440020490004
:1024600020204D3330312050005049442073657492
:1024700074696E67733A0A002046002042002048C3
:102480000020204D3134352053004D617465726950
:10249000616C2068656174757020706172616D6532
:1024A000746572733A0A00205A0020590020204DAA
:1024B000323036205800486F6D65206F6666736550
:1024C0007420286D6D290A00204500205A002059EB
:1024D0000020580020420020540020204D3230358A
:1024E000205300416476616E636564207661726991
:1024F00061626C65733A20533D4D696E2066656577
:10250000647261746520286D6D2F73292C20543DF1
:102510004D696E2074726176656C206665656472C3
:1025200061746520286D6D2F73292C20423D6D69E3
:102530006E696D756D207365676D656E7420746965
:102540006D6520286D73292C20583D6D6178696D6B
:10255000756D205859206A65726B20286D6D2F7338
:10256000292C20205A3D6D6178696D756D205A20A7
:102570006A65726B20286D6D2F73292C2020453DD4
:102580006D6178696D756D2045206A65726B2028D4
:102590006D6D2F73290A0020540020520020204D19
:1025A000323034205000416363656C657261746938
:1025B0006F6E733A20503D7072696E74696E672C4D
:1025C00020523D7265747261637420616E642054A0
:1025D0003D74726176656C0A00204500205A002027
:1025E000590020204D3230312058004D6178696DFE
:1025F000756D20416363656C65726174696F6E20EF
:10260000286D6D2F7332293A0A00204500205A00A8
:1026100020590020204D3230332058004D61786918
:102620006D756D2066656564726174657320286DD3
:102630006D2F73293A0A00204500205A00205900C6
:1026400020204D3932205800537465707320706516
:102650007220756E69743A0A005A005900580009D0
:1026600020000000000000000000000000007FFFCC
:10267000E00000000000000000000000007000E02A
:1026800000000000000000000000000061F8600091
:10269000000000000000000000000041F8200000E1
:1026A0000000000000000000000040F020000000DA
:1026B000000000000000000000406020000000005A
:1026C00000000000000000005801A07F8000000012
:1026D000000000000000005C63A0FFC000000000DC
:1026E0000000000000005EF7A0FFC0000000000036
:1026F00000000000005EF7A0FFC000000000000026
:10270000000000005C63A07F80000000000000006B
:102710000000005801A07F800000000000000000C1
:102720000000406020FFC00000000000000000002A
:102730000040F020FFC0000000000000000000008A
:1027400041F820FFC0000000000000000000006110
:10275000F8603F0000000000000000000000700072
:10276000E01E00000000000000000000007FFFE00D
:102770000C0000000000000000000000000000004D
:1027800000000000000000000000007FFFE00000EB
:10279000000000000000000000007000E0000000E9
:1027A000000000000000000000630C60000000005A
:1027B0000000000000000000470E200000000000A4
:1027C000000000000000004F0F200000000000008B
:1027D0000000000000005F0FA000000000000000EB
:1027E00000000000005E07A07F80000000000000E5
:1027F00000000000406020FFC0000000000000005A
:1028000000000040F020FFC00000000000000000B9
:10281000000040F020FFC0000000000000000000A9
:10282000004060207F8000000000000000000000E9
:102830005E07A07F80000000000000000000005F35
:102840000FA0FFC0000000000000000000004F0FBC
:1028500020FFC000000000000000000000470E2024
:10286000FFC000000000000000000000630C603F9B
:1028700000000000000000000000007000E01E00EA
:10288000000000000000000000007FFFE00C0000DE
:10289000000000000000000000000000436F6E74A4
:1028A000726F6C00507265706172617200416A757E
:1028B0007374617200496E666F726D6163696F6EE9
:1028C00000466C756A6F00466C756A6F0056656EDF
:1028D00074696C61646F720056656E74696C6164D2
:1028E0006F7200426F7175696C6C6100426F717537
:1028F000696C6C610056656C6F6369646164005655
:10290000656C6F6369646164004D656E75207072FB
:10291000696E636970616C004D34323800456E66D3
:10292000726961720050726563616C656E74617288
:10293000204142530050726563616C656E74617230
:1029400020504C41004D3834004170616761722065
:102950006D6F746F726573004D6F76657220656A76
:102960006573004732380A47323900473239004E22
:102970006976656C617220706C617461666F726DEE
:102980006100416A75737461722064657366617376
:10299000657300473238004C6C6576617220616C5B
:1029A000206F726967656E004D656E752070726983
:1029B0006E636970616C00526573656E643A2000E5
:1029C0006F6B00627573793A20706175736564206E
:1029D000666F7220696E7075740A00627573793A59
:1029E0002070617573656420666F722075736572FF
:1029F0000A00627573793A2070726F636573736948
:102A00006E670A0050617261646120646520656DC3
:102A1000657267656E63696100506172616461200F
:102A2000646520656D657267656E63696100506CF1
:102A300065617365207265736574005052494E5428
:102A400045522048414C544544005072696E7465AB
:102A5000722068616C7465642E206B696C6C282927
:102A60002063616C6C6564210A005265706F736F3E
:102A70002E2E2E0020706F736974696F6E206F7533
:102A800074206F662072616E67652E0A003F507277
:102A90006F6265200053696E206D6F76696D6965A0
:102AA0006E746F0020403A00202F0020543A00201E
:102AB0005A3A0020423A0020436F756E7420413A22
:102AC000200020453A00205A3A0020593A00583A4E
:102AD00000205A00205900580020204D61783A20EB
:102AE00000205A00205900580020204D696E3A20DD
:102AF00000456E63656E6465720041706167617266
:102B000000536F667420656E6473746F70733A203F
:102B10000020643A0020693A0020703A003A200010
:102B20007A5F6D61783A20007A5F6D696E3A2000B5
:102B300044657366617365205A0070012C01900131
:102B40002701B0012201C0011D01F001180110028E
:102B5000130130020E016002090190020401C0025B
:102B6000FF000003FA004003F5008003F000D003EB
:102B7000EB002004E6007004E100E004DC00400506
:102B8000D700C005D2004006CD00D006C80080079F
:102B9000C3003008BE00F008B900C009B400B00A94
:102BA000AF00B00BAA00D00CA500000EA000500F83
:102BB0009B00C01096005012910000148C00C015AC
:102BC0008700B0178200B0197D00D01B7800001E6E
:102BD000730040206E0090226900F02464004027BA
:102BE0005F0090295A00E02B5500102E5000203035
:102BF0004B0010324600E033410090353C00103766
:102C0000370070383200A0392D00B03A2800A03BC0
:102C10002300603C1E00103D1900903D1400103E42
:102C20000F00703E0A00C03E0500003F000000009B
:102C30002100240027002A002D003000330001016C
:102C40000000040107010A010000220025002800FD
:102C50002B002E00310034000201000005010801A4
:102C60000B01000020002300260029002C002F006B
:102C700032000001000003010601090105050505F8
:102C8000070508080808020202020A0A08080404E4
:102C90000404010101010101010103030303030312
:102CA0000303040707070C0C0C0C0C0C0C0C0202A1
:102CB000020206060606060606060B0B0B0B0B0B9E
:102CC0000B0B01021020200808102040102040802B
:102CD00002010201080402010102040810204080E0
:102CE000804020100804020180040201804020106E
:102CF00008040201080402010102040810204080B7
:102D0000010204081020408000000A0B02090C0D8B
:102D10000E0807030401000000000000000000008E
:102D200000000000000000000000000000000000A3
:102D30000000000012111000000000000000000060
:102D400000000000000000000000000000004E41F4
:102D50004E494E495459494E46CDCCCC3D0AD72315
:102D60003C17B7D13877CC2B329595E6241FB14F5D
:102D70000A000020410000C84200401C4620BCBEA2
:102D80004CCA1B0E5AAEC59D740016B611241FBE48
:102D9000CFEFD1E2DEBFCDBF00E00CBF14E0A0E07A
:102DA000B2E0EEECF4E801E00BBF02C007900D9238
:102DB000AE31B107D9F72FE0AEE1B4E001C01D920A
:102DC000A938B207E1F716E1C6ECD6E100E006C08B
:102DD00021970109802FFE010E94A8B6C53CD107AA
:102DE00080E00807A9F70E94ACAE0C9465C20C9471
:102DF00000002F923F924F925F926F927F928F923C
:102E00009F92AF92BF92CF92DF92EF92FF920F9379
:102E10001F93CF93DF93CDB7DEB7C45AD1090FB656
:102E2000F894DEBF0FBECDBF0091F40720E6029FED
:102E300080011124035D1B4F1093AE050093AD0577
:102E40008091040880FF18C0ECECFEE084917F01C3
:102E50003FEFE31AF30A882321F00E948D40F70127
:102E6000F5CFD8018D918D01882319F00E948D40F6
:102E7000F8CF8AE00E948D402091AD053091AE05DB
:102E8000F90180812F5F3F4F8032D1F3F093AE057F
:102E9000E093AD058E3469F01091AD050091AE055B
:102EA0006AE270E0812F902F0E94CBB90097D1F495
:102EB00020C0818190ED980F9A3010F08D3261F72B
:102EC0003296DF0131962C9120532A30D0F3CD0178
:102ED000FC01019620812032D9F3F093AE05E093F6
:102EE000AD05DACFFC0131968291803231F08A3221
:102EF00021F0A12FB02F9D9102C01082F5CFFD01CE
:102F0000808111968032D9F380538A3020F0ECEC26
:102F1000FEE00C947732E12CF12C2AE02E9DB001DA
:102F20002F9D700D11247B01B0E3EB1AF108819104
:102F3000E80EF11C87FDFA94808180538A3070F38B
:102F40008F013196D8018C918032D1F310932C04EB
:102F500000932B0421E030E030937A0E2093790E19
:102F60009D3411F40C94D421943511F40C941C313B
:102F7000973411F00C943431BCE1EB16F10409F4F0
:102F800059C7A8F4F4E0EF16F10438F48091120266
:102F900022E0E216F10468F142C134E0E316F104E4
:102FA00011F00C946E320E94D1A00C946E324AE55E
:102FB000E416F10411F40C94122168F48DE1E81682
:102FC000F10409F48AC79EE1E916F10411F40C94A6
:102FD0000B200C946E32ABE5EA16F10411F40C945C
:102FE0001621BCE5EB16F10411F40C941B210C9492
:102FF0006E32882311F40C946E320E9416A18BE479
:103000009DE00E94289C0E9448408091040883FD16
:1030100093C0C090570DD090580DE090590DF0908E
:103020005A0D2091C00E3091C10E4091C20E5091A8
:10303000C30EC701B6010E944BBE882309F47CC0B1
:103040008091FF07811134C02091430230914402E6
:1030500040914502509146026091E40E7091E50E58
:103060008091E60E9091E70E0E944BBE87FF20C034
:10307000C092C00ED092C10EE092C20EF092C30E6A
:10308000ECECFEE084918F010F5F1F4F882321F04D
:103090000E948D40F801F6CFEBE3F3E084918F01BD
:1030A0000F5F1F4F882321F00E948D40F801F6CF5B
:1030B000C090570DD090580DE090590DF0905A0DDA
:1030C0002091C00E3091C10E4091C20E5091C30E9E
:1030D000C701B6010E94B8B60E9425B897FF07C085
:1030E00090958095709561957F4F8F4F9F4F693C6C
:1030F00071058105910504F1C092C00ED092C10EF8
:10310000E092C20EF092C30EECECFEE084918F01CF
:103110000F5F1F4F882321F00E948D40F801F6CFEA
:10312000ECE1F3E084918F010F5F1F4F882321F0C2
:103130000E948D40F801F6CF20914B0D30914C0D3F
:1031400040914D0D50914E0D6091B40E7091B50EA1
:103150008091B60E9091B70E0E944BBE81111DC09A
:1031600020914F0D3091500D4091510D5091520DC5
:103170006091B80E7091B90E8091BA0E9091BB0E0D
:103180000E944BBE811109C0609100027091010242
:1031900080910202909103023CC08091FE076091F1
:1031A0005802709159028823F1F0072E000C880B09
:1031B000990B0E9452BE2091000230910102409171
:1031C0000202509103020E94B1BE2AE037ED43E2B1
:1031D0005CE30E94B1BE2FEF3FEF4FEF5FEF0E9425
:1031E000F2960C946E32072E000C880B990B0E94FD
:1031F00052BE209100023091010240910202509192
:1032000003020E94B1BE2AE037ED43E25CE30E9474
:10321000B1BE0E94EE3D0E94E43D0C946E328823C4
:1032200011F40C946E3211E0E2E0EE16F10409F0B4
:1032300010E00E9416A182E50E94493E882309F40D
:103240005CC10E94DC3E6B017C014090B40E50904A
:10325000B50E6090B60E7090B70E2091B80E3091FA
:10326000B90E4091BA0E5091BB0E64962CAF3DAF93
:103270004EAF5FAF649780914B0D90914C0DA09134
:103280004D0DB0914E0D68968CAF9DAFAEAFBFAFF8
:10329000689720914F0D3091500D4091510D5091F4
:1032A000520D6C962CAF3DAF4EAF5FAF6C9720E0E8
:1032B00030E0A901C701B6010E944BBE882309F482
:1032C0009FC5A301920168966CAD7DAD8EAD9FAD9B
:1032D00068970E944BBE811111C064962CAD3DAD24
:1032E0004EAD5FAD64976C966CAD7DAD8EAD9FAD10
:1032F0006C970E944BBE882309F482C520E030E021
:10330000A901C701B6010E944BBE881F8827881FEC
:1033100018130BC080E090E0A0E8BFE3E0968CAF0C
:103320009DAFAEAFBFAFE0970AC020E030E040E80D
:103330005FEBE0962CAF3DAF4EAF5FAFE097A301E0
:10334000920168966CAD7DAD8EAD9FAD68970E9481
:10335000B8B6A0966CAF7DAF8EAF9FAFA0976496C6
:103360002CAD3DAD4EAD5FAD64976C966CAD7DAD53
:103370008EAD9FAD6C970E94B8B6A8966CAF7DAF2E
:103380008EAF9FAFA897A0962CAD3DAD4EAD5FAD73
:10339000A097CA01B9010E94B1BE4B015C01A89679
:1033A0002CAD3DAD4EAD5FADA897CA01B9010E94ED
:1033B000B1BE9B01AC01C501B4010E94B9B60E9427
:1033C00067B9A4966CAF7DAF8EAF9FAFA49720E096
:1033D00030E040E05FE30E94B1BE4B015C01A70119
:1033E0009601C701B6010E94B1BE6B017C01A50127
:1033F0009401C501B4010E94B1BE9B01AC01C7019B
:10340000B6010E94B8B60E9467B99B01AC01E09674
:103410006CAD7DAD8EAD9FADE0970E94B1BE4B010E
:103420005C0168962CAD3DAD4EAD5FAD6897C301B4
:10343000B2010E94B9B620E030E040E05FE30E94B4
:10344000B1BE6B017C01A8966CAD7DAD8EAD9FAD1C
:10345000A8979058A4962CAD3DAD4EAD5FADA49706
:103460000E94B3B79B01AC01C501B4010E94B1BE7B
:103470009B01AC01C701B6010E94B9B6A30192013C
:103480000E94B8B66B017C016C962CAD3DAD4EAD83
:103490005FAD6C9764966CAD7DAD8EAD9FAD64975E
:1034A0000E94B9B620E030E040E05FE30E94B1BE88
:1034B0002B013C01A4962CAD3DAD4EAD5FADA49764
:1034C000A0966CAD7DAD8EAD9FADA0970E94B3B7B9
:1034D0009B01AC01C501B4010E94B1BE9B01AC01CE
:1034E000C301B2010E94B9B664962CAD3DAD4EAD9C
:1034F0005FAD64970E94B8B614C089E40E94493E4B
:10350000882329F00E94DC3E6B017C0103C0C12CA2
:10351000D12C76018AE40E94493E8823F9F00E946A
:10352000DC3E64966CAF7DAF8EAF9FAF649720E0BA
:1035300030E0A901C701B6010E944BBE81111EC037
:1035400020E030E0A90164966CAD7DAD8EAD9FADFD
:1035500064970E944BBE811111C052C420E030E03C
:10356000A901C701B6010E944BBE882309F448C4D3
:1035700064961CAE1DAE1EAE1FAE6497A7019601E9
:10358000C701B6010E94B1BE4B015C0164962CAD2F
:103590003DAD4EAD5FAD6497CA01B9010E94B1BEA9
:1035A0009B01AC01C501B4010E94B9B60E9467B984
:1035B000C058DF4F688379838A839B83C058D0408B
:1035C0008091B40E9091B50EA091B60EB091B70E49
:1035D000A4968CAF9DAFAEAFBFAFA497A7019601E5
:1035E000BC01CD010E94B9B6E0966CAF7DAF8EAF45
:1035F0009FAFE0972091B80E3091B90E4091BA0E6E
:103600005091BB0EA0962CAF3DAF4EAF5FAFA097D1
:1036100064962CAD3DAD4EAD5FAD6497A0966CAD9C
:103620007DAD8EAD9FADA0970E94B9B6E4966CAF0C
:103630007DAF8EAF9FAFE4978091BC0E9091BD0E91
:10364000A091BE0EB091BF0EAC968CAF9DAFAEAF49
:10365000BFAFAC979C01AD016091530D7091540DBB
:103660008091550D9091560D0E94B8B6A8966CAFFA
:103670007DAF8EAF9FAFA8972091570D3091580D19
:103680004091590D50915A0DCC57DF4F2883398303
:103690004A835B83C458D0408091C00E9091C10E84
:1036A000A091C20EB091C30EE8968CAF9DAFAEAFA5
:1036B000BFAFE897A7019601505868962CAF3DAF71
:1036C0004EAF5FAF689764968CAD9DADAEADBFADAC
:1036D0006497B0586C968CAF9DAFAEAFBFAF6C9790
:1036E00020914B0D30914C0D40914D0D50914E0D50
:1036F000EC962CAF3DAF4EAF5FAFEC97E0962CADA4
:103700003DAD4EAD5FADE097EC966CAD7DAD8EAD51
:103710009FADEC970E94B8B66B017C0180914F0D74
:103720009091500DA091510DB091520DC458DF4FA2
:1037300088839983AA83BB83CC57D040E4962CAD71
:103740003DAD4EAD5FADE497BC01CD010E94B8B672
:103750004B015C01A701960168966CAD7DAD8EAD05
:103760009FAD68970E94B1BE2B013C01A501940159
:103770006C966CAD7DAD8EAD9FAD6C970E94B1BE69
:103780009B01AC01C301B2010E94B9B62B013C01FF
:10379000A501940168966CAD7DAD8EAD9FAD689727
:1037A0000E94B1BE4B015C01A70196016C966CAD05
:1037B0007DAD8EAD9FAD6C970E94B1BE9B01AC01FB
:1037C000C501B4010E94B8B6A30192010E9438B7A6
:1037D0006B017C0120E030E0A9010E944BBE87FF15
:1037E0000AC02BED3FE049EC50E4C701B6010E944E
:1037F000B9B66B017C01112351F02BED3FE049EC90
:1038000050E4C701B6010E94B8B66B017C0120E00C
:1038100030E0A901C701B6010E944BBE81112CC046
:10382000EC962CAD3DAD4EAD5FADEC97A4966CAD76
:103830007DAD8EAD9FADA4970E944BBE81111CC083
:10384000C458DF4F288139814A815B81CC57D040F1
:10385000A0966CAD7DAD8EAD9FADA0970E944BBE86
:1038600081110AC02BED3FE049EC50E4C701B601DD
:103870000E94B9B66B017C01C058DF4F28813981A5
:103880004A815B81C058D040C701B6010E94B1BED9
:103890009B01AC010E94B1BE4B015C01A8962CAD0E
:1038A0003DAD4EAD5FADA897CA01B9010E94B1BE52
:1038B0009B01AC01C501B4010E94B9B60E9467B971
:1038C0004B015C012FE632E143E85AE30E944BBE14
:1038D00087FD92C2C501B4010E945BB80E942CB85A
:1038E0006E967FAF6EAF6E97DB01AB2B31F4E1E0EC
:1038F000F0E06E96FFAFEEAF6E976E962EAD3FADD9
:103900006E97B90180E090E00E9450BE4B015C01CF
:103910009B01AC01C701B6010E94B3B7A4966CAF7E
:103920007DAF8EAF9FAFA497A5019401A8966CAD13
:103930007DAD8EAD9FADA8970E94B3B7C058DF4F45
:10394000688379838A839B83C058D040E8962CADE6
:103950003DAD4EAD5FADE897CC57DF4F68817981C3
:103960008A819B81C458D0400E94B8B6A5019401B9
:103970000E94B3B7CC57DF4F688379838A839B83D8
:10398000C458D040A4962CAD3DAD4EAD5FADA497CC
:10399000CA01B9010E94B1BE20E030E040E05FE31F
:1039A0000E94B1BE9B01AC0160E070E080E89FE343
:1039B0000E94B8B6A8966CAF7DAF8EAF9FAFA897A8
:1039C000AC968CAD9DADAEADBFADAC9789879A87F7
:1039D000AB87BC87E8962CAD3DAD4EAD5FADE897AB
:1039E0002D873E874F87588B6091580270915902FE
:1039F000072E000C880B990B0E9452BE20910002EA
:103A00003091010240910202509103020E94B1BE26
:103A10002AE037ED43E25CE30E94B1BEAC966CAFA6
:103A20007DAF8EAF9FAFAC970E94CAAB9B01AC013C
:103A300028533F4F4F4F5F4FE8962CAF3DAF4EAFEF
:103A40005FAFE89765964FAC659766965FAC6697F3
:103A500067966FAC679768967FAC6897222423942B
:103A6000312CD12C44E450E04C0F5D1F485F5F4F78
:103A7000EA965FAF4EAFEA9784E490E08C0F9D1F0B
:103A80000496EE969FAF8EAFEE976E968EAD9FAD7D
:103A90006E972816390609F45BC10E94614B0E949B
:103AA000CAABDC01CB01E8962CAD3DAD4EAD5FADB0
:103AB000E897821B930BA40BB50BB7FD10C00E94B7
:103AC000CAAB9B01AC0128533F4F4F4F5F4FE89665
:103AD0002CAF3DAF4EAF5FAFE8970E94AA94D3944E
:103AE00038E13D150CF44BC0A8962CAD3DAD4EAD64
:103AF0005FADA8976C966CAD7DAD8EAD9FAD6C97AC
:103B00000E94B1BE4B015C01A4962CAD3DAD4EAD03
:103B10005FADA497B201C3010E94B1BEA50194019B
:103B20000E94B9B67B018C01A8962CAD3DAD4EAD7F
:103B30005FADA897B201C3010E94B1BE4B015C0109
:103B4000A4962CAD3DAD4EAD5FADA4976C966CAD1B
:103B50007DAD8EAD9FAD6C970E94B1BE9B01AC0157
:103B6000C501B4010E94B8B62B013C01C701D801C0
:103B70006C968CAF9DAFAEAFBFAF6C975AC0B10122
:103B800080E090E00E9450BEA4962CAD3DAD4EADBD
:103B90005FADA4970E94B1BE4B015C010E94AEB71D
:103BA0006B017C01C501B4010E9459B94B015C0154
:103BB000A701960168966CAD7DAD8EAD9FAD6897FF
:103BC0000E94B1BE2B013C01A501940164966CAD2D
:103BD0007DAD8EAD9FAD64970E94B1BE9B01AC01DF
:103BE000C301B2010E94B9B62B013C01A5019401A9
:103BF00068966CAD7DAD8EAD9FAD68970E94B1BEED
:103C00004B015C01A701960164966CAD7DAD8EAD54
:103C10009FAD64970E94B1BE9B01AC01C501B40188
:103C20000E94B8B66C966CAF7DAF8EAF9FAF6C97AD
:103C3000D12C9201A301E0966CAD7DAD8EAD9FAD10
:103C4000E0970E94B9B669837A838B839C836C96D4
:103C50002CAD3DAD4EAD5FAD6C97E4966CAD7DADDA
:103C60008EAD9FADE4970E94B9B66D837E838F833E
:103C70009887C058DF4F288139814A815B81C058BD
:103C8000D04069857A858B859C850E94B9B6698705
:103C90007A878B879C87CC57DF4F288139814A816F
:103CA0005B81C458D0406D857E858F8598890E9440
:103CB000B9B66D877E878F87988BCE0101960E945B
:103CC000289CC090250489819A81AB81BC8128966B
:103CD0008CAF9DAFAEAFBFAF28978D819E81AF8176
:103CE000B8852C968CAF9DAFAEAFBFAF2C978985B2
:103CF0009A85AB85BC8560968CAF9DAFAEAFBFAFEC
:103D00006097EA964EAD5FADEA97EE966EAD7FADE9
:103D1000EE97CE018C5B9F4F0E942D6AAC96ECAC67
:103D2000FDAC0EAD1FADAC979E01235F3F4FEA96F1
:103D30004EAD5FADEA97EE966EAD7FADEE97CE01DC
:103D40008C5B9F4F0E942A5C4FEF241A340A9DCE51
:103D5000C090250480914B0D90914C0DA0914D0D7C
:103D6000B0914E0D28968CAF9DAFAEAFBFAF2897E8
:103D700080914F0D9091500DA091510DB091520D29
:103D80002C968CAF9DAFAEAFBFAF2C978091530DEB
:103D90009091540DA091550DB091560D60968CAF39
:103DA0009DAFAEAFBFAF6097F4E48F2E912C8C0E19
:103DB0009D1E98E0890E911CA4E4AA2EB12CAC0E95
:103DC000BD1EA4E0AA0EB11CA401B501CE018C5BFE
:103DD0009F4F0E942D6AAC96ECACFDAC0EAD1FADB2
:103DE000AC9727E53DE0A401B501CE018C5B9F4F68
:103DF0000E942A5C0E94E43D0E9448400C946E326E
:103E0000E8EBFDE084918F010F5F1F4F882321F0C5
:103E10000E948D40F801F6CFE6E5F3E084918F0132
:103E20000F5F1F4F882311F40C946E320E948D4057
:103E3000F801F4CF0E94F94E0E94893C0E946D4027
:103E400011E010933A0288E50E94493EF82E89E578
:103E50000E94493E082F8AE50E94493EF11005C0A4
:103E6000011105C0982F912705C0011102C090E0F3
:103E700001C0982F9093040220E1E4EBFEE0ABE454
:103E8000BDE001900D922A95E1F7911102C08823BF
:103E900021F082E090E00E941C898091040281114F
:103EA00002C0FF2021F080E090E00E941C898091F8
:103EB0000402811102C0002321F081E090E00E9401
:103EC0001C890E94103F80915B0D80933A020E94F2
:103ED00053400E94609F0C946E32F090B50D81E0CB
:103EE000F8260091B60D08271091B70D1827F1108C
:103EF00002C0002319F0ECECFEE004C01111FBCF6E
:103F00000C94923284916F01BFEFCB1ADB0A8823A5
:103F100021F00E948D40F601F5CFEDE8F3E08491A9
:103F20006F012FEFC21AD20A882321F00E948D4020
:103F3000F601F5CFFF2069F0EBE8F3E084916F0123
:103F40003FEFC31AD30A882321F00E948D40F60167
:103F5000F5CF002369F0E9E8F3E084916F014FEFBA
:103F6000C41AD40A882321F00E948D40F601F5CFAF
:103F7000111103C0EFE7F3E00DC0E7E8F3E084912F
:103F80006F015FEFC51AD50A8823A1F30E948D4007
:103F9000F601F5CF84916F019FEFC91AD90A8823E2
:103FA00021F00E948D40F601F5CF19821A821B8202
:103FB0001C82FE0135968FE3DF011D928A95E9F799
:103FC00069E773E0CE0101960E94CFBDFF2031F07A
:103FD00067E773E0CE0101960E94CFBD002331F068
:103FE00065E773E0CE0101960E94CFBD112331F049
:103FF00063E773E0CE0101960E94CFBD6CE673E0EB
:10400000CE0101960E94CFBD60E0CE0101960E94D4
:1040100026780C946E3288E50E94493E882319F078
:104020000E94DC3E0EC020E030E040E251E46091AE
:10403000B40E7091B50E8091B60E9091B70E0E949D
:10404000B9B628966CAF7DAF8EAF9FAF289789E544
:104050000E94493E882319F00E94DC3E0EC020E0F9
:1040600030E040E251E46091B80E7091B90E809159
:10407000BA0E9091BB0E0E94B9B66B017C016983A8
:104080007A838B839C832091D80E3091D90E4091F6
:10409000DA0E5091DB0E64962CAF3DAF4EAF5FAFA2
:1040A00064978090CC0E9090CD0EA090CE0EB090E4
:1040B000CF0E2091D00E3091D10E4091D20E509162
:1040C000D30E28966CAD7DAD8EAD9FAD28970E9426
:1040D000B8B62091C40E3091C50E4091C60E5091D5
:1040E000C70E0E94B8B62091D40E3091D50E4091E3
:1040F000D60E5091D70E68962CAF3DAF4EAF5FAF46
:1041000068972091C80E3091C90E4091CA0E509107
:10411000CB0E6C962CAF3DAF4EAF5FAF6C9720E0EF
:1041200030E040E251E40E94B8B62B013C0127E1A7
:1041300037EB41ED58EB0E9419B987FF02C00C9490
:104140006E3227E030E048E453E4C301B2010E943C
:104150004BBE181614F40C946E3268962CAD3DAD1F
:104160004EAD5FAD6897C701B6010E94B8B66C96B8
:104170002CAD3DAD4EAD5FAD6C970E94B8B620E062
:1041800030E040E251E40E94B8B66B017C0127E1C7
:1041900037EB41ED58EB0E9419B987FF02C00C9430
:1041A0006E3227E030E048E453E4C701B6010E94D4
:1041B0004BBE181614F40C946E3220E030E0A901C6
:1041C00064966CAD7DAD8EAD9FAD64970E94B9B61F
:1041D000A50194010E94B9B664962CAD3DAD4EADDB
:1041E0005FAD64970E94B8B6A50194010E94B8B66D
:1041F0006B017C0127E137EB41ED58EB0E9419B9C7
:1042000087FF02C00C946E3222E030E046E154E4B5
:10421000C701B6010E944BBE181614F40C946E32FE
:104220000C94D13510922A040C946E3281E0809364
:104230002A040C946F3285E40E94493EB82E811105
:1042400002C00E94F94E1CE0812E13E0912E04EB77
:10425000C02E0EE0D02E84ECE82E8EE0F82E00E08A
:1042600010E0A12CD4018D914D010E94493E88237C
:1042700009F44EC0F6012081318142815381CF552E
:10428000DF4F2883C15AD040CE55DF4F3883C25A02
:10429000D040CD55DF4F4883C35AD040CC55DF4F77
:1042A0005883C45AD0400E94DC3ED6016D937D9362
:1042B0008D939C931397CF55DF4F2881C15AD040DF
:1042C000CE55DF4F3881C25AD040CD55DF4F48819F
:1042D000C35AD040CC55DF4F5881C45AD040033028
:1042E0001105B1F00E94B8B69B01AC01F7016081E5
:1042F0007181828193810E94B9B6D7016D937D93BC
:104300008D939C931397C8010E94FB3FAA24A3940A
:104310000F5F1F4FB4E0CB0ED11CE4E0EE0EF11C9A
:104320000430110509F09ECFAA2019F00E94103F19
:1043300037C0BB20A9F1C090C00ED090C10EE09054
:10434000C20EF090C30E20912A0830912B084091A4
:104350002C0850912D08C701B6010E94B1BE0E94E1
:1043600026B96093480F7093490F80934A0F90933A
:104370004B0FC701B6010E9425B82FB7F894609380
:104380004E0670934F0680935006909351062FBFB0
:104390001092380F1092390F10923A0F10923B0F73
:1043A0000E94609F0C946E32F8E7EF16F10411F44E
:1043B0000C94042A08F0A6C03CE5E316F10409F4C5
:1043C000C2C608F05EC05BE4E516F10409F432C32E
:1043D000F0F491E1E916F10409F4E7C138F4B2E030
:1043E000EB16F10408F46EC10C946E32EFE1EE1698
:1043F000F10409F4DEC1FAE2EF16F10409F4D4C2C3
:1044000022E1E216F10411F00C946E325AC632E544
:10441000E316F10409F44CC630F55DE4E516F10449
:1044200009F426C308F40AC391E5E916F10411F072
:104430000C946E320E946D490E94F94E0E942D9498
:104440001092AE071092AD0768EE73E080E090E046
:104450000E9490AB60E089E295E00E9411780E9492
:1044600037780C946E32A4E5EA16F10409F429C6F3
:1044700008F422C6E5E5EE16F10409F451C60C94E1
:104480006E32FEE6EF16F10409F43AC3D0F43AE6D0
:10449000E316F10409F4D7C560F458E6E516F10413
:1044A00009F4EAC289E6E816F10409F4FEC30C94A3
:1044B0006E329CE6E916F10409F4AAC308F4E6C5D5
:1044C00011C4B2E7EB16F10409F4C6C640F4F0E7F4
:1044D000EF16F10409F4A0C308F42EC3A1C335E715
:1044E000E316F10409F4C8C647E7E416F10409F439
:1044F000C9C653E7E516F10411F00C946E32EDE3F2
:10450000F5E0AEC68DE2E81681E0F80611F40C94F1
:10451000FB2B08F05CC0ACECEA16F10411F40C942F
:10452000F72A30F5E1E9EE16F10409F47AC760F4F0
:1045300029E7E216F10409F46EC73CE8E316F1043A
:1045400009F49AC30C946E3249ECE416F10411F4A8
:104550000C94B92A5BECE516F10411F40C94DA2AF8
:1045600088ECE816F10411F00C946E320C946E2A6B
:104570009CEDE916F10411F40C94CF2B98F4BEECE9
:10458000EB16F10411F40C94CC2B10F40C94612B69
:10459000F3EDEF16F10411F00C946E320E94CA9EF6
:1045A0000C946E3222EEE216F10411F40C94F52B09
:1045B0003CE2E31631E0F30611F40C94F82B4DEDD8
:1045C000E416F10411F00C946E320C94DC2B54EAD6
:1045D000E51651E0F50611F40C94832F68F590E987
:1045E000E91691E0F90611F40C94782F80F4BEE2FC
:1045F000EB16B1E0FB0611F40C94FE2BEFE2EE1685
:10460000E1E0FE0611F40C946F2C0C946E32F2E98A
:10461000EF16F1E0FF0611F40C947F2F10F40C94C8
:104620007B2F3AE9E31631E0F30611F00C946E3279
:104630000E947C9D0C946E3246EFE41641E0F40635
:1046400011F40C94063128F584EFE81681E0F806A1
:1046500011F40C94E73010F00C940031ACEAEA1637
:10466000A1E0FA0611F00C946E3284EB282E8EE055
:10467000382EA0EDBEE06296BFAFAEAF6297E5EB1D
:10468000FDE06696FFAFEEAF669700E010E00C9499
:10469000DD2FB3E5EB16B3E0FB0611F40C94093102
:1046A000E7EEEE16E3E0FE0611F40C940C31F7EFA2
:1046B000EF16F1E0FF0611F00C946E320E94719D2E
:1046C0000C946E3280E50E94493E882361F00E947E
:1046D000D13E6B017C01BB24B394672B682B692B03
:1046E00031F4B12C04C0B12CC12CD12C760183E55E
:1046F0000E94493E882399F00E94053F6B017C018E
:10470000B1100FC0672B682B692B59F4D8018C911D
:10471000882339F061E0C8010E94267807C0BB20D9
:10472000A9F360E08EE294E00E94117881E080932A
:10473000830883E090E090937A0E8093790E0E9434
:10474000F94E0E944840C114D104E104F104E9F09B
:1047500080917B0E90917C0EA0917D0EB0917E0E8B
:10476000C80ED91EEA1EFB1E0E94CAABDC01CB019B
:104770008C199D09AE09BF09B7FF13C0809183084A
:10478000882379F00E94AA94EFCF80918308882330
:1047900019F00E94AA94F9CF60E08BE194E00E94A6
:1047A0001178109283080C946E320E94C0A00C9471
:1047B0006E3280916C0F90916D0F019719F40E94E9
:1047C000CAAB08C06091760F7091770F8091780F17
:1047D0009091790F0091720F1091730F2091740FC7
:1047E0003091750F601B710B820B930B28EE33E039
:1047F00040E050E00E9429C280916E0F90916F0FAF
:10480000A091700FB091710FBC01CD01620F731FA9
:10481000841F951FBCE3CB2ED12CE12CF12CA701DA
:1048200096010E9429C2762E672ECA01B901A701FE
:1048300096010E9429C26B017C01CA01B90128E1DD
:1048400030E040E050E00E9429C24B015C01C90108
:104850006DE671E00E9461B68E010F5F1F4F61151A
:10486000710599F06F927F92DF92CF929F928F9213
:104870009F938F937F936F9388E694E09F938F939A
:104880001F930F930E941BBE12C00097B1F06F924E
:104890007F92DF92CF929F928F929F938F9388E522
:1048A00094E09F938F931F930F930E941BBE0FB6AC
:1048B000F894DEBF0FBECDBF36C081149104A104B1
:1048C000B10479F06F927F92DF92CF929F928F9294
:1048D0008CE494E09F938F931F930F930E941BBED1
:1048E000E6CFC114D104E104F10469F06F927F9224
:1048F000DF92CF9284E494E09F938F931F930F9362
:104900000E941BBED4CF6F927F9280E494E09F936D
:104910008F931F930F930E941BBE0F900F900F90C9
:104920000F900F900F9060E0C8010E942678ECEC89
:10493000FEE084917F019FEFE91AF90A882321F0B4
:104940000E948D40F701F5CFB8018CE794E00E94FA
:1049500094408AE00E948D408091AC07882311F436
:104960000C946E321092AC076091E20E7091E30EDF
:10497000072E000C880B990B0E9452BE2091310229
:104980003091320240913302509134020E9419B9A1
:10499000181614F00C946E321092E30E1092E20E80
:1049A0000E943EA50C946E3283E50E94493E882306
:1049B00011F40C946E320E94C43E7C018F3F91052D
:1049C00019F010F00C946E3280E50E94493E882365
:1049D00039F00E94C43E8C0197FF04C00C946E32E3
:1049E0000DE010E0D02EECEBF2E0C8019927219108
:1049F00031912817390731F0B3E0EC30FB07B9F7F4
:104A00000C94483608EB1DE0F8018491882329F0C6
:104A10000F5F1F4F0E948D40F7CF09E814E0F801A7
:104A20008491882311F40C946E320F5F1F4F0E9403
:104A30008D40F5CF0E9436A80C946E3280916C0F99
:104A400090916D0F019711F00C946E3282E090E01E
:104A500090936D0F80936C0F0E94CAAB6093760F9A
:104A60007093770F8093780F9093790F0C946E3238
:104A70000E942DA60C946E3288E690E00E9484433A
:104A800081110C946E328091040883FF02C00C9453
:104A90006E3283E50E94493E882371F10E94DC3E1C
:104AA0000E9425B87093E30E6093E20E0E943EA52B
:104AB0000E94DC3E20E030E040E251E40E944BBE28
:104AC00018163CF00E942DA660E086EA94E00E9451
:104AD00011780E94DC3E2091E40E3091E50E409169
:104AE000E60E5091E70E0E9419B918162CF460E0FA
:104AF00088E994E00E9411780E9447B20C946E32CB
:104B00008EE40E94493E882311F40C946E32809109
:104B10001E0490911F044AE050E060E070E00196AE
:104B20000E9464BB6093200470932104809322044C
:104B3000909323040C946E3283E50E94493E8823AF
:104B400019F00E945C3E01C080E080930408ECEC08
:104B5000FEE084918F010F5F1F4F882321F00E9498
:104B60008D40F801F6CFE7ECF4E084918F010F5F00
:104B70001F4F882321F00E948D40F801F6CF8091CD
:104B800004088823A1F1A9EBCA2EA4E0DA2EE12CB7
:104B9000F12C20E08091040890E00E2C02C0959545
:104BA00087950A94E2F780FF17C0BB24B394B20E36
:104BB000222319F08CE20E948D40F6012591349158
:104BC000F901849189010F5F1F4F882321F00E9412
:104BD0008D409801F5CF2B2DFFEFEF1AFF0A32E041
:104BE000C30ED11C45E0E416F104A1F60CC0E3ECC1
:104BF000F4E084918F010F5F1F4F882321F00E9402
:104C00008D40F801F6CF8AE00E948D400C946E3200
:104C1000109209020C946E328EEC94E00E943E9445
:104C200083E50E94493E882369F00E945C3E8093A0
:104C300067028D3310F40C946E328CE3809367021C
:104C40000C946E32ECECFEE084918F010F5F1F4FED
:104C5000882321F00E948D40F801F6CF4091670231
:104C600050E060E070E083EE94E00E949F418AE0B3
:104C70000E948D400C946E328091040883FF02C024
:104C80000C946E3283E50E94493E882311F40C9403
:104C90006E320E94DC3E0E9425B8709353066093EA
:104CA00052060E941D490C946E3289E690E00E94E3
:104CB0008443811111C0EAEEF4E084918F010F5F0B
:104CC0001F4F882321F00E948D40F801F6CF0E94EB
:104CD00078A08AE00E948D4010927A0E1092790E90
:104CE0000C9431388DE690E00E94844381110C943D
:104CF0006E328091040883FF02C00C946E3283E50B
:104D00000E94493E69968FAF6997811105C082E57F
:104D10000E94493E8823C1F10E94DC3E0E9425B8D2
:104D20007093E30E6093E20E0E943EA50E94DC3E6B
:104D300020E030E040E251E40E944BBE181614F42B
:104D40000C945D360E942DA660E086E195E00E94FD
:104D500011786091E20E7091E30E072E000C880B23
:104D6000990B0E9452BE2091E40E3091E50E4091C5
:104D7000E60E5091E70E0E9419B918162CF460E067
:104D800088E095E00E9411780E9447B281E080930C
:104D9000090210927A0E1092790E68961CAE1DAE22
:104DA0001EAE1FAE6897A4961CAE1DAE1EAE1FAE03
:104DB000A49761961FAE61976D961FAE6D975CE3E9
:104DC000A5965FAFA5978CE1AD968FAFAD9796E4B2
:104DD000E1969FAFE197C12CD12CE0E8EE2EFFEBDE
:104DE000FF2E812C912C54016091E20E7091E30E04
:104DF000072E000C880B990B0E9452BE162F072F0E
:104E0000782E692E262F372F482F592FB601C7012C
:104E10000E944BBE882341F12091E40E3091E50EB3
:104E20004091E60E5091E70E612F702F872D962D41
:104E30000E944BBE881F8827881F61968FAF61979D
:104E40006996AFAD6997AA2399F0882389F080917C
:104E50000902882311F40C946E3260E08DEE94E028
:104E60000E9411780C946E321C2D0D2D7E2C6F2C0F
:104E70000E94CAAB6B017C01DC01CB01A4962CAD76
:104E80003DAD4EAD5FADA497821B930BA40BB50B4C
:104E9000B7FD47C0D701C60188519C4FAF4FBF4FE8
:104EA000A4968CAF9DAFAEAFBFAFA4970E9478A081
:104EB000E4E0F5E084912F019FEF491A590A882315
:104EC00021F00E948D40F201F5CF81149104A104DC
:104ED000B104D1F0D501C401805F984DAF4FBF4FF1
:104EE000BC01CD016C197D098E099F0928EE33E0C4
:104EF00040E050E00E9429C2CA01B9010E94BC41B1
:104F00008AE00E948D400DC0E1E0F5E084912F0120
:104F1000AFEF4A1A5A0A882321F00E948D40F2010D
:104F2000F5CF0E94AA940E9448402090E40E309051
:104F3000E50E4090E60E5090E70E9101A201612F20
:104F4000702F872D962D0E94B8B69F7781149104FB
:104F5000A104B10449F420E030E040E85FE30E949E
:104F60004BBE87FF0BC008C020E030E040E450E4B7
:104F70000E9419B9181614F4460157016196BFAD85
:104F80006197BB2309F443C068962CAD3DAD4EAD8F
:104F90005FAD6897211531054105510541F0D701F5
:104FA000C601821B930BA40BB50BB7FD30C091015A
:104FB000A2016D966FAD6D97A5967FADA597AD9645
:104FC0008FADAD97E1969FADE1970E94B8B620E016
:104FD00030E040EC5FE30E944BBE87FD38CFD70145
:104FE000C601805A9541AF4FBF4F68968CAF9DAFB9
:104FF000AEAFBFAF68976D962FAE6D97A5963FAEDB
:10500000A597AD964FAEAD97E1965FAEE1978091D3
:105010000902882309F41BCF81149104A104B1046F
:1050200029F4C12ED02EE72CF62CDECE90E1C91A41
:1050300097E2D90AE108F108C818D908EA08FB087C
:10504000F7FE05CFEECF83E50E94493E882321F08D
:105050000E94B73E8C0102C00FEF10E080E50E9475
:10506000493E882331F00E94B73E892B11F00C9401
:105070006E3298010F3F110519F010F02FEF30E05C
:105080003093AE072093AD070C946E3280E50E94FA
:10509000493E811106C01092AE071092AD070C94E4
:1050A0006E320E94B73E892B11F00C946E32F3CF12
:1050B000109229040C946E3281E0809329040C94A0
:1050C0006F3283E50E94493E882361F00E94053FCC
:1050D000609368027093690280936A0290936B02F6
:1050E0000C946E3288E50E94493E81110C94613621
:1050F00089E50E94493E81110C9461368AE50E943F
:10510000493E81110C94613685E40E94493E81112B
:105110000C9461360E94F94E0E942D940C946E32CC
:1051200083E50E94493E882311F40C946E320E945C
:10513000053F60937F0E7093800E8093810E909355
:10514000820E0C946E326CE0C62E63E0D62E7EE1A9
:10515000E72E78E0F72E10E0D6018D916D010E94C8
:10516000493E882309F46DC0133009F063C00E94E2
:10517000DC3E4B015C0120E030E040EA51E40E945B
:105180004BBE87FF4EC0A501940160912A08709123
:105190002B0880912C0890912D080E94B3B72B0109
:1051A0003C019B01AC0160916A0870916B08809191
:1051B0006C0890916D080E94B1BE60936A0870936C
:1051C0006B0880936C0890936D08A3019201609125
:1051D0005A0870915B0880915C0890915D080E946C
:1051E000B1BE60935A0870935B0880935C089093FB
:1051F0005D086091110870911208809113089091D8
:1052000014080E9450BEA30192010E94B1BE0E94E8
:105210002CB8609311087093120880931308909330
:10522000140880922A0890922B08A0922C08B09221
:105230002D0807C00E94DC3EF701608371838283E2
:1052400093831F5FF4E0EF0EF11C143009F084CF5C
:105250000E94096B0C946E320E94609F0C946E3217
:1052600084918F010F5F1F4F882311F40C946E32CD
:105270000E948D40F801F4CF60E0C8010E942678BA
:105280000C946E32E8E3F6E084918F010F5F1F4FBC
:10529000882321F00E948D40F801F6CFE0E3F6E08C
:1052A00084918F010F5F1F4F882321F00E948D4052
:1052B000F801F6CF659B03C00CE713E002C001E8DC
:1052C00013E0D8018D918D01882319F00E948D4043
:1052D000F8CF8AE00E948D40E8E2F6E084918F01E9
:1052E0000F5F1F4F882321F00E948D40F801F6CFF9
:1052F000649B03C00CE713E002C001E813E0F8016F
:1053000081918F01882319F00E948D40F8CF8AE0A7
:105310000E948D40E0E2F6E084918F010F5F1F4F05
:10532000882321F00E948D40F801F6CF809103017F
:1053300081FF03C00CE713E002C001E813E0D801CD
:105340008D918D01882319F00E948D40F8CF8AE05D
:105350000E948D40E8E1F6E084918F010F5F1F4FBE
:10536000882321F00E948D40F801F6CF809103013F
:1053700080FF03C00CE713E002C001E813E0F8016E
:1053800081918F01882319F00E948D40F8CF8AE027
:105390000E948D40E0E1F6E084918F010F5F1F4F86
:1053A000882321F00E948D40F801F6CF4B9B03C06B
:1053B0000CE713E002C001E813E0D8018D918D01E4
:1053C000882319F00E948D40F8CF8AE00E948D401A
:1053D000E8E0F6E084918F010F5F1F4F882321F0F2
:1053E0000E948D40F801F6CF4A9B03C00CE713E002
:1053F00002C001E813E0F80181918F01882309F4CC
:1054000002CC0E948D40F7CF81E080933A028093D6
:105410005B0D0C946F3210923A0210925B0D0C945B
:105420006E3283E50E94493E8823F9F00E94C43E13
:10543000182F8230D8F0E8EBFDE084918F010F5FE8
:105440001F4F882321F00E948D40F801F6CFE2E53E
:10545000F6E084918F010F5F1F4F882311F40C94A5
:105460006E320E948D40F801F4CF10E088E40E9473
:10547000493E8823B1F00E94C43EE12FF0E0843120
:1054800091053CF0853021E092072CF084E091E01A
:1054900002C084E190E0EE0FFF1FE155F84F9183C9
:1054A000808386E40E94493E882311F40C946E3276
:1054B0000E94C43EE12FF0E0EE0FFF1FED54F84FC5
:1054C0008F3F910519F014F08FEF90E097FF02C025
:1054D00080E090E0918380830C946E3288EC90E0C1
:1054E0000E94844381110C946E3284E40E94493EF0
:1054F000882311F40C946E320E94DC3E11E020E00F
:1055000030E0A9010E944BBE811101C010E0109350
:105510007208112359F10091240410E00E94DC3E2E
:10552000000F111F000F111FF801E55BFD4F608395
:1055300071838283938320E030E0A90160914B0264
:1055400070914C0280914D0290914E020E944BBE90
:1055500081110CC080E090E0A0E4B0E480934B02A5
:1055600090934C02A0934D02B0934E020E94E2939E
:10557000B5C796E3E92E98E0F92E0CE013E024E09D
:10558000D22ED00ED8018D918D010E94493E8823E4
:1055900049F00E94DC3E0E942CB8F70160837183C1
:1055A00082839383F4E0EF0EF11CD012EBCF0E94C4
:1055B000F35A94C7BEE4EB2EB8E0FB2E0CE013E0E8
:1055C00084E0D82ED00ED8018D918D010E94493EE5
:1055D000882339F00E94DC3EF70160837183828367
:1055E0009383F4E0EF0EF11CD012EDCF77C783E583
:1055F0000E94493E8823D9F00E94DC3EAB01BC01E9
:1056000040936E0850936F08609370087093710810
:1056100040932E0850932F08609330087093310800
:105620008EEC96E00E94D9458AE00E948D4080E58C
:105630000E94493E882399F00E94DC3EAB01BC01E8
:1056400040936E0850936F086093700870937108D0
:1056500081EB96E00E94D9458AE00E948D4082E568
:105660000E94493E882399F00E94DC3EAB01BC01B8
:105670004093320850933308609334087093350890
:1056800082E996E00E94D9458AE00E948D4084E537
:105690000E94493E882309F421C70E94DC3EAB01E9
:1056A000BC0140932E0850932F08609330087093EC
:1056B000310884E796E00E94D9458AE00E948D4037
:1056C0000DC783E50E94493E882351F00E94DC3ECD
:1056D00060934A0870934B0880934C0890934D0850
:1056E00084E50E94493E882351F00E94DC3E60938D
:1056F000460870934708809348089093490882E4CD
:105700000E94493E882351F00E94D13E60930008D8
:1057100070930108809302089093030888E50E9423
:10572000493E882351F00E94DC3E60935E087093EE
:105730005F08809360089093610889E50E94493E64
:10574000882351F00E94DC3E6093620870936308E6
:1057500080936408909365088AE50E94493E8823F7
:1057600051F00E94DC3E6093660870936708809356
:1057700068089093690885E40E94493E882309F4EB
:10578000ADC60E94DC3E60936A0870936B088093FC
:105790006C0890936D08A2C60E941FA09FC683E567
:1057A0000E94493E882309F499C60E94C43E909302
:1057B00059028093580292C68DED90E00E94844376
:1057C00081118CC683E50E94493E882309F486C670
:1057D0000091240410E00E94C43E000F111FF80144
:1057E000EA5AFD4F9183808379C60E94719E76C6E6
:1057F0000E943F9E73C60E94A19D70C683E50E94D1
:10580000493E082F8823A1F00E94DC3E60934302AA
:1058100070934402809345029093460211E020E089
:1058200030E0A9010E944BBE811110E01093FF07E8
:1058300080E50E94493E182F8823A9F020E030E03F
:10584000A9016091430270914402809145029091B8
:1058500046020E944BBE882319F00E948B3E182FEF
:105860001093FF073BC6011139C6ECECFEE08491B2
:105870008F010F5F1F4F882321F00E948D40F80198
:10588000F6CF8091FF07811103C06BE873E002C07F
:105890006EE773E08BE097E00E94944020E030E0F8
:1058A00040E05FE3609143027091440280914502C1
:1058B000909146020E94B9B60E9425B88AEF96E000
:1058C0000E946B43E6EFF6E084918F010F5F1F4F5C
:1058D000882309F403C60E948D40F801F5CF85E4C2
:1058E0000E94493E882321F00E94C43E7C0102C0F0
:1058F000E12CF12C83E40E94493E882349F00E9468
:10590000C43EC656DF4F99838883CA59D04008C029
:1059100025E030E0C656DF4F39832883CA59D0408E
:1059200085E50E94493E882341F00E948B3EC45683
:10593000DF4F8883CC59D04005C0C456DF4F188252
:10594000CC59D04083E50E94493E882379F00E94DB
:10595000DC3E69966FAF6997A1967FAFA1976D9670
:105960008FAF6D97A5969FAFA59710C069961FAE94
:105970006997A1961FAEA197F7FC0EC036E16D9610
:105980003FAF6D9743E4A5964FAFA597E114F1049F
:1059900059F41092240408C05CE86D965FAF6D97CF
:1059A00082E4A5968FAFA59710927A0E1092790E89
:1059B0000E94CAAB4B015C01EF2819F40FE813E019
:1059C0000EC002EA13E0D8018D918D01882319F0F1
:1059D0000E948D40F8CF8AE00E948D407FC5F8017B
:1059E00081918F01882319F00E948D40F8CF8AE0C1
:1059F0000E948D400E946D498FE78093560681E09A
:105A000080930902CE56DF4F88829982AA82BB8298
:105A1000C259D040C356DF4F88829982AA82BB8286
:105A2000CD59D040E1961FAEE197F0E4A996FFAFC3
:105A3000A9972CE1E5962FAFE59736E4E9963FAFBD
:105A4000E997ED961FAEED97C058DF4F1882C0580A
:105A5000D040CC57DF4F1882C458D040C857DF4FD2
:105A60001882C858D040C357DF4F188219821A8253
:105A70001B82CD58D040C757DF4F188219821A8237
:105A80001B82C958D040C12CD12C7601FFE74F2E84
:105A9000512C612C712C8FE790E0A0E0B0E068966B
:105AA0008CAF9DAFAEAFBFAF6897CA56DF4F1882BD
:105AB00019821A821B82C659D04091E0CF56DF4F1F
:105AC0009883C159D040AE961FAE1EAEAE9710E07F
:105AD00000E0312C212C80910902882309F401C2B5
