:100000000C943E100C946F100C946F100C946F10A5
:100010000C946F100C946F100C946F100C946F1064
:100020000C946F100C946F100C946F100C946F1054
:100030000C946F100C947A450C946F100C946F1004
:100040000C946F100C94FB6C0C946F100C946F104C
:100050000C946F100C946F100C9469940C947A9B10
:100060000C946F100C94293C0C946F100C946F102E
:100070000C946F100C946F100C946F100C946F1004
:100080000C946F100C946F100C946F100C946F10F4
:100090000C946F100C946F100C946F100C946F10E4
:1000A0000C946F100C946F100C946F100C946F10D4
:1000B0000C946F100C946F100C946F100C946F10C4
:1000C0000C946F100C946F100C946F100C946F10B4
:1000D0000C946F100C946F100C946F100C946F10A4
:1000E0000C946F10C494D494F394F894FB940095FA
:1000F000039508950B95109513951895229594994D
:10010000979986998A999099CE999B999F99A59943
:10011000A999AD99B399B799BB99CE99C199C59948
:10012000C999949A999A9E9AA89AB29A2B9BBC9A2A
:10013000C49ACC9AD69AE09AEA9AF99A039B2B9B96
:100140000D9B179B219B084AD73B3BCE016E84BC7D
:10015000BFFDC12F3D6C74319ABD56833DDA3D0021
:10016000C77F11BED9E4BB4C3E916BAAAABE00006A
:1001700000803F05A84CCDB2D44EB93836A9020C48
:1001800050B9918688083CA6AAAA2ABE0000008021
:100190003F000C94FA3E0C946E490C94C1990C9457
:1001A000BC9A0C944D450C94F84F0C94894B0C94CC
:1001B00022950C9410950C948A990C94A5990C9402
:1001C00094990C94219B0C9418950C94E67F0C94B4
:1001D0005F8A0C94039B0C9413950C94BB990C941C
:1001E0007B4B0C94999A0C94A89A0C94C3A20C94EF
:1001F0002B9B0C94179B0C9419530C94B7510C9493
:10020000974B0C942B7F0C9403950C94D69A0C94DA
:1002100095400C94F99A0C9490990C9497990C949D
:10022000949A0C940B950C94747C0C94B5510C948A
:10023000F8940C9485490C94B7990C94257D0C94F2
:10024000B29A0C94FE4F0C94806C0C94B3990C945D
:10025000CC9A0C9490800C940A3D0C949B990C942D
:1002600000950C94C5990C949F990C9408950C9446
:10027000573C0C94D4940C9436580C9439580C94E4
:1002800004500C940D9B0C94E09A0C9497410C94A0
:10029000F44E0C9486990C94EA9A0C94F24F0C94B8
:1002A000357F0C94A9990C94C9990C94C49A0C9418
:1002B000A1300C94CE990C941B530C941D530C94A8
:1002C000A54B0C94CF7D0C949E9A0C94AB510C943E
:1002D000377F0C94AD990C94C4940C94FB940C94BB
:1002E00057490C94F394434F4D4D554E4943415457
:1002F000494F4E0044525952554E004552524F52AA
:100300005300494E464F004543484F0020746F6FDD
:10031000206C6F6E6720657874727573696F6E20DC
:1003200070726576656E7465640A0020636F6C6434
:1003300020657874727573696F6E2070726576656A
:100340006E7465640A0047322F473320626164206F
:10035000706172616D65746572730A0020666972FE
:100360007374005A0059005800486F6D65200020D2
:1003700066697273740A005A0059005800486F6D1C
:1003800065200028422961636B00284629726F6E40
:1003900074002852296967687400284C29656674BE
:1003A0000052756E6E696E6720696E204452592D39
:1003B00052554E206D6F64650A00473239204175F1
:1003C000746F20426564204C6576656C696E670ABF
:1003D000003F2856296572626F7365204C6576650B
:1003E0006C20697320696D706C61757369626C65EE
:1003F0002028302D34292E0A00205A3A2000205976
:100400003A200042656420583A20005465616D200E
:100410004D616B657257656C74206C697374612EE5
:10042000004573706572616E646F206F7264656EF3
:1004300065730053696E206D6F76696D69656E74C2
:100440006F002569730025696D2025697300256992
:10045000682025696D202569730025696420256958
:10046000682025696D202569730025697920256933
:1004700064202569682025696D2025697300507204
:10048000696E742074696D653A200050726F7465EE
:10049000637465642050696E0A0043616C656E7414
:1004A000616E646F2E2E2E005465616D204D616B60
:1004B000657257656C74206C697374612E00070354
:1004C0000203FB02F402E6026F66660044454255F1
:1004D000473A0050617261646120646520656D6512
:1004E0007267656E636961004D3131332053006F6F
:1004F0006B0043616C656E74616D69656E746F202D
:100500006C6973746F003F0A0020573A0043616CB6
:10051000656E74616E646F2E2E2E005465616D20C1
:100520004D616B657257656C74206C697374612ED4
:10053000005465616D204D616B657257656C742068
:100540004170616761722E004649524D57415245D4
:100550005F4E414D453A4D61726C696E20312E31CE
:100560002E302D524338202847697468756229203F
:10057000534F555243455F434F44455F55524C3AA4
:1005800068747470733A2F2F6769746875622E638C
:100590006F6D2F4D61726C696E4669726D77617215
:1005A000652F4D61726C696E2050524F544F434F0E
:1005B0004C5F56455253494F4E3A312E30204D41F3
:1005C0004348494E455F545950453A5465616D2042
:1005D0004D616B657257656C742045585452554493
:1005E00045525F434F554E543A3120555549443A90
:1005F00063656465326132662D343161322D343782
:1006000034382D396231322D6335356336326633F5
:10061000363766660A007A5F6D61783A20007A5F45
:100620006D696E3A2000795F6D61783A2000795FDC
:100630006D696E3A2000785F6D61783A2000785FCE
:100640006D696E3A20005265706F7274696E672032
:10065000656E6473746F70207374617475730A00CF
:100660004D31343520533C696E6465783E206F759A
:1006700074206F662072616E67652028302D3129E5
:100680000A00205A00205900580020204D61783A75
:100690002000205A00205900580020204D696E3A51
:1006A0002000456E63656E6465720041706167612C
:1006B0007200536F667420656E6473746F70733A62
:1006C000200020643A0020693A0020703A00432953
:1006D0000A0061626C656420286D696E2074656D26
:1006E000702000436F6C6420657874727564657364
:1006F00020617265200044657366617365206170D6
:100700006C696361646F004572723A20546F6F20A8
:100710006661722100546F6F206661722066726F8D
:100720006D207265666572656E636520706F696EB7
:10073000740A003A20007A5F6D61783A20007A5F8F
:100740006D696E3A200044657366617365205A00D6
:100750004163746976652045787472756465723A90
:100760002000556E6B6E6F776E20636F6D6D616EDE
:10077000643A202200656E7175657565696E672043
:1007800022004E6F204C696E65204E756D62657259
:10079000207769746820636865636B73756D2C20BE
:1007A0004C617374204C696E653A2000506172612F
:1007B000646120646520656D657267656E6369615B
:1007C00000446574656E696461005072696E746599
:1007D000722073746F707065642064756520746F27
:1007E000206572726F72732E204669782074686576
:1007F000206572726F7220616E6420757365204D82
:1008000039393920746F20726573746172742E20C7
:100810002854656D70657261747572652069732006
:1008200072657365742E2053657420697420616647
:100830007465722072657374617274696E67290AD7
:10084000004E6F20436865636B73756D2077697424
:1008500068206C696E65206E756D6265722C204C27
:10086000617374204C696E653A2000636865636B40
:1008700073756D206D69736D617463682C204C61B4
:100880007374204C696E653A20004C696E65204E89
:10089000756D626572206973206E6F74204C617390
:1008A00074204C696E65204E756D6265722B312C1B
:1008B000204C617374204C696E653A20004D3131D3
:1008C000300020496E76616C6964206578747275B9
:1008D000646572200000004843000048430000C8DF
:1008E00043000000000000000000000000205A3A11
:1008F000200020593A200042656420583A20002008
:100900003D3D3D3D00202020200042696C696E6520
:100910006172204C6576656C696E67204772696408
:100920003A0A200025753A25303275002530327597
:100930003A25303275005A00590058000120004312
:100940006F6E74726F6C00507265706172617200CC
:10095000416A757374617200496E666F726D61638E
:10096000696F6E00466C756A6F00466C756A6F0041
:1009700056656E74696C61646F720056656E746959
:100980006C61646F7200426F7175696C6C610042DA
:100990006F7175696C6C610056656C6F6369646139
:1009A000640056656C6F6369646164004D656E75C3
:1009B000207072696E636970616C004D343238006A
:1009C000456E66726961720050726563616C656E36
:1009D000746172204142530050726563616C656EB0
:1009E00074617220504C41004D3834004170616791
:1009F0006172206D6F746F726573004D6F766572F2
:100A000020656A6573004732380A47323900473239
:100A100039004E6976656C617220706C6174616634
:100A20006F726D6100416A757374617220646573E1
:100A3000666173657300473238004C6C657661728D
:100A400020616C206F726967656E004D656E752060
:100A50007072696E636970616C00025061726164EA
:100A60006120646520656D657267656E636961000C
:100A7000202D20496E76616C6964206578747275EA
:100A8000646572206E756D62657220210A00457280
:100A9000726F723A002D2D2D2D2D2D007C4D61721F
:100AA0006C696E7C002D2D2D2D2D2D0068747470B9
:100AB0003A2F2F6D61726C696E66772E6F726700C8
:100AC000687474703A2F2F6D61726C696E66772E40
:100AD0006F72670020312E312E302D5243380020A6
:100AE00020506C616E6E6572427566666572427901
:100AF0007465733A20002046726565204D656D6F00
:100B000072793A2000436F6D70696C65643A204ACF
:100B1000756E20203920323031370A00207C204188
:100B20007574686F723A20286775696C6C65726DB0
:100B30006F290A00323031362D31322D30362031D6
:100B4000323A303000204C61737420557064617407
:100B500065643A2000312E312E302D5243380A0080
:100B60004D61726C696E0020536F667477617265B7
:100B70002052657365740A00205761746368646F5E
:100B8000672052657365740A002042726F776E2089
:100B90006F75742052657365740A0020457874651A
:100BA000726E616C2052657365740A00506F7765D0
:100BB0007255700A0073746172740A00456E647332
:100BC000746F7073202563202563202563202563BF
:100BD00000205A3A0020593A0020583A00656E64C5
:100BE00073746F7073206869743A20006563686F6E
:100BF0003A004D6F7665722058004D6F7665722011
:100C000059004D6F766572205A004578747275737D
:100C10006F72004578747275736F72004D6F7665F0
:100C200072205A004D6F7665722059004D6F7665BF
:100C3000722058004D6F76657220656A6573004DAD
:100C40006F76657220302E316D6D004D6F76657256
:100C500020316D6D004D6F7665722031306D6D0005
:100C60005072657061726172005265737461757261
:100C70006172206D656D6F7269610046696C616DAE
:100C8000656E746F004D6F76696D69656E746F0087
:100C900054656D7065726174757261004D656E7535
:100CA000207072696E636970616C00507265636177
:100CB0006C656E74617220414253436F6E66696762
:100CC0000050726563616C656E74617220504C41B6
:100CD000436F6E666967005049442D440050494493
:100CE0002D44005049442D49005049442D4900509D
:100CF00049442D50005049442D50002002204661A7
:100D000063740020022046616374002002204D615C
:100D100078002002204D6178002002204D696E008D
:100D20002002204D696E0041706167617200456E5E
:100D300063656E6465720054656D7065726174758B
:100D40007261204175746F2E0056656E74696C6116
:100D5000646F720056656E74696C61646F720042F4
:100D60006F7175696C6C6100426F7175696C6C6153
:100D700000436F6E74726F6C00426F7175696C6CBA
:100D80006100426F7175696C6C610056656E7469C3
:100D90006C61646F720056656E74696C61646F7229
:100DA0000054656D706572617475726100452070E4
:100DB00061736F732F6D6D0045207061736F732FBA
:100DC0006D6D005A207061736F732F6D6D005A2026
:100DD0007061736F732F6D6D0059207061736F7345
:100DE0002F6D6D0059207061736F732F6D6D0058FA
:100DF000207061736F732F6D6D0058207061736F79
:100E0000732F6D6D004163656C2E205669616A65B4
:100E1000004163656C2E205669616A650041636517
:100E20006C2E207265747261632E004163656C2EB6
:100E3000207265747261632E004163656C2E206DB3
:100E4000617845004163656C2E206D6178450041F5
:100E500063656C2E206D61785A004163656C2E20AD
:100E60006D61785A004163656C2E206D6178590080
:100E70004163656C2E206D617859004163656C2E6D
:100E8000206D617858004163656C2E206D61785843
:100E90000056656C2E207669616A65206D696E006A
:100EA00056656C2E207669616A65206D696E005604
:100EB0006D696E00566D696E00566D61784500561D
:100EC0006D61784500566D61785A00566D61785AAB
:100ED00000566D61785900566D61785900566D6104
:100EE000785800566D6178580056652D6A65726BAA
:100EF0000056652D6A65726B00567A2D6A65726BB5
:100F000000567A2D6A65726B0056792D6A65726B90
:100F10000056792D6A65726B0056782D6A65726B82
:100F20000056782D6A65726B004163656C6572616D
:100F300063696F6E004163656C65726163696F6EB2
:100F40000044657366617365205A00446573666189
:100F50007365205A00436F6E74726F6C0046696C43
:100F60002E204469612E0046696C2E204469612E52
:100F70000041706167617200456E63656E64657201
:100F8000004520696E206D6D3300436F6E74726F83
:100F90006C0020746F6F206C6F6E672065787472C0
:100FA0007573696F6E2070726576656E7465640A1C
:100FB0000020636F6C6420657874727573696F6E5E
:100FC0002070726576656E7465640A0070012C018C
:100FD00090012701B0012201C0011D01F00118019B
:100FE0001002130130020E01600209019002040197
:100FF000C002FF000003FA004003F5008003F00088
:10100000D003EB002004E6007004E100E004DC0003
:101010004005D700C005D2004006CD00D006C8006C
:101020008007C3003008BE00F008B900C009B40052
:10103000B00AAF00B00BAA00D00CA500000EA000B3
:10104000500F9B00C01096005012910000148C00AD
:10105000C0158700B0178200B0197D00D01B780042
:10106000001E730040206E0090226900F02464008E
:1010700040275F0090295A00E02B5500102E5000A9
:1010800020304B0010324600E033410090353C00E8
:101090001037370070383200A0392D00B03A2800E0
:1010A000A03B2300603C1E00103D1900903D140041
:1010B000103E0F00703E0A00C03E0500003F0000D9
:1010C00024F4D43050C38E20C2A24017828B7011FA
:1010D000127A910D816CD90AA861E108C758660798
:1010E000615143061E4B5D05C145A7041A41110419
:1010F000093D9803713931034036DB0265339102B3
:10110000D4305402802E1D02632CEE01752AC501D5
:10111000B028A001102781018F2564012B244B01E9
:10112000E0223401AC211F018D200D01801FFC0045
:10113000841EED00971DDF00B81CD200E61BC60020
:10114000201BBC00641AB200B219A8000A19A00042
:101150006A189900D117910040178B00B5168400CA
:1011600031167E00B31579003A157300C7146F006D
:1011700058146A00EE1366008813630025135E009E
:10118000C7125B006C12570015125400C1115100B8
:1011900070114F0021114B00D61049008D104700EF
:1011A0004610440002104200C00F4000800F3E0075
:1011B000420F3C00060F3B00CB0E3800930E370069
:1011C0005C0E3500270E3400F30D3200C10D3100E6
:1011D000900D3000600D2E00320D2D00050D2C00FD
:1011E000D90C2B00AE0C2900850C29005C0C2700C3
:1011F000350C27000E0C2600E80B2400C40B24003D
:10120000A00B23007D0B23005A0B2100390B21007A
:10121000180B2000F80A1F00D90A1E00BB0A1E0086
:101220009D0A1D00800A1D00630A1C00470A1B005E
:101230002C0A1B00110A1A00F7091A00DD0919000F
:10124000C4091900AB091900920917007B0918009D
:10125000630917004C09160036091600200916000C
:101260000A091500F5081500E0081400CC08140060
:10127000B8081400A4081400900813007D08120098
:101280006B081300580812004608120034081100B9
:10129000230811001208110001081100F0071000C6
:1012A000E0071000D0071000C0071000B0070F00C3
:1012B000A107100091070E0083070F0074070F00AD
:1012C00065070E0057070E0049070E003B070D008B
:1012D0002E070E0020070D0013070D0006070D0056
:1012E000F9060C00ED060D00E0060C00D4060C001B
:1012F000C8060C00BC060C00B0060C00A4060B00CF
:1013000099060C008D060B0082060B0077060B0079
:101310006C060B0061060A0057060B004C060A001B
:1013200042060A0038060A002E060A0024060A00B1
:101330001A060A001006090007060A00FD05090042
:10134000F4050900EB050900E2050900D9050900CB
:10135000D0050900C7050900BE050900B50508004C
:10136000AD050800A50509009C05080094050800C6
:101370008C050800840508007C0508007405080039
:101380006C050700650508005D05070056050800A7
:101390004E0507004705070040050800380507000F
:1013A000310507002A050700230507001C05060074
:1013B000160507000F0507000805060002050700CF
:1013C000FB040600F5040700EE040600E80406002E
:1013D000E2040700DB040600D5040600CF04060083
:1013E000C9040600C3040600BD040600B7040600D5
:1013F000B1040500AC040600A6040600A004050024
:101400009B04060095040500900406008A0405006C
:1014100085040500800406007A04050075040500B3
:10142000700405006B0405006604050061040500F6
:101430005C04050057040500520405004D04050036
:1014400048040500430405003E0404003A04050076
:1014500035040500300404002C04050027040400B2
:10146000230405001E0404001A04040016040500E9
:10147000110404000D040400090405000404040020
:1014800000040400FC030400F8030400F403040057
:10149000F0030400EC030400E8030400E403040088
:1014A000E0030400DC030400D8030400D4030400B8
:1014B000D0030400CC030400C8030300C5030300E9
:1014C00024F404D9201BC40C5C0E9804C4095F02E8
:1014D00065077101F405F900FB04B30048048700B7
:1014E000C10369005803550003034500BE023A00DA
:1014F0008402310053022A00290225000402200040
:10150000E4011C00C8011900AF0117009801140084
:1015100084011300710110006101100051010E00DF
:1015200043010D0036010B002B010B0020010B00C5
:10153000150109000C01090003010800FB00080067
:10154000F3000800EB000700E4000600DE000600E0
:10155000D8000600D2000600CC000500C700050038
:10156000C2000500BD000400B9000400B50004007D
:10157000B1000400AD000400A9000400A5000300B0
:10158000A20003009F0004009B00030098000300DA
:101590009500020093000300900003008D000200FC
:1015A0008B00030088000200860002008400030014
:1015B000810002007F0002007D0002007B0002002B
:1015C000790002007700010076000200740002003A
:1015D00072000100710002006F0002006D00010046
:1015E0006C0002006A00010069000200670001004F
:1015F0006600010065000100640002006200010055
:1016000061000100600001005F0002005D00010058
:101610005C0001005B0001005A000100590001005C
:10162000580001005700010056000100550001005C
:10163000540001005300000053000100520001005B
:1016400051000100500001004F0001004E00000059
:101650004E0001004D0001004C0001004B00000055
:101660004B0001004A000100490001004800000051
:10167000480001004700010046000000460001004C
:101680004500000045000100440001004300000047
:101690004300010042000000420001004100000040
:1016A00041000100400001003F0000003F00010038
:1016B0003E0000003E0001003D0000003D00010032
:1016C0003C0000003C0000003C0001003B0000002A
:1016D0003B0001003A0000003A0001003900000020
:1016E0003900010038000000380000003800010017
:1016F000370000003700010036000000360000000F
:101700003600010035000000350000003500010002
:1017100034000000340000003400010033000000F9
:1017200033000000330001003200000032000000EE
:1017300032000100310000003100000031000100E2
:101740003000000030000000300001002F000000D9
:101750002F0000002F0000002F0001002E000000CD
:101760002E0000002E0001002D0000002D000000C2
:101770002D0000002D0001002C0000002C000000B6
:101780002C0000002C0001002B0000002B000000AA
:101790002B0000002B0001002A0000002A0000009E
:1017A0002A0000002A000100290000002900000092
:1017B0002900000029000000290001002800000085
:1017C0002800000028000000280000002800010078
:1017D000270000002700000027000000270000006D
:1017E000270001002600000026000000260000005F
:1017F0002600000026000100250000002500000052
:101800002500000025000000250000002500010043
:101810002400000024000000240000002400000038
:10182000240001002300000023000000230000002A
:10183000230000002300000023000000230001001B
:101840002200000022000000220000002200000010
:101850002200000022000100210000002100000001
:1018600021000000210000002100000021000000F4
:1018700021000100200000002000000020000000E6
:1018800020000000200000002000000020000000D8
:10189000200001001F0000001F0000001F000000CA
:1018A0001F0000001F0000001F0000001F000100BB
:1018B0001E0000001E0000001E0000001E000000B0
:1018C00000000000000000000000C8435761726E75
:1018D000696E673A20486F6D696E672042756D705A
:1018E0002044697669736F72203C20310A00000041
:1018F000A0400000A040000000400000484300005D
:1019000048430000C843FFFF01454550524F4D205A
:1019100064697361626C65640A0048617264636F34
:101920006465642044656661756C742053657474E5
:10193000696E6773204C6F616465640A0020204DF6
:10194000383531205A005A2D50726F6265204F662B
:101950006673657420286D6D293A0A0020204D3287
:1019600030302044300A0020204D323030204400F6
:101970002044697361626C65640A0046696C616D3C
:10198000656E742073657474696E67733A002044E1
:101990000020490020204D33303120500050494470
:1019A0002073657474696E67733A0A0020460020DC
:1019B000420020480020204D3134352053004D6135
:1019C00074657269616C20686561747570207061FE
:1019D00072616D65746572733A0A00205A0020596D
:1019E0000020204D323036205800486F6D65206F42
:1019F000666673657420286D6D290A0020450020F5
:101A00005A00205900205800204200205400202075
:101A10004D323035205300416476616E6365642039
:101A20007661726961626C65733A20533D4D696EEF
:101A300020666565647261746520286D6D2F732959
:101A40002C20543D4D696E2074726176656C206661
:101A50006565647261746520286D6D2F73292C2073
:101A6000423D6D696E696D756D207365676D656E5C
:101A7000742074696D6520286D73292C20583D6D84
:101A80006178696D756D205859206A65726B2028E0
:101A90006D6D2F73292C20205A3D6D6178696D750D
:101AA0006D205A206A65726B20286D6D2F73292C6A
:101AB0002020453D6D6178696D756D2045206A6512
:101AC000726B20286D6D2F73290A0020540020525C
:101AD0000020204D323034205000416363656C6536
:101AE000726174696F6E733A20503D7072696E74E2
:101AF000696E672C20523D72657472616374206157
:101B00006E6420543D74726176656C0A0020450055
:101B1000205A0020590020204D3230312058004DED
:101B20006178696D756D20416363656C6572617480
:101B3000696F6E20286D6D2F7332293A0A00204597
:101B400000205A0020590020204D32303320580008
:101B50004D6178696D756D20666565647261746547
:101B60007320286D6D2F73293A0A00204500205AF2
:101B70000020590020204D393220580053746570E0
:101B8000732070657220756E69743A0A0052657030
:101B90006F736F2E2E2E0020706F736974696F6ED5
:101BA000206F7574206F662072616E67652E0A0063
:101BB0003F50726F6265200020403A00202F0020C5
:101BC000543A00205A3A0020423A0020436F756E82
:101BD0007420413A200020453A00205A3A0020590A
:101BE0003A00583A0053657474696E672054726104
:101BF00076656C20416363656C65726174696F6EB4
:101C00003A200053657474696E672052657472617E
:101C1000637420416363656C65726174696F6E3AC9
:101C2000200053657474696E67205072696E742069
:101C3000416363656C65726174696F6E3A2000532D
:101C4000657474696E67205072696E7420616E6489
:101C50002054726176656C20416363656C657261C6
:101C600074696F6E3A200023646566696E65202092
:101C700044454641554C545F4B64200023646566DF
:101C8000696E65202044454641554C545F4B6920A0
:101C90000023646566696E65202044454641554CC5
:101CA000545F4B702000504944204175746F747527
:101CB0006E652066696E697368656421205075746D
:101CC00020746865206C617374204B702C204B6904
:101CD00020616E64204B6420636F6E7374616E7458
:101CE000732066726F6D2062656C6F7720696E7409
:101CF0006F20436F6E66696775726174696F6E2ECF
:101D0000680A00504944204175746F74756E6520EF
:101D10006661696C6564212074696D656F75740A0C
:101D200000504944204175746F74756E652066617A
:101D3000696C6564212054656D706572617475729B
:101D40006520746F6F20686967680A00204B643AE9
:101D50002000204B693A2000204B703A20000A20D6
:101D6000436C617373696320504944200A00205416
:101D7000753A2000204B753A2000206D61783A209A
:101D800000206D696E3A200020643A2000206269CC
:101D900061733A2000526573656E643A20006F6B80
:101DA00000627573793A2070617573656420666F9F
:101DB0007220696E7075740A00627573793A2070CA
:101DC000617573656420666F7220757365720A00B1
:101DD000627573793A2070726F63657373696E67A9
:101DE0000A0050617261646120646520656D6572EE
:101DF00067656E636961005061726164612064654A
:101E000020656D657267656E63696100506C656120
:101E10007365207265736574005052494E54455283
:101E20002048414C544544005072696E74657220DC
:101E300068616C7465642E206B696C6C2829206362
:101E4000616C6C6564210A006265640A002C207371
:101E5000797374656D2073746F70706564212048A8
:101E600065617465725F49443A20004572726F7211
:101E70002064652074656D706572617475726100AF
:101E8000546865726D616C2052756E61776179007E
:101E90004572726F723A20616C2063616C656E747A
:101EA00061720048656174696E67206661696C657E
:101EB00064004572726F723A20616C2063616C65D8
:101EC0006E7461720048656174696E67206661694D
:101ED0006C6564004572726F723A2054656D7020B3
:101EE0004D6178696D61004D415854454D502074E5
:101EF0007269676765726564004572726F723A2035
:101F000054656D70204D696E696D61004D494E5488
:101F1000454D502074726967676572656400000002
:101F20002100240027002A002D0030003300010189
:101F30000000040107010A0100002200250028001A
:101F40002B002E00310034000201000005010801C1
:101F50000B01000020002300260029002C002F0088
:101F60003200000100000301060109010505050515
:101F7000070508080808020202020A0A0808040401
:101F8000040401010101010101010303030303032F
:101F90000303040707070C0C0C0C0C0C0C0C0202BE
:101FA000020206060606060606060B0B0B0B0B0BBB
:101FB0000B0B010210202008081020401020408048
:101FC00002010201080402010102040810204080FD
:101FD000804020100804020180040201804020108B
:101FE00008040201080402010102040810204080D4
:101FF000010204081020408000000A0B02090C0DA9
:102000000E080703040100000000000000000000AB
:1020100000000000000000000000000000000000C0
:10202000000000001211100000000000000000007D
:1020300000000000000000000000000000004E4111
:102040004E494E495459494E46CDCCCC3D0AD72332
:102050003C17B7D13877CC2B329595E6241FB14F7A
:102060000A000020410000C84200401C4620BCBEBF
:102070004CCA1B0E5AAEC59D7400C3A211241FBECC
:10208000CFEFD1E2DEBFCDBF00E00CBF14E0A0E097
:10209000B2E0E0E7F5E601E00BBF02C007900D9269
:1020A000A233B107D9F72EE0A2E3B4E001C01D923C
:1020B000A036B207E1F710E1CEE3D0E100E006C0C0
:1020C00021970109802FFE010E94F9A6CD33D10787
:1020D00080E00807A9F70E94569E0C94B6B20C94B3
:1020E00000002F923F924F925F926F927F928F9259
:1020F0009F92AF92BF92CF92DF92EF92FF920F9397
:102100001F93CF93DF93CDB7DEB7C558D1090FB674
:10211000F894DEBF0FBECDBF0091F60620E6029F09
:10212000800111240F5B1B4F1093C2050093C10562
:102130008091870780FF18C0ECEEFBE084917F015F
:102140003FEFE31AF30A882321F00E94B836F70123
:10215000F5CFD8018D918D01882319F00E94B836F2
:10216000F8CF8AE00E94B8362091C1053091C205AF
:10217000F90180812F5F3F4F8032D1F3F093C20588
:10218000E093C1058E3469F01091C1050091C2053C
:102190006AE270E0812F902F0E941CAA0097D1F470
:1021A00020C0818190ED980F9A3010F08D3261F748
:1021B0003296DF0131962C9120532A30D0F3CD0195
:1021C000FC01019620812032D9F3F093C205E093FF
:1021D000C105DACFFC0131968291803231F08A322A
:1021E00021F0A12FB02F9D9102C01082F5CFFD01EB
:1021F000808111968032D9F380538A3020F0ECEE42
:10220000FBE00C944E2AE12CF12C2AE02E9DB0012B
:102210002F9D700D11247B01B0E3EB1AF108819121
:10222000E80EF11C87FDFA94808180538A3070F3A8
:102230008F013196D8018C918032D1F310934004F4
:1022400000933F0421E030E03093C60D2093C50D8C
:102250009D3411F40C943C1B943511F40C94EF282C
:10226000973411F00C940729BCE1EB16F10409F442
:1022700049C7A8F4F4E0EF16F10438F480919D0208
:1022800022E0E216F10468F142C134E0E316F10401
:1022900011F00C94452A0E9408890C94452A4AE5BD
:1022A000E416F10411F40C947A1A68F48DE1E8163E
:1022B000F10409F47AC79EE1E916F10411F40C94D3
:1022C00073190C94452AABE5EA16F10411F40C9449
:1022D0007E1ABCE5EB16F10411F40C94831A0C94ED
:1022E000452A882311F40C94452A0E944D8985EED5
:1022F0009CE00E947D920E9473368091870783FD47
:1023000093C0C090F10CD090F20CE090F30CF090E0
:10231000F40C2091D1063091D2064091D306509111
:10232000D406C701B6010E949CAE882309F47CC084
:1023300080918207811134C02091490230914A0274
:1023400040914B0250914C026091C4077091C507B7
:102350008091C6079091C7070E949CAE87FF20C05E
:10236000C092D106D092D206E092D306F092D40663
:10237000ECEEFBE084918F010F5F1F4F882321F06B
:102380000E94B836F801F6CFEBE2F3E084918F01BA
:102390000F5F1F4F882321F00E94B836F801F6CF57
:1023A000C090F10CD090F20CE090F30CF090F40C93
:1023B0002091D1063091D2064091D3065091D40697
:1023C000C701B6010E9409A70E9476A897FF07C01F
:1023D00090958095709561957F4F8F4F9F4F693C89
:1023E00071058105910504F1C092D106D092D20603
:1023F000E092D306F092D406ECEEFBE084918F01DC
:102400000F5F1F4F882321F00E94B836F801F6CFE6
:10241000ECE0F3E084918F010F5F1F4F882321F0E0
:102420000E94B836F801F6CF2091E50C3091E60C09
:102430004091E70C5091E80C6091C5067091C6067A
:102440008091C7069091C8060E949CAE81111DC064
:102450002091E90C3091EA0C4091EB0C5091EC0C7E
:102460006091C9067091CA068091CB069091CC0606
:102470000E949CAE811109C060910002709101021E
:1024800080910202909103023CC08091810760918B
:102490000C0270910D028823F1F0072E000C880BBE
:1024A000990B0E94A3AE209100023091010240914D
:1024B0000202509103020E9402AF2AE037ED43E28C
:1024C0005CE30E9402AF2FEF3FEF4FEF5FEF0E9400
:1024D000478D0C94452A072E000C880B990B0E94FF
:1024E000A3AE20910002309101024091020250916E
:1024F00003020E9402AF2AE037ED43E25CE30E9450
:1025000002AF0E94C4340E94BA340C94452A882336
:1025100011F40C94452A11E0E2E0EE16F10409F002
:1025200010E00E944D8982E50E941F35882309F43E
:102530005CC10E94A5356B017C014090C50650909E
:10254000C6066090C7067090C8062091C9063091F3
:10255000CA064091CB065091CC062E962CAF3DAFCB
:102560004EAF5FAF2E978091E50C9091E60CA09155
:10257000E70CB091E80C62968CAF9DAFAEAFBFAFE9
:1025800062972091E90C3091EA0C4091EB0C50914C
:10259000EC0C66962CAF3DAF4EAF5FAF669720E078
:1025A00030E0A901C701B6010E949CAE882309F45E
:1025B0008FC5A301920162966CAD7DAD8EAD9FADCE
:1025C00062970E949CAE811111C02E962CAD3DAD3C
:1025D0004EAD5FAD2E9766966CAD7DAD8EAD9FAD69
:1025E00066970E949CAE882309F472C520E030E013
:1025F000A901C701B6010E949CAE881F8827881FC9
:1026000018130BC080E090E0A0E8BFE3AA968CAF5F
:102610009DAFAEAFBFAFAA970AC020E030E040E860
:102620005FEBAA962CAF3DAF4EAF5FAFAA97A30169
:10263000920162966CAD7DAD8EAD9FAD62970E94AA
:1026400009A76A966CAF7DAF8EAF9FAF6A972E9643
:102650002CAD3DAD4EAD5FAD2E9766966CAD7DADAC
:102660008EAD9FAD66970E9409A76E966CAF7DAF49
:102670008EAF9FAF6E976A962CAD3DAD4EAD5FAD00
:102680006A97CA01B9010E9402AF4B015C016E96C4
:102690002CAD3DAD4EAD5FAD6E97CA01B9010E9444
:1026A00002AF9B01AC01C501B4010E940AA70E94C0
:1026B000B8A9A2966CAF7DAF8EAF9FAFA29720E076
:1026C00030E040E05FE30E9402AF4B015C01A701F4
:1026D0009601C701B6010E9402AF6B017C01A50102
:1026E0009401C501B4010E9402AF9B01AC01C70176
:1026F000B6010E9409A70E94B8A99B01AC01AA9645
:102700006CAD7DAD8EAD9FADAA970E9402AF4B011F
:102710005C0162962CAD3DAD4EAD5FAD6297C301DD
:10272000B2010E940AA720E030E040E05FE30E948F
:1027300002AF6B017C016E966CAD7DAD8EAD9FAD31
:102740006E979058A2962CAD3DAD4EAD5FADA29761
:102750000E9404A89B01AC01C501B4010E9402AF14
:102760009B01AC01C701B6010E940AA7A301920117
:102770000E9409A76B017C0166962CAD3DAD4EAD64
:102780005FAD66972E966CAD7DAD8EAD9FAD2E97ED
:102790000E940AA720E030E040E05FE30E9402AF21
:1027A0002B013C01A2962CAD3DAD4EAD5FADA29785
:1027B0006A966CAD7DAD8EAD9FAD6A970E9404A800
:1027C0009B01AC01C501B4010E9402AF9B01AC01A9
:1027D000C301B2010E940AA72E962CAD3DAD4EADAD
:1027E0005FAD2E970E9409A714C089E40E941F358F
:1027F000882329F00E94A5356B017C0103C0C12C00
:10280000D12C76018AE40E941F358823F9F00E94BA
:10281000A5352E966CAF7DAF8EAF9FAF2E9720E083
:1028200030E0A901C701B6010E949CAE81111EC013
:1028300020E030E0A9012E966CAD7DAD8EAD9FAD50
:102840002E970E949CAE811111C042C420E030E05E
:10285000A901C701B6010E949CAE882309F438C4BF
:102860002E961CAE1DAE1EAE1FAE2E97A701960172
:10287000C701B6010E9402AF4B015C012E962CAD40
:102880003DAD4EAD5FAD2E97CA01B9010E9402AFBA
:102890009B01AC01C501B4010E940AA70E94B8A91E
:1028A000EE966CAF7DAF8EAF9FAFEE978091C50671
:1028B0009091C606A091C706B091C806A2968CAFAB
:1028C0009DAFAEAFBFAFA297A7019601BC01CD01EE
:1028D0000E940AA7AA966CAF7DAF8EAF9FAFAA9752
:1028E0002091C9063091CA064091CB065091CC0682
:1028F0006A962CAF3DAF4EAF5FAF6A972E962CAD68
:102900003DAD4EAD5FAD2E976A966CAD7DAD8EAD93
:102910009FAD6A970E940AA7E2966CAF7DAF8EAF1B
:102920009FAFE2978091CD069091CE06A091CF0601
:10293000B091D006A6968CAF9DAFAEAFBFAFA697B5
:102940009C01AD016091ED0C7091EE0C8091EF0C4B
:102950009091F00C0E9409A76E966CAF7DAF8EAF80
:102960009FAF6E972091F10C3091F20C4091F30CD7
:102970005091F40CC258DF4F288339834A835B831C
:10298000CE57D0408091D1069091D206A091D30627
:10299000B091D406AE968CAF9DAFAEAFBFAFAE9741
:1029A000A7019601505862962CAF3DAF4EAF5FAF76
:1029B00062972E968CAD9DADAEADBFAD2E97B05843
:1029C00066968CAF9DAFAEAFBFAF66972091E50C1A
:1029D0003091E60C4091E70C5091E80CE6962CAF54
:1029E0003DAF4EAF5FAFE697AA962CAD3DAD4EAD75
:1029F0005FADAA97E6966CAD7DAD8EAD9FADE697C7
:102A00000E9409A76B017C018091E90C9091EA0C6E
:102A1000A091EB0CB091EC0CEA968CAF9DAFAEAFF1
:102A2000BFAFEA97E2962CAD3DAD4EAD5FADE297FC
:102A3000BC01CD010E9409A74B015C01A7019601D1
:102A400062966CAD7DAD8EAD9FAD62970E9402AF78
:102A50002B013C01A501940166966CAD7DAD8EAD58
:102A60009FAD66970E9402AF9B01AC01C301B2010A
:102A70000E940AA72B013C01A501940162966CAD4E
:102A80007DAD8EAD9FAD62970E9402AF4B015C01A0
:102A9000A701960166966CAD7DAD8EAD9FAD669734
:102AA0000E9402AF9B01AC01C501B4010E9409A7BD
:102AB000A30192010E9489A76B017C0120E030E014
:102AC000A9010E949CAE87FF0AC02BED3FE049ECB4
:102AD00050E4C701B6010E940AA76B017C011123D3
:102AE00051F02BED3FE049EC50E4C701B6010E94E4
:102AF00009A76B017C0120E030E0A901C701B60104
:102B00000E949CAE81112AC0E6962CAD3DAD4EAD23
:102B10005FADE697A2966CAD7DAD8EAD9FADA297F1
:102B20000E949CAE81111AC0EA962CAD3DAD4EAD0F
:102B30005FADEA976A966CAD7DAD8EAD9FAD6A973D
:102B40000E949CAE81110AC02BED3FE049EC50E49D
:102B5000C701B6010E940AA76B017C01EE962CAD5D
:102B60003DAD4EAD5FADEE97C701B6010E9402AF1D
:102B70009B01AC010E9402AF4B015C016E962CAD33
:102B80003DAD4EAD5FAD6E97CA01B9010E9402AF77
:102B90009B01AC01C501B4010E940AA70E94B8A91B
:102BA0004B015C012FE632E143E85AE30E949CAE00
:102BB00087FD8AC2C501B4010E94ACA80E947DA80D
:102BC00068967FAF6EAF6897DB01AB2B31F4E1E025
:102BD000F0E06896FFAFEEAF689768962EAD3FAD18
:102BE0006897B90180E090E00E94A1AE4B015C01C2
:102BF0009B01AC01C701B6010E9404A8A2966CAF6C
:102C00007DAF8EAF9FAFA297A50194016E966CAD7C
:102C10007DAD8EAD9FAD6E970E9404A8EE966CAF11
:102C20007DAF8EAF9FAFEE97AE962CAD3DAD4EAD66
:102C30005FADAE97C258DF4F688179818A819B81F1
:102C4000CE57D0400E9409A7A50194010E9404A874
:102C5000C258DF4F688379838A839B83CE57D040E5
:102C6000A2962CAD3DAD4EAD5FADA297CA01B901A4
:102C70000E9402AF20E030E040E05FE30E9402AF3C
:102C80009B01AC0160E070E080E89FE30E9409A72F
:102C90006E966CAF7DAF8EAF9FAF6E97A6968CADE4
:102CA0009DADAEADBFADA69789879A87AB87BC8730
:102CB000AE962CAD3DAD4EAD5FADAE972D873E8748
:102CC0004F87588B60910C0270910D02072E000CFB
:102CD000880B990B0E94A3AE209100023091010253
:102CE00040910202509103020E9402AF2AE037EDA8
:102CF00043E25CE30E9402AFA6966CAF7DAF8EAF5D
:102D00009FAFA6970E946E9B9B01AC0128533F4F3B
:102D10004F4F5F4FAE962CAF3DAF4EAF5FAFAE970C
:102D20002F964FAC2F9760965FAC609761966FAC13
:102D3000619762967FAC629722242394312CD12C28
:102D40004EE350E04C0F5D1F485F5F4FE4965FAF6E
:102D50004EAFE4978EE390E08C0F9D1F0496E896AB
:102D60009FAF8EAFE89768968EAD9FAD6897281697
:102D7000390609F457C10E94D7950E946E9BDC0169
:102D8000CB01AE962CAD3DAD4EAD5FADAE97821B87
:102D9000930BA40BB50BB7FD10C00E946E9B9B015B
:102DA000AC0128533F4F4F4F5F4FAE962CAF3DAF16
:102DB0004EAF5FAFAE970E94FF8AD39438E13D15C6
:102DC0000CF44BC06E962CAD3DAD4EAD5FAD6E9725
:102DD00066966CAD7DAD8EAD9FAD66970E9402AFDD
:102DE0004B015C01A2962CAD3DAD4EAD5FADA297FF
:102DF000B201C3010E9402AFA50194010E940AA77B
:102E00007B018C016E962CAD3DAD4EAD5FAD6E97E6
:102E1000B201C3010E9402AF4B015C01A2962CAD2E
:102E20003DAD4EAD5FADA29766966CAD7DAD8EADFE
:102E30009FAD66970E9402AF9B01AC01C501B40132
:102E40000E9409A72B013C01C701D80166968CAFEF
:102E50009DAFAEAFBFAF66975AC0B10180E090E0C2
:102E60000E94A1AEA2962CAD3DAD4EAD5FADA29736
:102E70000E9402AF4B015C010E94FFA76B017C0125
:102E8000C501B4010E94AAA94B015C01A7019601EA
:102E900062966CAD7DAD8EAD9FAD62970E9402AF24
:102EA0002B013C01A50194012E966CAD7DAD8EAD3C
:102EB0009FAD2E970E9402AF9B01AC01C301B201EE
:102EC0000E940AA72B013C01A501940162966CADFA
:102ED0007DAD8EAD9FAD62970E9402AF4B015C014C
:102EE000A70196012E966CAD7DAD8EAD9FAD2E9750
:102EF0000E9402AF9B01AC01C501B4010E9409A769
:102F000066966CAF7DAF8EAF9FAF6697D12C920166
:102F1000A301AA966CAD7DAD8EAD9FADAA970E9420
:102F20000AA769837A838B839C8366962CAD3DAD1B
:102F30004EAD5FAD6697E2966CAD7DAD8EAD9FAD4B
:102F4000E2970E940AA76D837E838F839887EE960F
:102F50002CAD3DAD4EAD5FADEE9769857A858B8525
:102F60009C850E940AA769877A878B879C87C258AD
:102F7000DF4F288139814A815B81CE57D0406D85F2
:102F80007E858F8598890E940AA76D877E878F87A7
:102F9000988BCE0101960E947D92C0903904898160
:102FA0009A81AB81BC8122968CAF9DAFAEAFBFAF93
:102FB00022978D819E81AF81B88526968CAF9DAF7B
:102FC000AEAFBFAF269789859A85AB85BC852A961B
:102FD0008CAF9DAFAEAFBFAF2A97E4964EAD5FAD5D
:102FE000E497E8966EAD7FADE897CE01CE960E944D
:102FF0007667A696ECACFDAC0EAD1FADA6979E0114
:10300000235F3F4FE4964EAD5FADE497E8966EAD1B
:103010007FADE897CE01CE960E9473594FEF241AE8
:10302000340AA1CEC09039048091E50C9091E60C51
:10303000A091E70CB091E80C22968CAF9DAFAEAF9B
:10304000BFAF22978091E90C9091EA0CA091EB0C14
:10305000B091EC0C26968CAF9DAFAEAFBFAF26976C
:103060008091ED0C9091EE0CA091EF0CB091F00CD2
:103070002A968CAF9DAFAEAFBFAF2A972EE3822EBC
:10308000912C8C0E9D1E98E0890E911C3EE3A32E80
:10309000B12CAC0EBD1EA4E0AA0EB11CA401B5015A
:1030A000CE01CE960E947667A696ECACFDAC0EAD36
:1030B0001FADA69721EF3CE0A401B501CE01CE964D
:1030C0000E9473590E94BA340E9473360C94452AA8
:1030D000EEE8FAE084918F010F5F1F4F882321F003
:1030E0000E94B836F801F6CFE6E4F3E084918F0150
:1030F0000F5F1F4F882311F40C94452A0E94B836A5
:10310000F801F4CF0E946F990E9442340E949836D1
:1031100011E01093200288E50E941F35F82E89E502
:103120000E941F35082F8AE50E941F35F11005C047
:10313000011105C0982F912705C0011102C090E030
:1031400001C0982F9093040220E1E5ECF6E0A5EE93
:10315000BCE001900D922A95E1F7911102C08823FD
:1031600021F082E090E00E946C7B8091040281114A
:1031700002C0FF2021F080E090E00E946C7B8091F3
:103180000402811102C0002321F081E090E00E943E
:103190006C7B0E94D9358091F50C809320020E94AF
:1031A0007E360E9466840C94452AF090560681E093
:1031B000F826009157060827109158061827F11095
:1031C00002C0002319F0ECEEFBE004C01111FBCFAC
:1031D0000C94692A84916F01BFEFCB1ADB0A882314
:1031E00021F00E94B836F601F5CFEDE7F3E08491C7
:1031F0006F012FEFC21AD20A882321F00E94B8363D
:10320000F601F5CFFF2069F0EBE7F3E084916F0161
:103210003FEFC31AD30A882321F00E94B836F60183
:10322000F5CF002369F0E9E7F3E084916F014FEFF8
:10323000C41AD40A882321F00E94B836F601F5CFCB
:10324000111103C0EFE6F3E00DC0E7E7F3E084916E
:103250006F015FEFC51AD50A8823A1F30E94B83623
:10326000F601F5CF84916F019FEFC91AD90A88231F
:1032700021F00E94B836F601F5CF19821A821B821E
:103280001C82FE01359689E3DF011D928A95E9F7DC
:1032900069E673E0CE0101960E9420AEFF2031F076
:1032A00067E673E0CE0101960E9420AE002331F064
:1032B00065E673E0CE0101960E9420AE112331F045
:1032C00063E673E0CE0101960E9420AE6CE573E0E8
:1032D000CE0101960E9420AE60E0CE0101960E94D0
:1032E00095810C94452A88E50E941F35882319F0A2
:1032F0000E94A5350EC020E030E040E251E460912C
:10330000C5067091C6068091C7069091C8060E94B6
:103310000AA722966CAF7DAF8EAF9FAF229789E54B
:103320000E941F35882319F00E94A5350EC020E0A9
:1033300030E040E251E46091C9067091CA06809184
:10334000CB069091CC060E940AA76B017C01698391
:103350007A838B839C832091C1063091C206409171
:10336000C3065091C4062E962CAF3DAF4EAF5FAF53
:103370002E978090790790907A07A0907B07B09065
:103380007C072091B9063091BA064091BB06509156
:10339000BC0622966CAD7DAD8EAD9FAD22970E948E
:1033A00009A72091710730917207409173075091DE
:1033B00074070E9409A72091BD063091BE06409176
:1033C000BF065091C00662962CAF3DAF4EAF5FAFC7
:1033D0006297209175073091760740917707509159
:1033E000780766962CAF3DAF4EAF5FAF669720E093
:1033F00030E040E251E40E9409A72B013C0127E1A3
:1034000037EB41ED58EB0E946AA987FF02C00C948C
:10341000452A27E030E048E453E4C301B2010E94AA
:103420009CAE181614F40C94452A62962CAD3DAD52
:103430004EAD5FAD6297C701B6010E9409A76696BF
:103440002CAD3DAD4EAD5FAD66970E9409A720E063
:1034500030E040E251E40E9409A76B017C0127E1C2
:1034600037EB41ED58EB0E946AA987FF02C00C942C
:10347000452A27E030E048E453E4C701B6010E9442
:103480009CAE181614F40C94452A20E030E0A901F3
:103490002E966CAD7DAD8EAD9FAD2E970E940AA786
:1034A000A50194010E940AA72E962CAD3DAD4EAD0C
:1034B0005FAD2E970E9409A7A50194010E9409A75C
:1034C0006B017C0127E137EB41ED58EB0E946AA9C3
:1034D00087FF02C00C94452A23E030E048EC53E417
:1034E000C701B6010E949CAE181614F40C94452A2C
:1034F0000C94A62D10923E040C94452A81E08093F2
:103500003E040C94462A85E40E941F35B82E811192
:1035100002C00E946F9967ED862E62E0962E75ECD0
:10352000C72E76E0D72EE1E7EE2EE7E0FE2E00E094
:1035300010E0A12CD4018D914D010E941F358823EC
:1035400009F44EC0F6012081318142815381CE576A
:10355000DF4F2883C258D040CD57DF4F3883C35840
:10356000D040CC57DF4F4883C458D040CB57DF4FB3
:103570005883C558D0400E94A535D6016D937D93E0
:103580008D939C931397CE57DF4F2881C258D0401C
:10359000CD57DF4F3881C358D040CC57DF4F4881DB
:1035A000C458D040CB57DF4F5881C558D040033066
:1035B0001105B1F00E9409A79B01AC01F7016081E0
:1035C0007181828193810E940AA7D7016D937D93B7
:1035D0008D939C931397C8010E942636AA24A39426
:1035E0000F5F1F4FB4E0CB0ED11CE4E0EE0EF11CD8
:1035F0000430110509F09ECFAA2019F00E94D93598
:1036000037C0BB20A9F1C090D106D090D206E0907F
:10361000D306F090D40620912007309121074091E5
:10362000220750912307C701B6010E9402AF0E94F2
:1036300077A9609300087093010880930208909323
:103640000308C701B6010E9476A82FB7F8946093CB
:10365000F70D7093F80D8093F90D9093FA0D2FBF2D
:103660001092F0071092F1071092F2071092F307F0
:103670000E9466840C94452AF8E7EF16F10411F4D1
:103680000C94742308F0A6C03CE5E316F10409F499
:10369000CEC608F05EC05BE4E516F10409F411C380
:1036A000F0F491E1E916F10409F4E7C138F4B2E06D
:1036B000EB16F10408F46EC10C94452AEFE1EE1606
:1036C000F10409F4ECC1FAE2EF16F10409F4B3C213
:1036D00022E1E216F10411F00C94452A6AC632E5A3
:1036E000E316F10409F45CC630F55DE4E516F10477
:1036F00009F405C308F4E9C291E5E916F10411F0F3
:103700000C94452A0E94E3930E946F990E94AA8A12
:103710001092FE061092FD0668EE73E080E090E0E5
:103720000E94349B60E081E395E00E9480810E94CA
:10373000A6810C94452AA4E5EA16F10409F439C6D9
:1037400008F432C6E5E5EE16F10409F45DC60C9402
:10375000452AFEE6EF16F10409F419C3D0F43AE65F
:10376000E316F10409F4E7C560F458E6E516F10440
:1037700009F4C9C289E6E816F10409F40EC40C94F0
:10378000452A9CE6E916F10409F4BAC308F4F6C523
:1037900021C4B2E7EB16F10409F4D1C640F4F0E716
:1037A000EF16F10409F4B0C308F40DC3B1C335E753
:1037B000E316F10409F4D1C647E7E416F10409F46D
:1037C000D1C653E7E516F10411F00C94452AE8E45C
:1037D000F5E0B8C68DE2E81681E0F80611F40C9425
:1037E000232608F05CC0ACECEA16F10411F40C944A
:1037F000602430F5E1E9EE16F10409F480C760F4C5
:1038000029E7E216F10409F475C73CE8E316F10470
:1038100009F4AAC30C94452A49ECE416F10411F406
:103820000C9422245BECE516F10411F40C9443246F
:1038300088ECE816F10411F00C94452A0C94D92375
:103840009CEDE916F10411F40C94AB2598F4BEEC50
:10385000EB16F10411F40C94CE2410F40C946324B0
:10386000F3EDEF16F10411F00C94452AECEEFBE0B9
:103870000C94152522EEE216F10411F40C94D125D6
:103880003CE2E31631E0F30611F40C94FD254DED16
:10389000E416F10411F00C94452A0C94B82554EA6E
:1038A000E51651E0F50611F40C943E2778F590E901
:1038B000E91691E0F90611F40C94332790F4BEE276
:1038C000EB16B1E0FB0611F40C94C226EFE2EE1603
:1038D000E1E0FE0611F00C94452A0E946D850C94DF
:1038E000452AF2E9EF16F1E0FF0611F40C943A27AD
:1038F00010F40C9436273AE9E31631E0F30611F0A0
:103900000C94452A0E94D8830C94452A46EFE4166D
:1039100041E0F40611F40C94A42828F584EFE8168D
:1039200081E0F80611F40C949B2810F00C949E286A
:10393000ACEAEA16A1E0FA0611F00C94452A85ECEF
:10394000282E86E0382EE9EBF6E02C96FFAFEEAF9E
:103950002C9726E536E060963FAF2EAF609700E0EB
:1039600010E00C949827B3E5EB16B3E0FB0611F4D6
:103970000C94B328E7EEEE16E3E0FE0611F40C9487
:10398000EC28F7EFEF16F1E0FF0611F00C94452A52
:103990000C94A72880E50E941F35882361F00E94BF
:1039A0009A356B017C01BB24B394672B682B692B80
:1039B00031F4B12C04C0B12CC12CD12C760183E59B
:1039C0000E941F35882399F00E94CE356B017C013F
:1039D000B1100FC0672B682B692B59F4D8018C915B
:1039E000882339F061E0C8010E94958107C0BB209F
:1039F000A9F360E081E294E00E94808181E08093FD
:103A0000010D83E090E09093C60D8093C50D0E9458
:103A10006F990E947336C114D104E104F104E9F0F6
:103A20008091C70D9091C80DA091C90DB091CA0D9C
:103A3000C80ED91EEA1EFB1E0E946E9BDC01CB0144
:103A40008C199D09AE09BF09B7FF13C08091010D04
:103A5000882379F00E94FF8AEFCF8091010D88239F
:103A600019F00E94FF8AF9CF60E08BE094E00E9499
:103A700080811092010D0C94452A60E083E394E06C
:103A80000E9480815F988A989FB7F894809108017E
:103A90008E7F809308019FBF12980C94452A0E9444
:103AA000236B5CE3C52ED12CE12CF12CA7019601F0
:103AB0000E947AB2762E672ECA01B901A70196013B
:103AC0000E947AB26B017C01CA01B90128E130E0A1
:103AD00040E050E00E947AB24B015C01C9016DE602
:103AE00071E00E94B2A68E010F5F1F4F6115710534
:103AF00099F06F927F92DF92CF929F928F929F93D5
:103B00008F937F936F938AE694E09F938F931F9395
:103B10000F930E946CAE12C00097B1F06F927F922B
:103B2000DF92CF929F928F929F938F938AE594E03A
:103B30009F938F931F930F930E946CAE0FB6F894D0
:103B4000DEBF0FBECDBF36C081149104A104B10405
:103B500079F06F927F92DF92CF929F928F928EE454
:103B600094E09F938F931F930F930E946CAEE6CFC8
:103B7000C114D104E104F10469F06F927F92DF92E5
:103B8000CF9286E494E09F938F931F930F930E94AC
:103B90006CAED4CF6F927F9282E494E09F938F9328
:103BA0001F930F930E946CAE0F900F900F900F9089
:103BB0000F900F9060E0C8010E949581ECEEFBE051
:103BC00084917F019FEFE91AF90A882321F00E946E
:103BD000B836F701F5CFB8018EE794E00E94BF3602
:103BE0008AE00E94B8368091FC06882311F40C9478
:103BF000452A1092FC066091C2077091C307072EF8
:103C0000000C880B990B0E94A3AE209135023091D5
:103C1000360240913702509138020E946AA9181664
:103C200014F00C94452A1092C3071092C2070E9408
:103C300033690C94452A83E50E941F35882311F4CB
:103C40000C94452A0E948D357C018F3F910519F017
:103C500010F00C94452A80E50E941F35882339F026
:103C60000E948D358C0197FF04C00C94452A0DE00D
:103C700010E0D02EEBEDF2E0C801992721913191AF
:103C80002817390731F0B3E0EB32FB07B9F70C9492
:103C90001C2E0EE81AE0F8018491882329F00F5FAA
:103CA0001F4F0E94B836F7CF0BE814E0F80184915B
:103CB000882311F40C94452A0F5F1F4F0E94B836D9
:103CC000F5CF0E94596B0C94452A8091240890915D
:103CD0002508019711F00C94452A82E090E090931A
:103CE0002508809324080E946E9B60932E08709391
:103CF0002F0880933008909331080C94452A0E9435
:103D0000226A0C94452A88E690E00E94AF3981111E
:103D10000C94452A8091870783FF02C00C94452AA2
:103D200083E50E941F35882371F10E94A5350E940A
:103D300076A87093C3076093C2070E9433690E94FC
:103D4000A53520E030E040E451E40E949CAE181616
:103D50003CF00E94226A60E088EA94E00E94808140
:103D60000E94A5352091C4073091C5074091C60730
:103D70005091C7070E946AA918162CF460E08AE9DE
:103D800094E00E9480810E9493A20C94452A8EE4C4
:103D90000E941F35882311F40C94452A8091320427
:103DA000909133044AE050E060E070E001960E9498
:103DB000B5AB6093340470933504809336049093CC
:103DC00037040C94452A83E50E941F35882319F097
:103DD0000E94323501C080E080938707ECEEFBE063
:103DE00084918F010F5F1F4F882321F00E94B83606
:103DF000F801F6CFECECF4E084918F010F5F1F4FD8
:103E0000882321F00E94B836F801F6CF8091870709
:103E10008823A1F14EEBC42E44E0D42EE12CF12CEA
:103E200020E08091870790E00E2C02C09595879541
:103E30000A94E2F780FF17C0BB24B394B20E22238A
:103E400019F08CE20E94B836F60125913491F901FF
:103E5000849189010F5F1F4F882321F00E94B8369B
:103E60009801F5CF2B2DFFEFEF1AFF0A32E0C30EBA
:103E7000D11C45E0E416F104A1F63DC0E8ECF4E005
:103E800084918F010F5F1F4F8823A9F10E94B836DC
:103E9000F801F6CF80E20E94B8368AE50E941F350D
:103EA000882311F40C94DE280E94A5356B017C0157
:103EB00020E030E040EA51EC0E946AA987FF02C08E
:103EC0000C94CD2820E030E040EA51E4C701B6016F
:103ED0000E949CAE181614F40C94CD28C09239029E
:103EE000D0923A02E0923B02F0923C0242E0C701DB
:103EF000B6010E94F0398AE00E94B8360C94452A37
:103F0000109209020C94452A83ED94E00E94BB8A2A
:103F100083E50E941F35882369F00E943235809323
:103F200098028D3310F40C94452A8CE38093980208
:103F30000C94452AECEEFBE084918F010F5F1F4F3C
:103F4000882321F00E94B836F801F6CF40919802FC
:103F500050E060E070E088EE94E00E94CA378AE0AA
:103F60000E94B8360C94452A8091870783FF02C0CF
:103F70000C94452A83E50E941F35882311F40C9484
:103F8000452A0E94A5350E9476A87093FC0D609387
:103F9000FB0D0E9493930C94452A89E690E00E94C1
:103FA000AF39811111C0EFEEF4E084918F010F5F02
:103FB0001F4F882321F00E94B836F801F6CF0E94E7
:103FC00025858AE00E94B8361092C60D1092C50D64
:103FD0000C948B2E8DE690E00E94AF3981110C94E9
:103FE000452A8091870783FF02C00C94452A83E508
:103FF0000E941F3563968FAF6397811105C082E5DC
:104000000E941F358823C1F10E94A5350E9476A821
:104010007093C3076093C2070E9433690E94A5355D
:1040200020E030E040E451E40E949CAE181614F405
:104030000C94312E0E94226A60E08BE195E00E9490
:1040400080816091C2077091C307072E000C880B16
:10405000990B0E94A3AE2091C4073091C5074091EF
:10406000C6075091C7070E946AA918162CF460E091
:104070008DE095E00E9480810E9493A281E0809370
:1040800009021092C60D1092C50D62961CAE1DAEAF
:104090001EAE1FAE6297A2961CAE1DAE1EAE1FAE28
:1040A000A2972B961FAE2B9767961FAE67975CE380
:1040B0006B965FAF6B978CE1A7968FAFA79796E44F
:1040C000AF969FAFAF97C12CD12C20E8E22E3FEBEB
:1040D000F32E812C912C54016091C2077091C3077B
:1040E000072E000C880B990B0E94A3AE162F072FEA
:1040F000782E692E262F372F482F592FB601C7014A
:104100000E949CAE882341F12091C4073091C507DD
:104110004091C6075091C707612F702F872D962DAC
:104120000E949CAE881F8827881F2B968FAF2B97E5
:104130006396AFAD6397AA2399F0882389F08091A5
:104140000902882311F40C94452A60E082EF94E080
:104150000E9480810C94452A1C2D0D2D7E2C6F2CE5
:104160000E946E9B6B017C01DC01CB01A2962CAD01
:104170003DAD4EAD5FADA297821B930BA40BB50B6B
:10418000B7FD47C0D701C60188519C4FAF4FBF4F05
:10419000A2968CAF9DAFAEAFBFAFA2970E94258510
:1041A000E9E0F5E084912F019FEF491A590A88232D
:1041B00021F00E94B836F201F5CF81149104A104D8
:1041C000B104D1F0D501C401805F984DAF4FBF4F0E
:1041D000BC01CD016C197D098E099F0928EE33E0E1
:1041E00040E050E00E947AB2CA01B9010E94E7376C
:1041F0008AE00E94B8360DC0E6E0F5E084912F0118
:10420000AFEF4A1A5A0A882321F00E94B836F20109
:10421000F5CF0E94FF8A0E9473362090C407309029
:10422000C5074090C6075090C7079101A201612FB2
:10423000702F872D962D0E9409A79F7781149104D6
:10424000A104B10449F420E030E040E85FE30E94BB
:104250009CAE87FF0BC008C020E030E040E450E493
:104260000E946AA9181614F4460157012B96BFAD97
:104270002B97BB2309F443C062962CAD3DAD4EADE8
:104280005FAD6297211531054105510541F0D70118
:10429000C601821B930BA40BB50BB7FD30C0910177
:1042A000A20167966FAD67976B967FAD6B97A796E8
:1042B0008FADA797AF969FADAF970E9409A720E05B
:1042C00030E040EC5FE30E949CAE87FD38CFD70121
:1042D000C601805A9541AF4FBF4F62968CAF9DAFDC
:1042E000AEAFBFAF629767962FAE67976B963FAE44
:1042F0006B97A7964FAEA797AF965FAEAF9780919B
:104300000902882309F41BCF81149104A104B1048C
:1043100029F4C12ED02EE72CF62CDECE90E1C91A5E
:1043200097E2D90AE108F108C818D908EA08FB0899
:10433000F7FE05CFEECF83E50E941F35882321F0DD
:104340000E94C49B8C0102C00FEF10E080E50E9428
:104350001F35882331F00E94C49B892B11F00C94E7
:10436000452A98010F3F110519F010F02FEF30E0AA
:104370003093FE062093FD060C94452A80E50E94AA
:104380001F35811106C01092FE061092FD060C9496
:10439000452A0E94C49B892B11F00C94452AF3CF27
:1043A00010923D040C94452A81E080933D040C94C6
:1043B000462A83E50E941F35882361F00E94CE358E
:1043C0006093990270939A0280939B0290939C024F
:1043D0000C94452A88E50E941F3581110C94352ED6
:1043E00089E50E941F3581110C94352E8AE50E94C3
:1043F0001F3581110C94352E85E40E941F358111E3
:104400000C94352E0C945E2E83E50E941F35882374
:1044100011F40C94452A0E94CE356093CB0D709315
:10442000CC0D8093CD0D9093CE0D0C94452A87ED45
:10443000C82E82E0D82E94E1E92E97E0F92E10E004
:10444000D6018D916D010E941F35882309F46DC03E
:10445000133009F063C00E94A5354B015C0120E0D8
:1044600030E040EA51E40E949CAE87FF4EC0A501B7
:10447000940160912007709121078091220790910B
:1044800023070E9404A82B013C019B01AC01609111
:1044900060077091610780916207909163070E94A5
:1044A00002AF6093600770936107809362079093F7
:1044B0006307A301920160915007709151078091A9
:1044C0005207909153070E9402AF60935007709378
:1044D000510780935207909353076091940770910E
:1044E000950780919607909197070E94A1AEA3012E
:1044F00092010E9402AF0E947DA86093940770937E
:104500009507809396079093970780922007909243
:104510002107A0922207B092230707C00E94A53569
:10452000F70160837183828393831F5FF4E0EF0E52
:10453000F11C143009F084CF0E945268A6C70E9473
:104540006684A3C784918F010F5F1F4F882309F4EE
:104550009CC70E94B836F801F5CF60E0C8010E9400
:10456000958193C7E6E4F6E084918F010F5F1F4FBA
:10457000882321F00E94B836F801F6CFEEE3F6E08A
:1045800084918F010F5F1F4F882321F00E94B8365E
:10459000F801F6CF659B03C00FEA13E002C004EBFD
:1045A00013E0D8018D918D01882319F00E94B8364F
:1045B000F8CF8AE00E94B836E6E3F6E084918F01F6
:1045C0000F5F1F4F882321F00E94B836F801F6CF05
:1045D000649B03C00FEA13E002C004EB13E0F80190
:1045E00081918F01882319F00E94B836F8CF8AE0B4
:1045F0000E94B836EEE2F6E084918F010F5F1F4F04
:10460000882321F00E94B836F801F6CF809103018B
:1046100081FF03C00FEA13E002C004EB13E0D801EE
:104620008D918D01882319F00E94B836F8CF8AE069
:104630000E94B836E6E2F6E084918F010F5F1F4FCB
:10464000882321F00E94B836F801F6CF809103014B
:1046500080FF03C00FEA13E002C004EB13E0F8018F
:1046600081918F01882319F00E94B836F8CF8AE033
:104670000E94B836EEE1F6E084918F010F5F1F4F84
:10468000882321F00E94B836F801F6CF4B9B03C077
:104690000FEA13E002C004EB13E0D8018D918D0105
:1046A000882319F00E94B836F8CF8AE00E94B83605
:1046B000E6E1F6E084918F010F5F1F4F882321F020
:1046C0000E94B836F801F6CF4A9B03C00FEA13E008
:1046D00002C004EB13E0F80181918F01882309F4F3
:1046E0000ACC0E94B836F7CF81E0809320028093F5
:1046F000F50CCCC6109220021092F50CC6C683E5CC
:104700000E941F358823F1F00E948D35182F8230CA
:10471000D0F0EEE8FAE084918F010F5F1F4F8823FD
:1047200021F00E94B836F801F6CFE0E6F6E0849179
:104730008F010F5F1F4F882309F4A7C60E94B83668
:10474000F801F5CF10E088E40E941F358823B1F00E
:104750000E948D35E12FF0E0893191053CF08530E4
:1047600021E092072CF084E091E002C089E190E022
:10477000EE0FFF1FE150F94F9183808386E40E9482
:104780001F35882309F481C60E948D35E12FF0E0A2
:10479000EE0FFF1FED5FF84F8F3F910519F014F0FA
:1047A0008FEF90E097FF02C080E090E091838083DC
:1047B0006CC688EC90E00E94AF39811166C684E433
:1047C0000E941F35882309F460C60E94A53511E0B8
:1047D00020E030E0A9010E949CAE811101C010E0F0
:1047E00010936807112359F10091380410E00E94DA
:1047F000A535000F111F000F111FF801E35CFD4FDD
:10480000608371838283938320E030E0A90160910B
:104810003D0270913E0280913F02909140020E94C1
:104820009CAE81110CC080E090E0A0E4B0E48093E5
:104830003D0290933E02A0933F02B09340020E943B
:104840005F8A23C6ECE2EE2EE7E0FE2E07ED12E0D3
:10485000F4E0DF2ED00ED8018D918D010E941F351E
:10486000882349F00E94A5350E947DA8F701608346
:10487000718382839383F4E0EF0EF11CD012EBCFAF
:104880000E943C5802C664E4E62E67E0F62E07ED6F
:1048900012E074E0D72ED00ED8018D918D010E94C8
:1048A0001F35882339F00E94A535F7016083718395
:1048B00082839383F4E0EF0EF11CD012EDCFE5C5B7
:1048C0000E94FD83E2C583E50E941F35882351F0D5
:1048D0000E94A5356093400770934107809342077B
:1048E0009093430784E50E941F35882351F00E946E
:1048F000A53560933C0770933D0780933E079093E6
:104900003F0782E40E941F35882351F00E949A35A8
:10491000609383077093840780938507909386073D
:1049200088E50E941F35882351F00E94A5356093C9
:10493000540770935507809356079093570789E55E
:104940000E941F35882351F00E94A53560935807B7
:104950007093590780935A0790935B078AE50E94EA
:104960001F35882351F00E94A53560935C07709332
:104970005D0780935E0790935F0785E40E941F3573
:10498000882309F482C50E94A5356093600770935F
:104990006107809362079093630777C537EDA32E75
:1049A00032E0B32E45ECC42E46E0D42E59EBE52E72
:1049B00056E0F52E00E010E0D5018D915D010E94DA
:1049C0001F35882311F10E94A5352B013C01F70109
:1049D00020813181428153810E9409A79B01AC0152
:1049E000D6016D917D918D919C910E940AA7F6014F
:1049F0006083718382839383D7014D925D926D9220
:104A00007C921397C8010E9426360F5F1F4FB4E0B7
:104A1000CB0ED11CE4E0EE0EF11C0330110561F663
:104A20000E94D9350E94668430C584918F010F5F42
:104A30001F4F882321F00E94B836F801F6CF83E596
:104A40000E941F35882321F00E94613580931A024D
:104A5000E2EBF6E084918F010F5F1F4F882321F076
:104A60000E94B836F801F6CF80911A02811103C076
:104A7000EBEAF6E002C0E2EAF6E084918F010F5F14
:104A80001F4F882321F00E94B836F801F6CFEAE9DB
:104A9000F6E084918F010F5F1F4F882321F00E9461
:104AA000B836F801F6CF4091590650915A066091F8
:104AB0005B0670915C0688E996E00E940C3C409190
:104AC0005D0650915E0660915F067091600685E913
:104AD00096E00E940C3C4091610650916206609104
:104AE00063067091640682E996E00E940C3CEAE855
:104AF000F6E084918F010F5F1F4F882321F00E9401
:104B0000B836F801F6CF40910E0250910F02609135
:104B100010027091110288E896E00E940C3C4091CE
:104B2000120250911302609114027091150285E8EF
:104B300096E00E940C3C4091160250911702609141
:104B400018027091190282E896E00E940C3C8AE0FB
:104B50000E94B8369AC483E50E941F35882309F461
:104B600094C40E948D3590930D0280930C028DC4E5
:104B70008DED90E00E94AF39811187C483E50E94DA
:104B80001F35882309F481C40091380410E00E9485
:104B90008D35000F111FF801E65FFD4F9183808373
:104BA00074C480E50E941F35882309F46EC40E94F6
:104BB0008D358C0183E50E941F35882321F00E94EA
:104BC0008D357C0103C0EE24EA94FE2CC7010196CA
:104BD000039708F05AC417FD58C4EBEDF2E0C80182
:104BE0009927219131912817390709F44EC423E000
:104BF000EB32F207B1F70C94632E83E50E941F3568
:104C0000882319F00E94C49B02C084E091E09FAF0A
:104C10008EAF80E50E941F35882349F00E94C49B17
:104C2000893833E1930728F088E893E102C088EEE1
:104C300093E09A838983BE01625C7F4FCE01019627
:104C40000E94EF6A22C485E40E941F35811110C0C2
:104C500080E50E941F35882399F00E94A535609356
:104C6000210270932202809323029093240208C0B1
:104C70000E948D35181619065CF7EEE8FAE071C04F
:104C800089E40E941F35882381F00E94A5352CE914
:104C900033E549E45EE30E9402AF6093290270931A
:104CA0002A0280932B0290932C0284E40E941F35E9
:104CB000882381F00E94A5352CE933E549E45EE3C1
:104CC0000E9404A860932502709326028093270215
:104CD00090932802ECEEFBE084918F010F5F1F4F51
:104CE000882321F00E94B836F801F6CF40912102C6
:104CF0005091220260912302709124028AEC96E086
:104D00000E940C3C2CE933E549E45EE36091290202
:104D100070912A0280912B0290912C020E9404A88B
:104D2000AB01BC0186EC96E00E94EF3B2CE933E539
:104D300049E45EE36091250270912602809127028A
:104D4000909128020E9402AFAB01BC0182EC96E078
:104D50000E94EF3B8AE00E94B83697C30E94B836A3
:104D6000F80184918F010F5F1F4F8111F7CF02EC83
:104D700013E0D8018D918D01882309F4BCC80E94ED
:104D8000B836F7CF83E50E941F35082F8823A1F09E
:104D90000E94A5356093490270934A0280934B02AA
:104DA00090934C0211E020E030E0A9010E949CAEFB
:104DB000811110E01093820780E50E941F35182FA3
:104DC0008823A9F020E030E0A901609149027091A8
:104DD0004A0280914B0290914C020E949CAE882323
:104DE00019F00E946135182F109382074EC30111EC
:104DF0004CC3ECEEFBE084918F010F5F1F4F8823C3
:104E000021F00E94B836F801F6CF80918207811117
:104E100003C06EEB73E002C061EB73E083EE96E0DB
:104E20000E94BF3620E030E040E05FE3609149023D
:104E300070914A0280914B0290914C020E940AA705
:104E40000E9476A882ED96E00E949639EEECF6E09C
:104E500084918F010F5F1F4F882309F416C30E94AE
:104E6000B836F801F5CF0E946F990FC381E00E9418
:104E70006F340BC380E00E946F3407C383E50E9448
:104E80001F35882399F00E94613590918107891719
:104E900069F080938107811105C082E090E00E9453
:104EA000539004C085EC96E00E94EB668AE50E9470
:104EB0001F35882309F4E9C20E94A5356B017C01E6
:104EC00060937D0770937E0780937F0790938007A0
:104ED0002DEB37E346E855EB0E946AA9181654F407
:104EE0002DEB37E346E855E3C701B6010E949CAEBF
:104EF00087FD09C0A701960160E070E080E89FE3AC
:104F00000E9404A803C060E070E0CB0160936D07CD
:104F100070936E0780936F0790937007809181075D
:104F2000882309F4B2C282E090E00E945390ADC29F
:104F300060964EAD5FAD60974655564064965FAF44
:104F40004EAF64976096AEADBFAD60978D916096A1
:104F5000BFAFAEAF6097882309F4B4C0F801E25F39
:104F6000FD4F2081318142815381F801E75AF94F89
:104F700060817181828193810E940AA720E030E0E4
:104F800040E05FE30E9402AF9B01AC01F101608150
:104F90007181828193810E946AA9181634F4C80134
:104FA0008054974E0E94203603C060E070E0CB0131
:104FB000D1014D905D906D907C902C96EEADFFAD43
:104FC0002C97C080D180E280F380A70196010E94D7
:104FD0000AA7F801EF58F84F2081318142815381AF
:104FE0000E940AA79B01AC01C301B2010E9409A75C
:104FF0004B015C0120E030E040EA51EC0E946AA9DC
:1050000018168CF520E030E040EA51E4C501B40107
:105010000E949CAE87FF27C0A5019401C701B6017D
:105020000E9409A74B015C01A70196010E9409A7F4
:105030009B01AC01C301B2010E940AA7D1016D938B
:105040007D938D939C9313972C96EEADFFAD2C978B
:1050500080829182A282B38264968EAD9FAD649766
:105060000E9426362FC0EEE8FAE084918F010F5F90
:105070001F4F882321F00E94B836F801F6CFE5E1F2
:10508000F7E084918F010F5F1F4F882321F00E946A
:10509000B836F801F6CF61E087E097E00E948081A2
:1050A0000E94B43C88E290E09A83898388EC90E087
:1050B0009FAF8EAFBE016F5F7F4FCE01CE960E9435
:1050C000EF6AE3C1F4E02F0E311C0C5F1F4F2C96EA
:1050D0002EAD3FAD2C972C5F3F4F2C963FAF2EAFA0
:1050E0002C970C30110509F023CF0E94D9350E946E
:1050F000668460E086EF96E00E94808183E992E01A
:105100009FAF8EAF08EC10E01A830983BE01625C8A
:105110007F4FCE0101960E94EF6A8AEB92E09FAF2B
:105120008EAF1A830983BE01625C7F4FCE01019668
:105130000E94EF6AAAC10E94517BA7C10E94D9793F
:1051400080E00E944F76A1C10E94D9799EC183E57B
:105150000E941F35882321F00E94613591E0892744
:105160000E944F7692C1ECEEFBE084918F010F5FBD
:105170001F4F882321F00E94B836F801F6CFE6E4ED
:10518000F7E084918F010F5F1F4F882311F40C9477
:105190004A1F0E94B836F801F4CF6CEE7FEF8EE321
:1051A00097E00E94963980E20E94B83664E170E090
:1051B00086E397E00E9496390C947B1F4091390258
:1051C00050913A0260913B0270913C0283E397E078
:1051D0000E940C3C0C947B1F0E94C78356C1E09236
:1051E0003904ECEEFBE084918F010F5F1F4F8823A1
:1051F00021F00E94B836F801F6CFB701772780E595
:1052000097E00E9496398AE00E94B8363EC180E05D
:105210003DC183E50E941F35882309F4ABC10E947C
:10522000A53520E030E040E752E40E9404A86093F6
:1052300005027093060280930702909308028CE4A3
:105240000E941F35882309F49AC10E94A5350E9447
:1052500076A82C967FAF6EAF2C9782E50E941F3503
:10526000882309F4A5C10E94A5350E9476A88B0168
:1052700086E40E941F35882309F4B3C10E94A53536
:105280000E9476A81B0182E40E941F35882309F43E
:10529000C1C10E94A5350E9476A864967FAF6EAF0B
:1052A00064972C964EAD5FAD2C97BA01550F880BC5
:1052B000990B0E94A3AEAA966CAF7DAF8EAF9FAF45
:1052C000AA978090B9069090BA06A090BB06B090BD
:1052D000BC06C0907107D0907207E0907307F09001
:1052E000740720E030E040E251E4C501B4010E94BF
:1052F0000AA7A70196010E940AA79B01AC01AA96E2
:105300006CAD7DAD8EAD9FADAA970E949CAE87FD22
:105310009AC151E0A3965FAFA397C80109972C9655
:10532000AEADBFAD2C97A817B9071CF4A3961FAE5E
:10533000A397B801012E000C880B990B0E94A3AE15
:105340002B013C0120E030E048E453E4C501B40106
:105350000E940AA7A70196010E940AA79B01AC011F
:10536000C301B2010E946AA918160CF471C1E1E0F0
:105370006796EFAF67972C968EAD9FAD2C970996E9
:10538000801791071CF467961FAE6797B101032C35
:10539000000C880B990B0E94A3AEE2966CAF7DAF18
:1053A0008EAF9FAFE2978090BD069090BE06A09012
:1053B000BF06B090C006C0907507D0907607E09009
:1053C0007707F090780720E030E040E251E4C50133
:1053D000B4010E940AA7A70196010E940AA79B0197
:1053E000AC01E2966CAD7DAD8EAD9FADE2970E94B3
:1053F0009CAE87FD32C121E06B962FAF6B97649610
:105400008EAD9FAD64970997281639061CF46B96EC
:105410001FAE6B9764964EAD5FAD6497BA01550FA2
:10542000880B990B0E94A3AE2B013C0120E030E0D9
:1054300048E453E4C501B4010E940AA7A7019601FC
:105440000E940AA79B01AC01C301B2010E946AA994
:10545000FF24F39418160CF005C1A396BFADA397D3
:10546000B1110CC16796EFAD6797E11110C16B9652
:10547000FFAD6B97F1110FC1FF2009F417C1FF2099
:1054800021F083E893E00E9450A681E01092C60DBF
:105490001092C50D81111AC00C94FF1084918F01D8
:1054A0000F5F1F4F882321F00E94B836F801F6CF16
:1054B0006091C1057091C20582E697E00E94BF36F7
:1054C00082E20E94B8368AE00E94B8360E940F93AA
:1054D00022C486E50E941F35882309F430C30E9448
:1054E0008D35A0969FAF8EAFA097A096EEADFFAD85
:1054F000A097359768F0E1EDF3E084918F010F5F9D
:105500001F4F882309F4C1CF0E94B836F801F5CFA8
:1055100084E40E941F352F968FAF2F9785E40E9459
:105520001F35E7968FAFE797A0962EAD3FADA097BA
:10553000232B09F46ECEEAEBF3E084918F010F5F29
:105540001F4F882321F00E94B836F801F6CF2F961E
:105550003FAD2F97332309F45CCEE1EAF3E0849169
:105560008F010F5F1F4F882309F453CE0E94B83676
:10557000F801F5CF65E575E585E093E458CE20E0C8
:1055800030E040E751E46091B9067091BA0680912D
:10559000BB069091BC060E940AA72091710730912A
:1055A000720740917307509174070E940AA74FCE6B
:1055B00020E030E04AE253E46091B9067091BA0607
:1055C0008091BB069091BC060E940AA720917107AA
:1055D0003091720740917307509174070E940AA797
:1055E00044CE20E030E040EA51E46091BD06709185
:1055F000BE068091BF069091C0060E940AA7209126
:1056000075073091760740917707509178070E948F
:105610000AA736CE20E030E04AE253E46091BD06AE
:105620007091BE068091BF069091C0060E940AA7A5
:105630002091750730917607409177075091780750
:105640000E940AA728CEB1E0A396BFAFA39771CE60
:10565000F1E06796FFAF679799CE31E06B963FAF69
:105660006B97D8CEC10109966496AEADBFAD649775
:105670008A179B070CF0F1CEF12CEFCE8AE993E06C
:105680000E9450A667962FAD6797222321F082E9EA
:1056900093E00E9450A66B963FAD6B97332309F4BD
:1056A000EECE8AE893E00E9450A6E9CE0E946F9960
:1056B0004091810767964FAF6797109281072F96A9
:1056C0005FAD2F97511106C084E690E00E94539081
:1056D0000E94D9350E94983681E00E946F34882359
:1056E00031F067968FAD679780938107CECE229673
:1056F0001CAE1DAE1EAE1FAE229719821A821B82EF
:105700001C822C96AEADBFAD2C970A1B1B0B17FF4E
:1057100002C00F5F1F4F15950795B801012E000CB1
:10572000880B990B0E94A3AEAE966CAF7DAF8EAF87
:105730009FAFAE976496AEACBFAC6497A218B308A7
:10574000B7FE03C0BFEFAB1ABB0AB594A794B5016F
:105750000B2C000C880B990B0E94A3AEE6966CAF45
:105760007DAF8EAF9FAFE697C0903902D0903A02DE
:10577000E0903B02F0903C028AE50E941F358823AE
:1057800051F00E94A5359B01AC01C701B6010E94F2
:105790000AA76B017C016091BD0D7091BE0D072EB3
:1057A000000C880B990B0E94A3AE9B01AC01AE9636
:1057B0006CAD7DAD8EAD9FADAE970E949CAE81115C
:1057C00029C06091BF0D7091C00D072E000C880B91
:1057D000990B0E94A3AE9B01AC01E6966CAD7DAD2A
:1057E0008EAD9FADE6970E949CAE811113C0809153
:1057F000C10D9091C20D2C96EEADFFAD2C97E81720
:10580000F90741F48091C30D9091C40D2816390613
:1058100009F44DC00E9442341093BE0D0093BD0D9B
:10582000B092C00DA092BF0D2091B9063091BA067A
:105830004091BB065091BC06AA966CAD7DAD8EAD75
:105840009FADAA970E9409A7209171073091720716
:1058500040917307509174070E9409A70E9476A88F
:105860007093C20D6093C10D2091BD063091BE06AC
:105870004091BF065091C006E2966CAD7DAD8EADF5
:105880009FADE2970E9409A7209175073091760796
:1058900040917707509178070E9409A70E9476A847
:1058A0007093C40D6093C30D67961FAE6797F1E0C8
:1058B0006396FFAF63972C961FAE1EAE2C9721E028
:1058C0006B962FAF6B9733E0A3963FAFA397312C26
:1058D0006396BFAD6397E1E0BE276396BFAF639762
:1058E0002C962EAD3FAD2C97032E000C440B550B80
:1058F000EE962CAF3DAF4EAF5FAFEE97A396EFADF8
:10590000A3973E1609F4A8C0632D032C000C770B57
:10591000880B990B0E94A3AE9B01AC01AE966CADB7
:105920007DAD8EAD9FADAE970E9402AF9B01AC01E5
:10593000AA966CAD7DAD8EAD9FADAA970E940AA7C9
:105940002B013C01EE966CAD7DAD8EAD9FADEE971B
:105950000E94A3AE9B01AC01E6966CAD7DAD8EAD11
:105960009FADE6970E9402AF9B01AC01E2966CAD41
:105970007DAD8EAD9FADE2970E940AA74B015C0101
:1059800020E030E0A901C301B2010E949CAE87FD76
:1059900005C020E030E040E05FE303C020E030E0FD
:1059A000A901C301B2010E940AA70E94ACA82296D5
:1059B0006CAF7DAF8EAF9FAF229720E030E0A901A2
:1059C000C501B4010E949CAE87FD05C020E030E017
:1059D00040E05FE303C020E030E0A901C501B4016D
:1059E0000E940AA70E94ACA869837A838B839C8358
:1059F000A0962EAD3FADA097E7964FADE797BE01BD
:105A00006F5F7F4FCE01CE960E94653A232D032C07
:105A1000000C330B8901000F111F020F131F2C966E
:105A20004EAD5FAD2C97040F151F000F111F000F17
:105A3000111F0756124FA70196010E940AA7D8010D
:105A40006D937D938D939C9313970E94FF8A6B9621
:105A5000BFAD6B973B0E52CF2C962EAD3FAD2C9722
:105A60002F5F3F4F2C963FAF2EAF2C972330310541
:105A7000C9F063964FAD639741110BC05FEF6B9612
:105A80005FAF6B978FEFA3968FAFA397B2E03B2EDC
:105A90001FCF91E06B969FAF6B97A3E0A396AFAF3C
:105AA000A39715CF80E00E946F34882331F067966A
:105AB0003FAD679730938107E8CC0E947E362F96E2
:105AC0004FAD2F97411102C00E94599D0E94919D98
:105AD0002F965FAD2F97511118C085EC96E00E946C
